0010999999999991994010100004+55500+004700FM-13+9999XP33 V0203601N008219999999N0200001N9+00501+99999100081ADDAG12000
0010999999999991994010100004+55800+004500FM-13+9999XP42 V0200101N004119999999N0200001N9+00411+99999100001ADDAG12000
0025999999999991994010100004+16700-058600FM-13+9999V2LX V02099999999999999999N9999999N9+02581+02151102101ADDAG12000REMSYN006 222//
0036999999999991994010100004+32200-118900FM-13+9999C6HL V0203101N00721220001CN0200001N9+01501+99999101951ADDAG12000GF102991999999999999999999
0036999999999991994010100004+33300-076600FM-13+9999ZCAM V0200401N00311220001CN0200001N9+01901+99999999999ADDAG12000GF101991999999999999999999
0036999999999991994010100004+46100-073100FM-13+9999VD78 V0202801N00311220001CN0100001N9-00701+99999101701ADDAG12000GF104991999999999999999999
0036999999999991994010100004+49200-172600FM-13+9999VROZ V0200501N004119999999N0500001N9+01101+99999101101ADDAG12000GF108991999999999999999999
0036999999999991994010100004+53800-152200FM-13+99993ECM V0200301N010819999999N0020001N9+00601+99999999999ADDAG12000GF108991999999002501999999
0036999999999991994010100004-08600+128700FM-13+99999MAV V0202801N010319999999N0200001N9+02921+02751100801ADDAG12000GF105991999999002501999999
0036999999999991994010100004+00000+142983FM-18+9999DRIB V02099999999999999999N9999999N9+99999+99999999999ADDAG10999MW1001REMSYN01152306     ?
0036999999999991994010100004+00000-155017FM-18+9999DRIB V02099999999999999999N9999999N9+99999+99999999999ADDAG10999MW1001REMSYN01151023     ?
0036999999999991994010100004+00017-179883FM-18+9999DRIB V02099999999999999999N9999999N9+99999+99999999999ADDAG10999MW1001REMSYN01152311     ?
0036999999999991994010100004+01950-125017FM-18+9999DRIB V02099999999999999999N9999999N9+99999+99999999999ADDAG10999MW1001REMSYN01151016     ?
0036999999999991994010100004+01950-170017FM-18+9999DRIB V02099999999999999999N9999999N9+99999+99999999999ADDAG10999MW1001REMSYN01151305     ?
0036999999999991994010100004+01983+137317FM-18+9999DRIB V02099999999999999999N9999999N9+99999+99999999999ADDAG10999MW1001REMSYN01152307     ?
0036999999999991994010100004+01983+147000FM-18+9999DRIB V02099999999999999999N9999999N9+99999+99999999999ADDAG10999MW1001REMSYN01152301     ?
0036999999999991994010100004+02000+156000FM-18+9999DRIB V02099999999999999999N9999999N9+99999+99999999999ADDAG10999MW1001REMSYN01152011     ?
0036999999999991994010100004+02000+165000FM-18+9999DRIB V02099999999999999999N9999999N9+99999+99999999999ADDAG10999MW1001REMSYN01152001     ?
0036999999999991994010100004+02000-179850FM-18+9999DRIB V02099999999999999999N9999999N9+99999+99999999999ADDAG10999MW1001REMSYN01152310     ?
0036999999999991994010100004+02017-155117FM-18+9999DRIB V02099999999999999999N9999999N9+99999+99999999999ADDAG10999MW1001REMSYN01151021     ?
0036999999999991994010100004+02033-110117FM-18+9999DRIB V02099999999999999999N9999999N9+99999+99999999999ADDAG10999MW1001REMSYN01132316     ?
0036999999999991994010100004+04967+137017FM-18+9999DRIB V02099999999999999999N9999999N9+99999+99999999999ADDAG10999MW1001REMSYN01152314     ?
0036999999999991994010100004+04967+147017FM-18+9999DRIB V02099999999999999999N9999999N9+99999+99999999999ADDAG10999MW1001REMSYN01152302     ?
0036999999999991994010100004+04983+156050FM-18+9999DRIB V02099999999999999999N9999999N9+99999+99999999999ADDAG10999MW1001REMSYN01152008     ?
0036999999999991994010100004+04983-169967FM-18+9999DRIB V02099999999999999999N9999999N9+99999+99999999999ADDAG10999MW1001REMSYN01151303     ?
0036999999999991994010100004+04983-179950FM-18+9999DRIB V02099999999999999999N9999999N9+99999+99999999999ADDAG10999MW1001REMSYN01152309     ?
0036999999999991994010100004+05000-109967FM-18+9999DRIB V02099999999999999999N9999999N9+99999+99999999999ADDAG10999MW1001REMSYN01132315     ?
0036999999999991994010100004+05000-140000FM-18+9999DRIB V02099999999999999999N9999999N9+99999+99999999999ADDAG10999MW1001REMSYN01151007     ?
0036999999999991994010100004+05033+165000FM-18+9999DRIB V02099999999999999999N9999999N9+99999+99999999999ADDAG10999MW1001REMSYN01152003     ?
0036999999999991994010100004+05050-124967FM-18+9999DRIB V02099999999999999999N9999999N9+99999+99999999999ADDAG10999MW1001REMSYN01151015     ?
0036999999999991994010100004+07983-124983FM-18+9999DRIB V02099999999999999999N9999999N9+99999+99999999999ADDAG10999MW1001REMSYN01151307     ?
0036999999999991994010100004+07983-170017FM-18+9999DRIB V02099999999999999999N9999999N9+99999+99999999999ADDAG10999MW1001REMSYN01151309     ?
0036999999999991994010100004+08000-179867FM-18+9999DRIB V02099999999999999999N9999999N9+99999+99999999999ADDAG10999MW1001REMSYN01152315     ?
0036999999999991994010100004+08033+165067FM-18+9999DRIB V02099999999999999999N9999999N9+99999+99999999999ADDAG10999MW1001REMSYN01152006     ?
0036999999999991994010100004+08033-110133FM-18+9999DRIB V02099999999999999999N9999999N9+99999+99999999999ADDAG10999MW1001REMSYN01143001     ?
0036999999999991994010100004+08983-140233FM-18+9999DRIB V02099999999999999999N9999999N9+99999+99999999999ADDAG10999MW1001REMSYN01151006     ?
0036999999999991994010100004+49733-011350FM-18+9999DRIB V02099999999999999999N9999999N9+00801+99999999999ADDAG10999MW1001REMSYN01144777     ?
0036999999999991994010100004-00017-094933FM-18+9999DRIB V02099999999999999999N9999999N9+99999+99999999999ADDAG10999MW1001REMSYN01132321     ?
0036999999999991994010100004-00033-170033FM-18+9999DRIB V02099999999999999999N9999999N9+99999+99999999999ADDAG10999MW1001REMSYN01151010     ?
0036999999999991994010100004-01950+164383FM-18+9999DRIB V02099999999999999999N9999999N9+99999+99999999999ADDAG10999MW1001REMSYN01152002     ?
0036999999999991994010100004-01950-179867FM-18+9999DRIB V02099999999999999999N9999999N9+99999+99999999999ADDAG10999MW1001REMSYN01152312     ?
0036999999999991994010100004-01983-155017FM-18+9999DRIB V02099999999999999999N9999999N9+99999+99999999999ADDAG10999MW1001REMSYN01151022     ?
0036999999999991994010100004-02000-094967FM-18+9999DRIB V02099999999999999999N9999999N9+99999+99999999999ADDAG10999MW1001REMSYN01132322     ?
0036999999999991994010100004-02000-109983FM-18+9999DRIB V02099999999999999999N9999999N9+99999+99999999999ADDAG10999MW1001REMSYN01132317     ?
0036999999999991994010100004-02000-124900FM-18+9999DRIB V02099999999999999999N9999999N9+99999+99999999999ADDAG10999MW1001REMSYN01151017     ?
0036999999999991994010100004-02000-139967FM-18+9999DRIB V02099999999999999999N9999999N9+99999+99999999999ADDAG10999MW1001REMSYN01151009     ?
0036999999999991994010100004-02183-170017FM-18+9999DRIB V02099999999999999999N9999999N9+99999+99999999999ADDAG10999MW1001REMSYN01151306     ?
0036999999999991994010100004-03017-134317FM-18+9999DRIB V02099999999999999999N9999999N9+99999+99999999999ADDAG10999MW1001REMSYN01151018     ?
0036999999999991994010100004-04667+164483FM-18+9999DRIB V02099999999999999999N9999999N9+99999+99999999999ADDAG10999MW1001REMSYN01152004     ?
0036999999999991994010100004-04967-109983FM-18+9999DRIB V02099999999999999999N9999999N9+99999+99999999999ADDAG10999MW1001REMSYN01132318     ?
0036999999999991994010100004-04983-154983FM-18+9999DRIB V02099999999999999999N9999999N9+99999+99999999999ADDAG10999MW1001REMSYN01151019     ?
0036999999999991994010100004-04983-170000FM-18+9999DRIB V02099999999999999999N9999999N9+99999+99999999999ADDAG10999MW1001REMSYN01151304     ?
0036999999999991994010100004-05017+156033FM-18+9999DRIB V02099999999999999999N9999999N9+99999+99999999999ADDAG10999MW1001REMSYN01152010     ?
0036999999999991994010100004-06867-171217FM-18+9999DRIB V02099999999999999999N9999999N9+99999+99999999999ADDAG10999MW1001REMSYN01152313     ?
0036999999999991994010100004-07967+164967FM-18+9999DRIB V02099999999999999999N9999999N9+99999+99999999999ADDAG10999MW1001REMSYN01152007     ?
0036999999999991994010100004-08000-170033FM-18+9999DRIB V02099999999999999999N9999999N9+99999+99999999999ADDAG10999MW1001REMSYN01151310     ?
0036999999999991994010100004-08017-109933FM-18+9999DRIB V02099999999999999999N9999999N9+99999+99999999999ADDAG10999MW1001REMSYN01132319     ?
0036999999999991994010100004-08017-124983FM-18+9999DRIB V02099999999999999999N9999999N9+99999+99999999999ADDAG10999MW1001REMSYN01151308     ?
0036999999999991994010100004-08017-179933FM-18+9999DRIB V02099999999999999999N9999999N9+99999+99999999999ADDAG10999MW1001REMSYN01152316     ?
0036999999999991994010100004-08283-154967FM-18+9999DRIB V02099999999999999999N9999999N9+99999+99999999999ADDAG10999MW1001REMSYN01151302     ?
0039999999999991994010100004+00000+000000FM-13+9999CGBS V0201901N002119999999N9999999N9-00731-01031102011ADDAG12000MD1210051+9999REMSYN006 22200
0044999999999991994010100004+00033-124417FM-18+9999DRIB V0201201N008219999999N9999999N9+02511+99999999999ADDAG10999MW1001SA1+2569REMSYN01151011     ?
0044999999999991994010100004+30200-024233FM-18+9999DRIB V02099999999999999999N9999999N9+99999+99999999999ADDAG10999MW1001SA1+1959REMSYN01113568     ?
0044999999999991994010100004+30700-016717FM-18+9999DRIB V02099999999999999999N9999999N9+99999+99999999999ADDAG10999MW1001SA1+1889REMSYN01113571     ?
0044999999999991994010100004+30950-027200FM-18+9999DRIB V02099999999999999999N9999999N9+99999+99999999999ADDAG10999MW1001SA1+1999REMSYN01113576     ?
0044999999999991994010100004+32333-023750FM-18+9999DRIB V02099999999999999999N9999999N9+99999+99999999999ADDAG10999MW1001SA1+1889REMSYN01113567     ?
0044999999999991994010100004+32483-029800FM-18+9999DRIB V02099999999999999999N9999999N9+99999+99999999999ADDAG10999MW1001SA1+2009REMSYN01113587     ?
0044999999999991994010100004+33533-022700FM-18+9999DRIB V02099999999999999999N9999999N9+99999+99999999999ADDAG10999MW1001SA1+1899REMSYN01113581     ?
0044999999999991994010100004+34117-021367FM-18+9999DRIB V02099999999999999999N9999999N9+99999+99999999999ADDAG10999MW1001SA1+1839REMSYN01113586     ?
0044999999999991994010100004+34200-024283FM-18+9999DRIB V02099999999999999999N9999999N9+99999+99999999999ADDAG10999MW1001SA1+1789REMSYN01113572     ?
0044999999999991994010100004+34233-025083FM-18+9999DRIB V02099999999999999999N9999999N9+99999+99999999999ADDAG10999MW1001SA1+1809REMSYN01113591     ?
0044999999999991994010100004+34400-020617FM-18+9999DRIB V02099999999999999999N9999999N9+99999+99999999999ADDAG10999MW1001SA1+1819REMSYN01113573     ?
0044999999999991994010100004+34917-022067FM-18+9999DRIB V02099999999999999999N9999999N9+99999+99999999999ADDAG10999MW1001SA1+1809REMSYN01113575     ?
0044999999999991994010100004+35000-017833FM-18+9999DRIB V02099999999999999999N9999999N9+99999+99999999999ADDAG10999MW1001SA1+1869REMSYN01113584     ?
0044999999999991994010100004+35117-023033FM-18+9999DRIB V02099999999999999999N9999999N9+99999+99999999999ADDAG10999MW1001SA1+1749REMSYN01113590     ?
0044999999999991994010100004+35533-021533FM-18+9999DRIB V02099999999999999999N9999999N9+99999+99999999999ADDAG10999MW1001SA1+1769REMSYN01113578     ?
0044999999999991994010100004+36917-021217FM-18+9999DRIB V02099999999999999999N9999999N9+99999+99999999999ADDAG10999MW1001SA1+1719REMSYN01113574     ?
0044999999999991994010100004+46933-010667FM-18+9999DRIB V0202801N009319999999N9999999N9+99999+99999102181ADDAG10999MW1001SA1+1229REMSYN01162502     ?
0044999999999991994010100004-01983-139967FM-18+9999DRIB V0201001N007219999999N9999999N9+02601+99999999999ADDAG10999MW1001SA1+2579REMSYN01151009     ?
0044999999999991994010100004-02000-124883FM-18+9999DRIB V0201101N007719999999N9999999N9+02541+99999999999ADDAG10999MW1001SA1+2539REMSYN01151017     ?
0044999999999991994010100004-03017-134300FM-18+9999DRIB V0200901N007719999999N9999999N9+02631+99999999999ADDAG10999MW1001SA1+2619REMSYN01151018     ?
0044999999999991994010100004-04983-139917FM-18+9999DRIB V0200901N007219999999N9999999N9+02721+99999999999ADDAG10999MW1001SA1+2689REMSYN01151014     ?
0044999999999991994010100004-12950+174117FM-18+9999DRIB V02099999999999999999N9999999N9+99999+99999999999ADDAG10999MW1001SA1+2929REMSYN01152581     ?
0039999999999991994010100004+51000-013300FM-13+9999SHIP V02099999999999999999N9999999N9+99999+99999101461ADDAG12000SA1+1109REMSYN012 22200 00110
0050999999999991994010100004+03400+148800FM-13+9999JLMV V0200701N00771220001CN0200001N9+03001+02531100701ADDAG12000GF103991021031008001061011MD1210101+9999
0050999999999991994010100004+06100+091500FM-13+9999ZELP V0200201N00461220001CN0200001N9+02641+02161999999ADDAG12000GF101991011011004501001001MD1210031+9999
0050999999999991994010100004+15800+130300FM-13+9999JCGJ V0200501N00931220001CN0200001N9+02701+02361101351ADDAG12000GF103991031031004501031999MD1210151+9999
0050999999999991994010100004+24400-073000FM-13+9999NCBE V0200401N00571220001CN0100001N9+02441+02201102501ADDAG12000GF102991999999008001999999MD1210151+9999
0050999999999991994010100004+31800+127200FM-13+9999ELKM V0203401N007219999999N0100001N9+01151+01001102361ADDAG12000GF106991999999008001999999MD1410001+9999
0050999999999991994010100004+38000+159900FM-13+99993EPB V0201601N02211012001CN0100001N9+01601+99999100661ADDAG11000GF107991071041012501011071MD1710141+9999
0050999999999991994010100004+39600-153600FM-13+9999KSFK V0202501N018519999999N0100001N9+01221+00701099311ADDAG12000GF108991999999004501999999MD1710131+9999
0050999999999991994010100004+40800-056800FM-13+9999LAOO V0202701N014419999999N0040001N9+00601+99999102101ADDAG12000GF108991999999008001999999MD1110251+9999
0050999999999991994010100004+43200-137100FM-13+9999JEBG V0202301N01031002101CN0200001N9+01251+01071099951ADDAG12000GF107991071031002501999999MD1410001+9999
0050999999999991994010100004+49200-137800FM-13+9999KIRH V0209999999999004201CN0200001N9+01001+99999999999ADDAG12000GF105991051021004501061011MD1210281+9999
0052999999999991994010100004+15400-063900FM-13+99993EGR V0202401N00821220001CN0200001N9+02651+99999999999ADDAG12000GA1001+999999999GF100991001001999999001001
0052999999999991994010100004+36700-073900FM-13+9999C6JJ V0202801N01231220001CN0200001N9+00701+99999102901ADDAG12000GA1001+999999999GF100991001001999999001001
0051999999999991994010100004+05100+079100FM-13+9999PGEW V0200701N00261220001CN0200001N9+02601+99999101341ADDAG12000GF102991999999999999999999REMSYN006 222//
0051999999999991994010100004+05600-028100FM-13+9999PJLC V0200501N00311220001CN0200001N9+02541+99999101221ADDAG12000GF102991999999999999999999REMSYN006 22253
0051999999999991994010100004+19800+119300FM-13+9999PGRE V0200601N018019999999N0100001N9+02251+99999101701ADDAG12000GF108991999999999999999999REMSYN006 22282
0051999999999991994010100004-10500+140800FM-13+9999PGUP V0202701N007219999999N0100001N9+03001+99999100661ADDAG12000GF108991999999999999999999REMSYN006 22273
0051999999999991994010100004-23000+106300FM-13+9999PGTG V0201701N008219999999N0200001N9+02251+99999101601ADDAG12000GF108991999999999999999999REMSYN006 22273
0058999999999991994010100004+54500-152700FM-13+9999DZLJ V0200401N017519999999N0010001N9+00601+99999096851ADDAG12000AY151061AY241061GF108991999999999999999999MW1411
0058999999999991994010100004+61000-012100FM-13+9999V2QC V0201001N00461220001CN0200001N9+00581+99999099501ADDAG12001AY181061AY211061GF103991999999002501999999MW1251
0058999999999991994010100004-14900+145400FM-13+9999SHIP V0201501N005119999999N0200001N9+02801+99999100401ADDAG11000AY121061AY211061GF108991999999999999999999MW1051
0058999999999991994010100004-33800+028800FM-13+9999SHIP V0200401N00771220001CN0200001N9+02601+02151100931ADDAG11000AY101061AY201061GF104991021081012501041021MW1021
0058999999999991994010100004+39133-025017FM-18+9999DRIB V02099999999999999999N9999999N9+01661+99999102711ADDAG10999MD1410001+9999MW1001SA1+1599REMSYN01162524     ?
0058999999999991994010100004+52933-033600FM-18+9999DRIB V02099999999999999999N9999999N9+01271+99999999999ADDAG10999MD1710211+9999MW1001SA1+0699REMSYN01144616     ?
0058999999999991994010100004+54683-020717FM-18+9999DRIB V02099999999999999999N9999999N9+02441+99999999999ADDAG10999MD1710271+9999MW1001SA1+1019REMSYN01144779     ?
0058999999999991994010100004+56167-027533FM-18+9999DRIB V0201401N009819999999N9999999N9+01151+99999099061ADDAG10999MD1710511+9999MW1001SA1+0769REMSYN01144728     ?
0058999999999991994010100004+58783-033100FM-18+9999DRIB V0201201N003619999999N9999999N9+00231+99999999999ADDAG10999MD1710221+9999MW1001SA1+0549REMSYN01162712     ?
0058999999999991994010100004+59933-017467FM-18+9999DRIB V02099999999999999999N9999999N9+99999+99999099421ADDAG10999MD1210091+9999MW1001SA1+0849REMSYN01144778     ?
0061999999999991994010100004+18400-103900FM-13+9999S6HM V0209991V001019999999N0200001N9+02751+02311101331ADDAA199422091AG13000GF105991999999002501999999MD1410001+9999
0053999999999991994010100004+57800-000700FM-13+9999DBFP V0202801N002619999999N9999999N9+00481+00251100021ADDAG12000MD1210161+9999SA1+0749REMSYN012 22200 00074
0065999999999991994010100004+00400+151900FM-13+9999VRRY V0200501N00261220001CN0200001N9+03051+02631100711ADDAG11000GF103991021041012501001081MD1810021+9999REMSYN006 22284
0065999999999991994010100004+22700-069300FM-13+9999GCCC V0200901N00571220001CN0200001N9+02561+02061102201ADDAG12000GF101991011011004501001001MD1310161+9999REMSYN006 22273
0071999999999991994010100004+35600-021200FM-13+9999HZLD V0209991C000519999999N0200001N9+99999+99999100001ADDAG12000GF107991999999017501999999EQDQ01+000027APCTENQ02+005207APC3  
0065999999999991994010100004+39400+136600FM-13+9999ELDU V0203201N01951012001CN0100001N9+00001-00301101651ADDAG12000GF108991071061012501999999MD1410001+9999REMSYN006 22254
0065999999999991994010100004+48100+140300FM-13+9999UNGS V0200301N01001220001CN0100001N9-01601+99999101061ADDAG12000GF102991999999004501999999MD1410001+9999REMSYN006 22233
0065999999999991994010100004-17300+109000FM-13+9999C6LC V0201801N00721220001CN0200001N9+02551+01931101321ADDAG12000GF102991021021002501001001MD1110101+9999REMSYN006 22273
0065999999999991994010100004-19500-006900FM-13+9999FNXK V0201201N00511220001CN0200001N9+02051+01551101521ADDAG11000GF103991031021012501001001MD1010011+9999REMSYN006 22233
0072999999999991994010100004+20100+143300FM-13+9999JJQL V0202501N00721004201CN0040001N9+02601+02461101551ADDAG11000AY101061AY201061GF107991051051004501021001MD1710151+9999MW1021
0072999999999991994010100004+27300-124300FM-13+9999VRIO V0200401N015019999999N0100001N9+01801+01271102011ADDAG11000AY121061AY221061GF106991031999002501021021MD1810051+9999MW1031
0072999999999991994010100004+30100-147200FM-13+9999GCJZ V0202701N00721001201CN0040001N9+01781+01731101251ADDAG12000AY151061AY221061GF108991081061001501999999MD1610181+9999MW1521
0072999999999991994010100004+36100+151100FM-13+99993EJB V0203301N02421002101CN0020001N9+01251+01071099251ADDAG12000AY121061AY221061GF108991081071002501999999MD1610101+9999MW1501
0072999999999991994010100004+38700+165300FM-13+9999D9SG V0201601N01391220001CN0100001N9+01231+99999101931ADDAG11000AY101061AY231061GF103991999999017501999999MD1210121+9999MW1011
0072999999999991994010100004+45500+174400FM-13+9999YJXU V0202901N00511220001CN0200001N9+00301+00001101901ADDAG12000AY101061AY211061GF104991031011022501999999MD1110151+9999MW1021
0072999999999991994010100004+48200-155700FM-13+9999JPKN V0202201N01131007501CN0100001N9+01001+00611096801ADDAG12000AY121061AY221061GF106991061041008001031999MD1410001+9999MW1021
0072999999999991994010100004+50000-137000FM-13+9999S6DX V0202101N01641220001CN0100001N9+01001+00811098401ADDAG12001AY161061AY221061GF104991999999004501999999MD1810101+9999MW1031
0065999999999991994010100004+72800+030500FM-13+9999OYZC V0203401N010019999999N0040001N9-00051+99999099231ADDAG12000GF107991999999999999999999SA1+0299REMSYN012 222// 00029
0074999999999991994010100004+50000-065000FM-13+9999VCPN V0202501N00671001201CN0020001N9-01201+99999100901ADDAG12001AY171061AY271061GA1091+999999999GF109991091999999999999999MW1711
0071999999999991994010100004+01900-010400FM-13+9999ZTSG V0201401N006219999999N0200001N9+02801+02371101121ADDAG12000GF107991071001012501051999MD1210181+9999REMSYN012 22234 00///
0073999999999991994010100004-07700-034700FM-13+9999SHIP V0201401N01131220001CN0100001N9+02801+99999097101ADDAG11000AY101061AY201061GF104991041031012501021021MW1021REMSYN006 22244
0073999999999991994010100004-13900+143700FM-13+9999SHIP V0201001N005119999999N0100001N9+02801+99999100651ADDAG11000AY121061AY221061GF108991999999999999999999MW1021REMSYN006 222//
0073999999999991994010100004-14000+144100FM-13+9999SHIP V0209991C006219999999N0100001N9+02001+99999100921ADDAG11000AY121061AY221061GF107991999999999999999999MW1011REMSYN006 222//
0073999999999991994010100004-14300+144600FM-13+9999SHIP V02099999999999999999N0040001N9+02901+99999999999ADDAG11000AY121061AY221061GF108991999999999999999999MW1021REMSYN006 222//
0073999999999991994010100004-18500+098100FM-13+99999KKS V0201401N01291045001CN0200001N9+02251+99999101471ADDAG11000AY121061AY221061GF106991031041000751031081MW1021REMSYN006 22233
0073999999999991994010100004-21300+103500FM-13+99999KKP V0201601N00671002101CN0100001N9+02001+99999101691ADDAG12000AY151061AY221061GF108991081031002501001001MW1201REMSYN006 22274
0073999999999991994010100004-28800+067000FM-13+9999C6CE V0200701N00511220001CN0200001N9+02301+99999102281ADDAG12000AY111061AY211061GF102991999999999999999999MW1251REMSYN006 22231
0077999999999991994010100004+15800-058600FM-13+9999WWDY V0200701N007719999999N0200001N9+02441+02101101801ADDAG12000MD1710151+9999SA1+2949UG1050200909REMSYN024 22232 00294 309// 40504
0079999999999991994010100004+35800-005800FM-13+9999C6LM V0202601N00771004201CN0200001N9+01591+01231103061ADDAG12000GF106991051021004501999011MD1210251+9999SA1+1629REMSYN012 22263 00162
0079999999999991994010100004+37300-013200FM-13+9999FNXR V0202001N00461220001CN0200001N9+01301+01101103301ADDAG11000GF103991031021008001001001MD1410001+9999SA1+1709REMSYN012 22243 00170
0083999999999991994010100004+38500-033800FM-13+9999WPVD V0202201N01391036001CN0200001N9+01831+01601101951ADDAG12000GF108991011061004501031071MD1710151+9999SA1+1989REMSYN016 22264 00198 ICE
0079999999999991994010100004+38600+007100FM-13+9999FNRW V0202501N013419999999N0200001N9+01601+01541101751ADDAG11000GF108991999999999999999999MD1710201+9999SA1+1529REMSYN012 22250 00152
0079999999999991994010100004+45100-008800FM-13+9999ZCAD V0203201N01031220001CN0200001N9+01021+00531102521ADDAG11000GF103991031051004501001001MD1110101+9999SA1+1289REMSYN012 22282 00128
0079999999999991994010100004+52100-140600FM-13+9999XYKS V0201501N01031030001CN0040001N9+00901+00701098001ADDAG12000GF107991041031000251021051MD1410001+9999SA1+0909REMSYN012 22273 0009/
0079999999999991994010100004+65400+023000FM-13+9999SDIA V0200801N004119999999N0100001N9-00351+99999099071ADDAG12000GF108991999999999999999999MD1710131+9999SA1+0229REMSYN012 22253 00022
0079999999999991994010100004-07200-029000FM-13+9999UBNZ V0201101N00801045001CN0100001N9+02691+02521101341ADDAG12000GF108991011051008001081021MD1110101+9999SA1+2699REMSYN012 22242 00269
0079999999999991994010100004-09500-029000FM-13+9999UBNZ V0201101N00801045001CN0100001N9+02691+02521101341ADDAG12000GF108991011051008001081021MD1110101+9999SA1+2699REMSYN012 22242 00269
0079999999999991994010100004-12900-001000FM-13+9999URWW V0201101N00701220001CN0200001N9+02251+01721101561ADDAG12000GF102991021011008001001001MD1110061+9999SA1+2329REMSYN012 22233 00232
0079999999999991994010100004-36500+040200FM-13+9999UZMH V0203101N008019999999N0200001N9+02001+99999101201ADDAG12000GF105991999999008001999999MD1410001+9999SA1+2109REMSYN012 22224 00210
0104999999999991994010100004+54600+001400FM-13+9999SHIP V0203001N008719999999N9999999N9+00461-00011100221ADDAG12000MD1210221+9999OA159999999UA1I050159999REMSYN028 22200 10503 70015 555 00509EQDQ01  00462WGOSPD
0084999999999991994010100004+38300-031800FM-13+9999V7AJ V0202201N00511220001CN0200001N9+01761+01631102311ADDAG12000GF104991031081008001001081SA1+1809UA1M020109999REMSYN018 22224 00180 20202
0091999999999991994010100004+21800+144600FM-13+9999JFYU V0203201N00871001201CN0040001N9+02401+01961101401ADDAG12002AY181061AY211061GF108991999011001501021999MD1210201+9999MW1161EQDQ01+000082SCOTLC
0091999999999991994010100004+25500+127300FM-13+9999JALG V0200401N00671220001CN0500001N9+01701+01371102101ADDAG11000AY121061AY261061GF101991999041004501061001MD1110101+9999MW1031EQDQ01+000022SCOTLC
0084999999999991994010100004+11000-076400FM-13+9999PEXX V0200601N00931220001CN0200001N9+02651+02131101081ADDAG12000GF101991011001002501021001MD1012131+9999UA1M060259999REMSYN012 22263 20605
0087999999999991994010100004+25900-070900FM-13+9999SHIP V0200601N00461000601CN0100001N9+02401+01931102351ADDAG12001AY161061AY221061GF107991061051000751999999MD1510011+9999MW1601REMSYN006 22223
0087999999999991994010100004+28500+138500FM-13+9999VVGR V0203201N01541012001CN0100001N9+01701+01201101741ADDAG11000AY121061AY221061GF105991051011012501001001MD1210141+9999MW1021REMSYN006 22213
0087999999999991994010100004+31100+165000FM-13+9999VVGC V0201401N01541220001CN0200001N9+01901+01051102691ADDAG11000AY111061AY211061GF103991021011002501031999MD1710231+9999MW1011REMSYN006 22223
0087999999999991994010100004-02200-007600FM-13+9999VREI V0201601N00721045001CN0200001N9+02661+02431101231ADDAG12001AY151061AY211061GF107991031081002501071061MD1110121+9999MW1031REMSYN006 22234
0087999999999991994010100004-30400+153200FM-13+9999VJGQ V0209991V00261220001CN0200001N9+02651+02201100921ADDAG11000AY101061AY201061GF101991011001017501001051MD1010101+9999MW1021REMSYN006 22283
0090999999999991994010100004-05100+114400FM-13+99999VBZ V0202601N00461007501CN0200001N9+02781+02471101191ADDAG12000GF106991051021008001071001MD1210011+9999UA1M030159999REMSYN018 22234 00/// 20303
0092999999999991994010100004+26100-090700FM-13+9999KGXM V0200901N01031036001CN0200001N9+01941+01501102251ADDAG11000AY121061AY221061GF108991031011004501051021MW1021UA1M030159999REMSYN012 22234 20303
0098999999999991994010100004+56500+003200FM-13+9999LF5U V0203601N00311220001CN0200001N9+00471+00101099901ADDAG12000GF103991031021008001001001MD1210211+9999OA149901401REMSYN028 22200 00061 10502 333 91114
0095999999999991994010100004+45000-062000FM-13+9999CGJV V0202601N00721220001CN0200001N9-00881-01101101861ADDAG12000GA1001+999999999GF100991001001999999001001MD1310021+9999SA1+1229REMSYN012 22200 00122
0095999999999991994010100004+45800-056400FM-13+9999VCRJ V0202801N01291001201CN0020001N9-00701-00911101471ADDAG12001GA1091+999999999GF109991091999999999999999MD1210101+9999SA1+0809REMSYN012 22223 00080
0098999999999991994010100004+02200+105000FM-13+9999GOYE V0200101N00511220001CN0200001N9+02641+02331101201ADDAG12000GF104991031081008001071999MD1510101+9999SA1+2669UA1M030059999REMSYN018 22255 00266 20301
0098999999999991994010100004+03000+119400FM-13+9999KDZF V0209991C00001002101CN0200001N9+02721+02401101191ADDAG12000GF107991071051002501999999MD1210171+9999SA1+2679UA1I991559999REMSYN018 22284 00267 12/31
0098999999999991994010100004+05300+000000FM-13+9999FNXW V0209999999999220001CN0200001N9+02751+02041101321ADDAG12000GF102991021001022501031001MD1810051+9999SA1+2709UA1M000009999REMSYN018 22224 00270 20000
0098999999999991994010100004+15300+113000FM-13+9999KRGJ V0200301N01031004201CN0100001N9+02441+02101101541ADDAG12000GF108991081011004501999999MD1310101+9999SA1+2009UA1M060159999REMSYN018 22253 00200 20603
0098999999999991994010100004+25600-019100FM-13+9999PGDW V0200501N00511036001CN0200001N9+01981+01511102421ADDAG12000GF108991021011004501011999MD1810101+9999SA1+1979UA1M020059999REMSYN018 22253 00197 20201
0098999999999991994010100004+26900+034400FM-13+9999PGEA V0209991C00001007501CN0500001N9+02391+02001101381ADDAG12000GF107991071031008001999999MD1610041+9999SA1+2409UA1M000009999REMSYN018 22235 00240 20000
0098999999999991994010100004+32500+129300FM-13+9999UZMX V0200301N00401012001CN0200001N9+01101+99999102511ADDAG12000GF107991071021012501999999MD1410001+9999SA1+1009UA1M020059999REMSYN018 22243 00100 20201
0098999999999991994010100004+34000-119200FM-13+99998JNP V0202801N00721220001CN0200001N9+01651+01321101801ADDAG12000GF103991021001022501041011MD1710051+9999SA1+1609UA1M030059999REMSYN018 22264 00160 20301
0098999999999991994010100004+35100-006700FM-13+9999PFWZ V0200201N002619999999N0200001N9+01581+01211102961ADDAG12000GF108991081041999999999999MD1810021+9999SA1+1779UA1M010059999REMSYN018 22254 00177 20101
0098999999999991994010100004+35400+028000FM-13+9999UNDB V0201401N008019999999N0040001N9+01381+99999101411ADDAG12001GF108991021051008001999999MD1710241+9999SA1+2009UA1M990159999REMSYN018 22233 00200 2//03
0098999999999991994010100004+36400+020500FM-13+9999PFFA V0203501N00411220001CN0200001N9+01601+01021101881ADDAG12000GF101991011021004501001001MD1810201+9999SA1+1659UA1M010059999REMSYN018 22223 00165 20101
0098999999999991994010100004+37600+007200FM-13+9999XMRG V0202601N00621220001CN0200001N9+01561+01221102091ADDAG12000GF103991011001999999041051MD1710161+9999SA1+1549UA1M020109999REMSYN018 22265 00154 20202
0098999999999991994010100004+38100-068600FM-13+9999OXDF V0203001N00671220001CN0100001N9+00801+00401103001ADDAG12000GF103991031011017501999999MD1110151+9999SA1+0409UA1M080109999REMSYN018 22233 00040 20802
0098999999999991994010100004+42700+131700FM-13+9999EMKP V0203601N00501220001CN0500001N9-00501+99999102371ADDAG12000GF103991031011008001001001MD1410001+9999SA1+0169UA1M020109999REMSYN018 22212 00016 20202
0098999999999991994010100004+44500+148300FM-13+9999UZSU V0203001N00501012001CN0200001N9+00121+99999100341ADDAG12000GF106991061021012501001001MD1210041+9999SA1+0099UA1M020059999REMSYN018 22252 00009 20201
0098999999999991994010100004+53000-135300FM-13+9999JFDO V0202201N01291030001CN0200001N9+01001+00711098471ADDAG12000GF106991041041008001061021MD1210121+9999SA1+1009UA1M080359999REMSYN018 22273 00100 20807
0098999999999991994010100004+55500+163200FM-13+9999UQJK V0203601N00201007501CN0200001N9-00811+99999101411ADDAG12000GF108991081051008001999999MD1210151+9999SA1+0039UA1M110009999REMSYN018 22281 00003 21100
0098999999999991994010100004+58300+000800FM-13+9999MKFH V0203201N002619999999N0500001N9+00521-00071100101ADDAG12000GF106991999999999999999999MD1110181+9999SA1+0749UA1M030059999REMSYN018 22200 00074 20301
0098999999999991994010100004+60200-037600FM-13+9999SHIP V0200401N01401002101CN0020001N9+00401+00201099501ADDAG12000GF108991081071002501999999MD1410001+9999SA1+0389UA1M100309999REMSYN018 22253 00038 21006
0098999999999991994010100004+61200-004100FM-13+9999UPRN V0202301N005019999999N0200001N9+00611+99999099741ADDAG12000GF107991999999999999999999MD1210101+9999SA1+0789UA1M050059999REMSYN018 22222 00078 20501
0098999999999991994010100004+65900+001900FM-13+9999LDWR V0200401N01081002101CN0200001N9+00361+00051099601ADDAG12001GF106991061091002501001001MD1210161+9999SA1+0669UA1I120359999REMSYN018 22200 00066 11207
0098999999999991994010100004+70100+017600FM-13+9999LGYT V0200701N00671220001CN0200001N9+00151-00231099151ADDAG12000GF102991021011008001001001MD1410001+9999SA1+0759UA1M020159999REMSYN018 22200 00075 20203
0098999999999991994010100004-21700+154000FM-13+9999PHVG V0200901N00931002101CN0200001N9+02851+02341100781ADDAG12000GF107991071051002501999999MD1710021+9999SA1+2889UA1M030159999REMSYN018 22283 00288 20303
0098999999999991994010100004-29300-014500FM-13+9999VSBX V0209991V00051220001CN0200001N9+02341+01761102251ADDAG12000GF101991011011002501001001MD1110071+9999SA1+2349UA1M000009999REMSYN018 22263 00234 20000
0098999999999991994010100004+32700+030700FM-13+9999GYSA V0209991V046329999999N0200001N9+01901+01471101301ADDAG11000GF107991999999008001999999MD1510001+9999SA1+1959REMSYN012 22274 00195EQDQ01+004633WOSPD 
0098999999999991994010100004+33400-013500FM-13+9999DCEH V0200901N00261004201CN0200001N9+01771+99999102901ADDAG12000GF108991999021004501071001MD1410001+9999SA1+1709REMSYN012 22283 00170EQDQ01+000082SCOTLC
0098999999999991994010100004+36000-005600FM-13+9999FNFD V0202701N006719999999N0200001N9+01481+01181103001ADDAG12000GF108991999999999999999999MD1210301+9999SA1+1629REMSYN012 22264 00162EQDQ01+000092SCOTLC
0099999999999991994010100004+53000+002100FM-13+9999GVXE V0202801N009319999999N0200001N9+00491+00241100361ADDAG12000AY101061AY201061MD1410001+9999MW1021SA1+0649UG1040202809REMSYN024 22200 00064 328// 40404
0105999999999991994010100004+09200+101400FM-13+9999PLAT V0200601N00211220001CN0200001N9+02571+99999101321ADDAG12000GF104991031011008001031011MD1999999+0051UA1I030059999REMSYN033 22200 10301 333 58005 SMOOTH SEA
0101999999999991994010100004+17500+131700FM-13+9999SHIP V0200501N01031220001CN0200001N9+02651+02421101611ADDAG12000AY111061AY211061GF104991041021002501021001MD1210221+9999MW1801SA1+2749REMSYN012 22283 00274
0101999999999991994010100004+35500-070900FM-13+9999LADX V0203001N00621220001CN0100001N9+01201+00801102901ADDAG11000AY101061AY221061GF103991031999008001999999MD1210251+9999MW1031SA1+2049REMSYN012 22274 00204
0103999999999991994010100004+36100+122700FM-13+9999BPLQ V0202501N002019999999N0100001N9+00261+99999102601ADDAG11000GF107991999001012501031021SA1+0689UA1M990159999REMSYN018 22243 00068 2//03EQDQ01+000002SCOTLC
0101999999999991994010100004+38100-017700FM-13+9999DPLE V0209991V00311220001CN0200001N9+01641+01481103301ADDAG11000AY101061AY201061GF101991999999999999999999MD1310201+9999MW1001SA1+1589REMSYN012 22223 00158
0101999999999991994010100004+47100+153900FM-13+9999OULL V0202901N012919999999N0100001N9+00221-00301098411ADDAG12001AY171061AY221061GF108991071061999999051999MD1610071+9999MW1021SA1+0229REMSYN012 22255 00022
0101999999999991994010100004+71500+028100FM-13+9999JXCX V0202501N00571004201CN0200001N9-00021-00181099101ADDAG12000AY181061AY271061GF108991061051004501021999MD1710121+9999MW1711SA1+0469REMSYN012 22200 00046
0101999999999991994010100004-12500-121100FM-13+9999FNZP V0200801N01901045001CN0500001N9+02661+02031101241ADDAG11000AY101061AY201061GF105991041031012501031001MD1710161+9999MW1031SA1+2629REMSYN012 22254 00262
0103999999999991994010100004+15600+137600FM-13+9999DVUI V0200401N00571220001CN0200001N9+02731+02601101451ADDAG12000GF103991021011002501001021MD1110211+9999SA1+2819UG1070200409REMSYN024 22273 00281 304// 40704
0104999999999991994010100004+52200+002200FM-13+9999GDMK V0202701N00621220001CN0200001N9+00471+00221100361ADDAG12000GF104991999999999999999999MD1210181+9999SA1+0799UA1M030059999REMSYN024 22213 00079 20301 399//
0104999999999991994010100004-31400+104300FM-13+9999VPJM V0200901N006719999999N0200001N9+01721+01161102321ADDAG12000GF108991081041999999999999MD1210221+9999SA1+2009UA1M040159999REMSYN024 22263 00200 20403 399//
0108999999999991994010100004+03300+105500FM-13+9999BOHL V0200201N00901220001CN0100001N9+02601+99999101401ADDAG12000GF103991031011008001001001SA1+2689UA1M990109999UG1990100209REMSYN030 22213 00268 2//02 302// 4//02
0106999999999991994010100004+42100+007600FM-13+9999FNOJ V0202101N01541007501CN0200001N9+01521+01301101221ADDAG12000AY111061AY201061GF108991061071008001071001MD1710131+9999MW1201UA1M050359999REMSYN012 22234 20507
0106999999999991994010100004+44300-042700FM-13+9999C6IZ V0202701N026719999999N0200001N9+00601+00091100551ADDAG12001AY161061AY221061GF108991999999002501999999MD1210301+9999MW1511UA1M991009999REMSYN012 22261 22020
0109999999999991994010100004+44800+138700FM-13+9999USZQ V0209999999999036001CN0200001N9-00621+99999101351ADDAG12000GF105991031081001501051091MD1410001+9999SA1+0109UG1999990609UG2999990309REMSYN018 22212 00010 30603
0108999999999991994010100004+09700-079600FM-13+9999PEXV V0200501N00871045001CN0100001N9+02701+02311101401ADDAG12000GF105991031021004501031011MD1610051+9999UA1M050159999UG1060200309REMSYN024 22223 20503 303// 40604
0112999999999991994010100004+10800-079900FM-13+9999WNJG V0200501N01081045001CN0200001N9+02671+02201101351ADDAG12000GF106991041011004501011011MD1210101+9999UA1M020109999UG1060300509REMSYN028 22283 20202 305// 40606 ICE
0108999999999991994010100004+23200-057400FM-13+9999PJQI V0200901N00311220001CN0200001N9+02351+01831102281ADDAG12000GF103991999999012501999999MD1210161+9999UA1M030059999UG1080152809REMSYN024 22254 20301 328// 40803
0108999999999991994010100004+26300+116400FM-13+9999SHIP V0200401N00871004201CN0200001N9+01801+01021102221ADDAG11000GF105991051011004501001001MD1210101+9999UA1M040109999UG1999990109REMSYN024 22214 20402 301// 6902/
0108999999999991994010100004+26600-053900FM-13+9999C6QK V0200901N00511220001CN0200001N9+02401+02301102101ADDAG11000GF101991011031004501041041MD1010101+9999UA1M020109999UG1040151109REMSYN024 22214 20202 311// 40403
0112999999999991994010100004+30300-137700FM-13+99993EOU V0202201N00771220001CN0200001N9+02101+01701101701ADDAG12000GF104991031041004501081081MD1610151+9999UA1M040059999UG1060252509REMSYN028 22264 20401 325// 40605 ICE
0108999999999991994010100004+36800-123000FM-13+99994XGU V0203601N00511015001CN0200001N9+01501+00801102201ADDAG12000GF108991071051017501999999MD1410001+9999UA1M030059999UG1070303009REMSYN024 22273 20301 330// 40706
0108999999999991994010100004+40200-040400FM-13+99994XIL V0202801N01031004201CN0100001N9+01401+01301101601ADDAG12000GF108991081061004501999999MD1210301+9999UA1M080159999UG1100252609REMSYN024 22233 20803 326// 41005
0108999999999991994010100004+46400+153600FM-13+9999KGTI V0202801N01901001201CN0200001N9+01001-00201098871ADDAG12000GF108991081061001501001001MD1410001+9999UA1M990309999UG1080352809REMSYN024 22253 22806 328// 40807
0108999999999991994010100004+50500-136600FM-13+9999OXIT V0202201N01391030001CN0100001N9+01351+00701098851ADDAG12000GF105991031051001501041999MD1610151+9999UA1M040209999UG1050402709REMSYN024 22265 20404 327// 40508
0111999999999991994010100004-25000+153900FM-13+9999VMJS V0201201N00461220001CN0200001N9+02801+02311101061ADDAG11000AY101061AY201061GF104991041041004501001001MD1410001+9999MW1021UG1999990909REMSYN018 22283 00/// 309//
0114999999999991994010100004+05800+086300FM-13+9999HZXS V0200501N00821220001CN0200001N9+02801+02391101001ADDAG11000GA1001+999999999GF100991001001999999001001MD1510031+9999SA1+2709UA1M030109999REMSYN018 22224 00270 20302
0114999999999991994010100004+19000+137300FM-13+9999FAIT V0200101N01101012001CN0200001N9+02601+02251101801ADDAG11000GF105991051081008001041001MW1031SA1+2709UA1M030059999UG1060150109REMSYN030 22213 00270 20301 301// 40603
0114999999999991994010100004+19100+058100FM-13+9999GOYD V0200901N00461220001CN0200001N9+02401+01931101581ADDAG12000GA1001+999999999GF100991001001999999001001MD1410001+9999SA1+2519UA1M020059999REMSYN018 22215 00251 20201
0114999999999991994010100004+24200+036300FM-13+9999PGDF V0209991V00151220001CN0100001N9+02461+02291101221ADDAG12000GA1001+999999999GF100991001001999999001001MD1810061+9999SA1+2349UA1M010059999REMSYN018 22275 00234 20101
0114999999999991994010100004+32000-028000FM-13+9999UTPZ V0200501N007019999999N0200001N9+01801+99999102861ADDAG12000GA1091+999999999GF109991091999999999999999MD1210081+9999SA1+1909UA1M040109999REMSYN018 22271 00190 20402
0114999999999991994010100004+38000-071000FM-13+9999PJJU V0202901N00821220001CN0200001N9+00701+00301102841ADDAG12000GA1001+999999999GF100991001001999999001001MD1210201+9999SA1+1389UA1M060209999REMSYN018 22234 00138 20604
0114999999999991994010100004+39400-058800FM-13+9999SCIP V0203101N01541007501CN0200001N9+00861+00001102221ADDAG12000GF105991051021008001001001MD1210251+9999UA1M080509999UG1120603009REMSYN030 22272 00/// 20810 330// 41212
0114999999999991994010100004+41100-057500FM-13+99998PAJ V0203201N01031000301CN0002001N9+00601+00401102461ADDAG12000GA1091+999999999GF109991091999999999999999MD1210301+9999SA1+1609UA1M040309999REMSYN018 22243 00160 20406
0114999999999991994010100004+41400+017800FM-13+9999SYFT V0201801N00571220001CN0200001N9+01181+00801101851ADDAG12000GA1001+999999999GF100991001001999999001001MD1710231+9999SA1+1609UA1M020059999REMSYN018 22234 00160 20201
0114999999999991994010100004+57500+019900FM-13+9999URVY V0202301N00801002401CN0100001N9+00301+99999099351ADDAG12000GA1091+999999999GF109991091999999999999999MD1210081+9999SA1+0309UA1M010059999REMSYN018 22200 00030 20101
0114999999999991994010100004+61000-004300FM-13+9999UBXS V0202101N002019999999N0200001N9+00611+99999099491ADDAG12000GA1091+999999999GF109991091999999999999999MD1210161+9999SA1+0689UA1M011009999REMSYN018 22241 00068 20120
0114999999999991994010100004+72900+031100FM-13+9999UFYN V0200701N01001002401CN0100001N9-00051+99999099091ADDAG12000GA1091+999999999GF109991091999999999999999MD1710051+9999SA1+0299UA1M040159999REMSYN018 22241 00029 20403
0114999999999991994010100004-11200-000200FM-13+9999ZSPP V0201001N00621007501CN0200001N9+02401+01941101391ADDAG11000GF105991051011008001001001MD1110151+9999UA1M020059999UG1060201209REMSYN030 22275 00/// 20201 312// 40604
0114999999999991994010100004-35300+021700FM-13+9999ELHL V0201801N00411220001CN0200001N9+02001+01581101301ADDAG12000GF103991031999008001021999MD1410001+9999UA1M000009999UG1080252109REMSYN030 22200 00/// 20000 321// 40805
0117999999999991994010100004+61200+002300FM-13+9999LF3J V0203001N006219999999N0200001N9+00541+00021099631ADDAG12000GF108991999999008001999999MD1210091+9999OA149901701REMSYN028 22200 00081 10804 333 91117EQDQ01+000092SCOTLC
0114999999999991994010100004-51500-151500FM-13+9999UJKW V0202901N99999220001CN0150001N9-02171+99999098621ADDAG12000GF104991001001999999001011MD1310201+9999SA1+0329REMSYN012 22200 00032EQDQ01+009801WOSPD Q02+000952SCOLCB
0117999999999991994010100004+25900-052100FM-13+9999C6KD V0201301N00511220001CN0200001N9+02301+01991102461ADDAG11000GF104991999081008001001001MD1210101+9999SA1+2329UA1M020109999REMSYN018 22254 00232 20202EQDQ01+000032SCOTLC
0121999999999991994010100004+27500-069100FM-13+9999WZJF V0203201N00981004201CN0200001N9+01961+01401102561ADDAG12000GF108991999051004501061011MD1210251+9999SA1+2209UA1M040209999REMSYN022 22245 00220 20404 ICEEQDQ01+000082SCOTLC
0117999999999991994010100004+60600-035500FM-13+9999OXYL V0200201N01031220001CN0200001N9+00341-00051099281ADDAG12000GF102991999041004501999999MD1710191+9999SA1+0389UA1M030109999REMSYN018 22253 00038 20302EQDQ01+000042SCOTLC
0116999999999991994010100004+03800+008500FM-13+9999PJOX V0202301N00051220001CN0100001N9+02601+02531101201ADDAG12000GF104991031031012501091071MD1410001+9999SA1+2809UA1M050159999UG1999992309REMSYN024 22264 00280 20503 323//
0116999999999991994010100004+24300-112900FM-13+9999SGLU V0203401N005119999999N0200001N9+02101+99999101601ADDAG12000GF105991999999999999999999MD1710151+9999SA1+2129UA1M020059999UG1100109999REMSYN024 22235 00212 20201 41002
0118999999999991994010100004+36100+154600FM-13+9999ELFN V0201701N027219999999N0010001N9+01701+01501099301ADDAG12000AY151061AY261061MD1710151+9999MW1641SA1+1509UA1M990459999UG1990501809REMSYN030 22224 00150 21509 318// 41710
0116999999999991994010100004+44400+178800FM-13+9999SHIP V0203201N015419999999N0040001N9+00401+00201101601ADDAG12000GF108991081999012501999999MD1110101+9999SA1+0909UA1M030359999UG1999993209REMSYN024 22223 00090 20307 332//
0116999999999991994010100004+61100-004000FM-13+9999UBCB V0202101N00501220001CN0200001N9+00501+99999099601ADDAG12000GF104991041071008001011001MD1210151+9999SA1+0409UA1M040059999UG1999992009REMSYN024 22241 00040 20401 32000
0116999999999991994010100004-42400-046200FM-13+9999GJLK V0202701N00771007501CN0200001N9+01441+00891101021ADDAG12000GF107991071071008001041999MD1610141+9999SA1+1469UA1M020159999UG1999992209REMSYN024 22253 00146 20203 322//
0118999999999991994010100004+00400+104700FM-13+9999VJBQ V0203601N00671045001CN0200001N9+02671+02301101161ADDAG11000AY101061AY211061GF106991021011004501031091MD1210051+9999MW1011UA1M040109999REMSYN024 22233 00/// 20402 300//
0120999999999991994010100004+05900+107300FM-13+9999UWDQ V0200201N00901012001CN0200001N9+02641+99999101141ADDAG11000AY101061AY221061GF107991071071012501021999MD1410001+9999MW1021SA1+2609UA1M990259999REMSYN018 22253 00260 22005
0120999999999991994010100004+14800-017700FM-13+9999SHIP V0200401N00671220001CN0040001N9+02201+01581101501ADDAG11000AY111061AY211061GF103991031999999999999999MD1410001+9999MW1101SA1+2109UA1M020109999REMSYN018 22233 00210 20202
0120999999999991994010100004+24400-074700FM-13+99993EZK V0200501N00771220001CN0200001N9+02501+02101999999ADDAG12000GF103991031091002501041041SA1+3009UA1M040259999UG1040250409UG2999990409REMSYN030 22233 00300 20405 30404 40405
0120999999999991994010100004+40600+146700FM-13+9999UNYK V0203501N01001001201CN0200001N9+00851+99999099831ADDAG12001AY161061AY221061GF108991061071001501021999MD1710071+9999MW1601SA1+1009UA1M050159999REMSYN018 22212 00100 20503
0120999999999991994010100004+41700-128500FM-13+9999DGNB V0201901N02261002101CN0040001N9+01411+01231101001ADDAG12000AY151061AY221061GF108991081051002501999999MD1710181+9999MW1811SA1+1289UA1M100609999REMSYN018 22274 00128 21012
0120999999999991994010100004+49600-003200FM-13+9999V2TU V0202701N00511007501CN0200001N9+00801+00141100901ADDAG12000AY111061AY211061GF105991051021008001001001MD1210101+9999MW1031SA1+0809UA1M020109999REMSYN018 22252 00080 20202
0120999999999991994010100004+52800-142300FM-13+9999KGTX V0202001N01391004201CN0100001N9+00831+00601097501ADDAG12001AY181061AY221061GF105991051041004501001001MD1210301+9999MW1161SA1+0679UA1M080459999REMSYN018 22254 00067 20809
0120999999999991994010100004+54000+000800FM-13+9999GOYN V0203101N00821220001CN0200001N9+00491+00441100411ADDAG12000AY111061AY211061GF102991999999999999999999MD1210151+9999MW1011SA1+0719UA1M040159999REMSYN018 22200 00071 20403
0120999999999991994010100004+57600+009700FM-13+9999P3LE V0202501N00211007501CN0200001N9+00301-00121099441ADDAG12000AW1031AZ121061AZ221061GF108991081061008001999999MD1110271+9999SA1+0529UA1M040059999REMSYN018 22253 00052 20401
0120999999999991994010100004-02700+109500FM-13+9999VSBU V0203001N00411012001CN0200001N9+02501+02251101161ADDAG12005AY181061AY221061GF108991081091012501999999MD1210201+9999MW1151SA1+2909UA1M030109999REMSYN018 22283 00290 20302
0120999999999991994010100004-38800+147900FM-13+9999SHIP V0202301N00981002101CN0200001N9+01551+00981101211ADDAG11000AY111061AY211061GF107991071041002501061001MD1210051+9999MW1021SA1+1409UA1M020159999REMSYN018 22213 00140 20203
0122999999999991994010100004-76900+167300FM-13+9999NRUO V0202901N00411220001CN0100001N9+00001-00301099141ADDAG12000GF101991001001999999001011MD1410001+9999SA1-0189UA1M000009999WG104999999999REMSYN028 22252 01018 20000 ICE 46040
0121999999999991994010100004+17200-104000FM-13+9999WRZU V0209991C00001220001CN0200001N9+02721+02301101301ADDAG12000GF104991021011008001041041MD1310051+9999SA1+2789UG1100253209UG2040200509REMSYN030 22273 00278 33205 41005 50404
0121999999999991994010100004+34100+168900FM-13+9999PCUI V0201601N00571012001CN0200001N9+01471+00451102601ADDAG12000GF106991061011012501001999MD1810101+9999SA1+2069UG1090153009UG2120150109REMSYN030 22223 00206 33001 40903 51203
0121999999999991994010100004+36700+131200FM-13+9999UJXC V0200301N00201007501CN0200001N9+00801+99999102431ADDAG12000GF106991061041008001001001MD1310101+9999SA1+1409UG1120203609UG2080101009REMSYN030 22243 00140 33610 41204 50802
0123999999999991994010100004+48400-089200FM-13+9999CG29 V0202701N00101004201CN0200001N9-00391-00401101491ADDAG12000AY121061AY221061GF108991081061004501001001MD1110211+9999MW1701UG1991109999WG102999999999REMSYN016 22200 ICE 42022
0122999999999991994010100004+02700+151800FM-13+99998KSK V0200801N00871220001CN0200001N9+02901+02641100671ADDAG12000GF102991021011008001031011MD1710041+9999SA1+2809UA1M020109999UG1050150709REMSYN030 22243 00280 20202 307// 40503
0122999999999991994010100004+05600+081500FM-13+9999PGDR V0200201N00871002101CN0200001N9+02621+02231101091ADDAG12000GF107991071051002501999999MD1310041+9999SA1+2809UA1M020109999UG1080200309REMSYN030 22224 00280 20202 303// 40804
0122999999999991994010100004+05600-099800FM-13+99994QUL V0201101N00511045001CN0200001N9+02651+02281100951ADDAG12000GF105991031021008001061061MD1010201+9999SA1+2709UA1M040109999UG1040100409REMSYN030 22234 00270 20402 304// 40402
0122999999999991994010100004+05700+095800FM-13+9999DEHY V0201101N00671045001CN0100001N9+02581+02381101061ADDAG12000GF105991031021004501031041MD1510661+9999SA1+2809UA1M010059999UG1040100609REMSYN030 22225 00280 20101 306// 40402
0122999999999991994010100004+05800+084900FM-13+9999C6IE V0200201N00571220001CN0200001N9+02691+02091101061ADDAG12000GF103991031011004501001001MD1510011+9999SA1+2839UA1M030109999UG1100151909REMSYN030 22224 00283 20302 319// 41003
0122999999999991994010100004+06000+128400FM-13+9999JMLQ V0200101N00931004201CN0200001N9+00261+99999101081ADDAG12000GF106991061041004501999999MD1210061+9999SA1+2879UA1M050109999UG1060150509REMSYN030 22243 00287 20502 305// 40603
0122999999999991994010100004+06100+092300FM-13+9999ZELP V0200201N00461220001CN0200001N9+02641+02161101121ADDAG12000GF101991011011004501001001MD1210031+9999SA1+2769UA1M040059999UG1060050309REMSYN030 22263 00276 20401 303// 40601
0122999999999991994010100004+07700+044900FM-13+9999V7AA V0200501N00311009001CN0200001N9+02671+02431101231ADDAG11000GF107991051081004501061999MD1310011+9999SA1+2909UA1M010059999UG1040100509REMSYN030 22253 00290 20101 305// 40402
0122999999999991994010100004+09500+141100FM-13+9999JLKR V0200701N00771045001CN0200001N9+02801+02391100911ADDAG12000GF105991011011004501011051MD1410001+9999SA1+2709UA1M040159999UG1050200609REMSYN030 22233 00270 20403 306// 40504
0122999999999991994010100004+11000-078200FM-13+9999GDRJ V0200601N00821045001CN0200001N9+02731+02211101201ADDAG12000GF106991041021002501071021MD1310081+9999SA1+2809UA1M060109999UG1060500509REMSYN030 22212 00280 20602 305// 40610
0122999999999991994010100004+11600+053700FM-13+9999GOYG V0200501N00821220001CN0200001N9+02491+01811101421ADDAG12000GF102991021011004501001001MD1610051+9999SA1+2589UA1M030159999UG1050200409REMSYN030 22265 00258 20303 304// 40504
0122999999999991994010100004+11700+113000FM-13+9999ELQD V0200301N01081045001CN0200001N9+02581+02281101291ADDAG12000GF106991041031002501051011MD1110081+9999SA1+2639UA1M040159999UG1060250209REMSYN030 22253 00263 20403 302// 40605
0122999999999991994010100004+11800+054400FM-13+9999DHER V0200301N01081002101CN0200001N9+02421+01781101451ADDAG12000GF105991051031002501001001MD1010041+9999SA1+2589UA1M070259999UG1100250409REMSYN030 22265 00258 20705 304// 41005
0122999999999991994010100004+14000-081700FM-13+9999C6YE V0200801N01391220001CN0100001N9+02601+02201101301ADDAG11000GF104991031011008001041999MD1510101+9999SA1+2809UA1M040109999UG1050150809REMSYN030 22218 00280 20402 308// 40503
0122999999999991994010100004+14700+142600FM-13+9999PCDE V0200801N00621045001CN0200001N9+02821+02361101321ADDAG11000GF106991041021004501071081MD1110141+9999SA1+2919UA1M030059999UG1100250809REMSYN030 22243 00291 20301 308// 41005
0122999999999991994010100004+15900-072500FM-13+9999V2JP V0200901N01031220001CN0100001N9+02661+02031101761ADDAG12000GF104991041031012501041031MD1310181+9999SA1+2809UA1M050109999UG1070150609REMSYN030 22273 00280 20502 306// 40703
0122999999999991994010100004+16000+119500FM-13+99999MUO V0200101N00261220001CN0200001N9+02781+02381101361ADDAG11000GF103991021001002501001011MD1210301+9999SA1+2809UA1M010059999UG1060203609REMSYN030 22214 00280 20101 336// 40604
0122999999999991994010100004+16800+132700FM-13+99998JNH V0200401N00771220001CN0200001N9+02651+02381101451ADDAG12000GF104991041021004501031001MD1210441+9999SA1+2709UA1M030109999UG1070300609REMSYN030 22283 00270 20302 306// 40706
0120999999999991994010100004+17500-025400FM-13+9999DGLM V0200601N006719999999N0040001N9+02201+01731101811ADDAG11000AY121061AY221061GF108991999999004501999999MD1410001+9999MW1051SA1+2289REMSYN012 22254 00228EQDQ01+000092SCOTLC
0120999999999991994010100004+17500-025500FM-13+9999DGLM V0200601N006719999999N9999999N9+99999+99999101811ADDAG11000AY121061AY221061GF108991999999999999999999MD1410001+9999MW1051SA1+2289REMSYN012 22254 00228EQDQ01+000092SCOTLC
0122999999999991994010100004+17700+111400FM-13+9999MKYJ V0200201N00361220001CN0200001N9+02161+01901101851ADDAG12000GF104991041011004501001001MD1410001+9999SA1+2379UA1M020109999UG1040150209REMSYN030 22255 00237 20202 302// 40403
0122999999999991994010100004+18100+113500FM-13+9999GOYC V0200401N00771001201CN0040001N9+02311+02091101671ADDAG12000GF106991051021001501031011MD1310221+9999SA1+2359UA1M020109999UG1060250509REMSYN030 22285 00235 20202 305// 40605
0122999999999991994010100004+18900-062800FM-13+9999GBBA V0200201N00771220001CN0200001N9+02561+02411101881ADDAG11000GF102991011011008001001021MD1210121+9999SA1+2629UA1M020059999UG1060150809REMSYN030 22225 00262 20201 308// 40603
0122999999999991994010100004+19400+113600FM-13+9999A6JQ V0200501N01391015001CN0100001N9+02201+02001101951ADDAG11000GF108991081001017501071999MD1610151+9999SA1+2409UA1M050159999UG1070250509REMSYN030 22244 00240 20503 305// 40705
0122999999999991994010100004+19900-064400FM-13+9999ZEKE V0200901N00411220001CN0500001N9+02621+02181102111ADDAG12000GF101991011011008001001001MD1410001+9999SA1+2629UA1M020059999UG1040101009REMSYN030 22255 00262 20201 310// 40402
0126999999999991994010100004+20100+126200FM-13+9999WFLH V0200401N01751002101CN0100001N9+02281+01901101611ADDAG12000GF108991081041002501999999MD1210151+9999SA1+2569UA1M080359999UG1080402009REMSYN034 22274 00256 20807 320// 40808 ICE
0122999999999991994010100004+20400+178500FM-13+9999C6LS V0200501N01231004201CN0200001N9+02381+01781999999ADDAG12000GF108991081071004501999999MD1010151+9999SA1+2609UA1M040159999UG1120400409REMSYN030 22265 00260 20403 304// 41208
0122999999999991994010100004+21100-075500FM-13+99994PKK V0200901N00151036001CN0200001N9+02571+02241101901ADDAG11000GF107991041071008001061061MD1410001+9999SA1+2659UA1M040059999UG1050150609REMSYN030 22234 00265 20401 306// 40503
0122999999999991994010100004+22500-130900FM-13+9999LAPP V0200401N01131004201CN0200001N9+02151+01661101781ADDAG11000GF108991051011004501031091MD1010101+9999SA1+2259UA1M030059999UG1040100409REMSYN030 22213 00225 20301 304// 40402
0122999999999991994010100004+23400-074400FM-13+9999NHNC V0200401N00411004201CN0100001N9+02501+02401102371ADDAG12000GF106991061021004501061999MD1410001+9999SA1+2619UA1M000009999UG1020050509REMSYN030 22253 00261 20000 305// 40201
0126999999999991994010100004+23500-045000FM-13+9999D5BC V0200701N01031220001CN0200001N9+02301+01901102011ADDAG12000GF104991041021004501001001MD1410001+9999SA1+2469UA1M050109999UG1060151009REMSYN034 22230 00246 20502 310// 40603 ICE
0122999999999991994010100004+23600-074400FM-13+9999MHNC V0200401N004119999999N0100001N9+02501+99999102371ADDAG12000GF106991999999004501999999MD1410001+9999SA1+2619UA1M000009999UG1020050509REMSYN030 22253 00261 20000 305// 40201
0122999999999991994010100004+24200-116100FM-13+9999ELJT V0200101N00821220001CN0200001N9+02001+01901101701ADDAG12000GF103991021001999999031041MD1810021+9999SA1+2139UA1M040059999UG1070100409REMSYN030 22234 00213 20401 304// 40702
0122999999999991994010100004+25800-150800FM-13+9999KNLO V0202201N01131220001CN0200001N9+02361+02001999999ADDAG12000GF101991011001000751091001MD1710401+9999SA1+1899UA1M050759999UG1990103409REMSYN030 22255 00189 20515 334// 41502
0122999999999991994010100004+26300+126400FM-13+9999SHIP V0200401N00871004201CN0200001N9+01801+01021102221ADDAG11000GF105991051011004501001001MD1210101+9999SA1+2409UA1M040109999UG1050100109REMSYN030 22214 00240 20402 301// 40502
0122999999999991994010100004+27900+163700FM-13+99997KFY V0201201N01231220001CN0200001N9+02101+01641102251ADDAG12000GF103991031011004501001001MD1710151+9999SA1+2209UA1M050259999UG1080303309REMSYN030 22263 00220 20505 333// 40806
0122999999999991994010100004+28500+128600FM-13+9999S6DB V0200201N00871007501CN0200001N9+01551+00801102151ADDAG12000GF105991051051008001071061MD1410001+9999SA1+2209UA1M050259999UG1990301709REMSYN030 22224 00220 20505 317// 42906
0122999999999991994010100004+29600+149700FM-13+99993EGS V0202901N01231004201CN0020001N9+01901+01671100501ADDAG12000GF106991051071004501011999MD1310101+9999SA1+2109UA1M050359999UG1060352809REMSYN030 22263 00210 20507 328// 40607
0122999999999991994010100004+30000+157700FM-13+9999PFAS V0201601N01541006001CN0100001N9+02131+01661101111ADDAG12000GF107991051081002501011999MD1710461+9999SA1+2319UA1M070359999UG1070301309REMSYN030 22263 00231 20707 313// 40706
0122999999999991994010100004+30500+125000FM-13+9999PJPP V0200201N00511012001CN0100001N9+00951+00191102521ADDAG12000GF107991071051012501999999MD1110031+9999SA1+1449UA1M030059999UG1090253609REMSYN030 22253 00144 20301 336// 40905
0122999999999991994010100004+30600+133700FM-13+9999SHIP V0200301N00821004201CN0200001N9+01501+00701102041ADDAG11000GF107991071041004501001001MD1210301+9999SA1+1909UA1M070159999UG1080153309REMSYN030 22255 00190 20703 33300 40803
0126999999999991994010100004+32800+157000FM-13+9999PGFE V0201701N02261002101CN0100001N9+02021+01561100661ADDAG12000GF108991081071002501999999MD1810231+9999SA1+2109UA1M090409999UG1990601609REMSYN034 22223 00210 20908 316// 41512 ICE
0122999999999991994010100004+33700-176000FM-13+9999JBCN V0203201N015419999999N0200001N9+01401+00641102201ADDAG12000GF105991041021004501999999MD1610051+9999SA1+1809UA1M040259999UG1120503309REMSYN030 22225 00180 20405 333// 41210
0122999999999991994010100004+34200+138200FM-13+9999DZBD V0203301N01701220001CN0200001N9+00901+00501101501ADDAG12000GF102991021091022501001001MD1210301+9999SA1+2209UA1M070409999UG1090503309REMSYN030 22263 00220 20708 333// 40910
0122999999999991994010100004+34200-039800FM-13+9999C6LH V0201701N00671220001CN0200001N9+01991+01811102541ADDAG11000GF104991031051002501061001MD1210101+9999SA1+2169UA1M050109999UG1090251509REMSYN030 22215 00216 20502 315// 40905
0122999999999991994010100004+34400-013500FM-13+99993ESP V0202701N00511000601CN0200001N9+01651+01461102981ADDAG11000GF107991071051000751071001MD1210031+9999SA1+1609UA1M040059999UG1050153109REMSYN030 22254 00160 20401 331// 40503
0122999999999991994010100004+34900-017200FM-13+99994QVU V0200701N00261006001CN0200001N9+01701+01351103091ADDAG12000GF105991051081002501061011MD1110051+9999SA1+1789UA1M000009999UG1080153109REMSYN030 22224 00178 20000 331// 40803
0122999999999991994010100004+35300-124000FM-13+9999JMQY V0200201N00361220001CN0200001N9+01801+01501102121ADDAG12000GF104991021011004501001041MD1410001+9999SA1+1509UA1M030059999UG1080202609REMSYN030 22225 00150 20301 326// 40804
0122999999999991994010100004+35300-177400FM-13+9999SHIP V0203101N013419999999N0100001N9+01001+00401102121ADDAG12000GF106991999999004501999999MD1610181+9999SA1+1709UA1M040209999UG1040253109REMSYN030 22224 00170 20404 331// 40405
0122999999999991994010100004+35500+156600FM-13+99993EZJ V0201801N02311001201CN0020001N9+01951+01651100001ADDAG12000GF108991081071001501999999MD1610051+9999SA1+1809UA1M060259999UG1120301809REMSYN030 22225 00180 20605 318// 41206
0122999999999991994010100004+36200-011200FM-13+9999GDLS V0209991V00261002101CN0200001N9+01451+01301103221ADDAG12000GF108991081051002501999999MD1210021+9999SA1+1609UA1M000009999UG1120453109REMSYN030 22292 00160 20000 331// 41209
0122999999999991994010100004+36200-029100FM-13+9999ELHY V0202301N00621220001CN0200001N9+01861+01661102781ADDAG12000GF102991011001017501061021MD1110031+9999SA1+1889UA1M010059999UG1070202909REMSYN030 22214 00188 20101 329// 40704
0122999999999991994010100004+36500-061700FM-13+9999KFDV V0202901N010319999999N0200001N9+01281+01001102501ADDAG12000GF108991061999004501999999MD1210251+9999SA1+2119UA1M060309999UG1070702909REMSYN030 22264 00211 20606 329// 40714
0126999999999991994010100004+36500-128200FM-13+9999WRYW V0201901N01541002101CN0200001N9+01601+01401101601ADDAG12000GF107991071061002501021999MD1410001+9999SA1+1489UA1M050159999UG1080201909REMSYN034 22225 00148 20503 319// 40804 ICE
0122999999999991994010100004+36700-012300FM-13+9999PEOE V0209991V001019999999N0200001N9+01481+01191102711ADDAG12000GF108991081999999999999999MD1210211+9999SA1+1599UA1M030059999UG1050153409REMSYN030 22284 00159 20301 334// 40503
0122999999999991994010100004+38600-142700FM-13+99993EIV V0202801N01291002101CN0200001N9+01101+00901100451ADDAG12000GF105991051031002501011011MD1210101+9999SA1+1409UA1M080359999UG1080352509REMSYN030 22224 00140 20807 325// 40807
0122999999999991994010100004+38900+166200FM-13+9999JADY V0202201N01591007501CN0200001N9+01451+01011102051ADDAG12000GF106991061041008001091031MD1210151+9999SA1+1619UA1M060259999UG1100401809REMSYN030 22224 00161 20605 318// 41008
0122999999999991994010100004+39300-029200FM-13+9999Y5ET V0202201N011319999999N0100001N9+01661+01551102301ADDAG12000GF106991999999999999999999MD1710251+9999SA1+1809UA1M990159999UG1090303109REMSYN030 22264 00180 2//03 331// 40906
0122999999999991994010100004+39600+163200FM-13+99993EDD V0201701N01541004201CN0200001N9+01501+01301101401ADDAG12000GF105991051031004501011051MD1610251+9999SA1+1409UA1M070309999UG1080352009REMSYN030 22254 00140 20706 320// 40807
0122999999999991994010100004+39900+138100FM-13+9999JPAQ V0203201N01591012001CN0100001N9+00001-00021101951ADDAG12000GF107991061081008001999999MD1210101+9999SA1+0909UA1M030159999UG1070303109REMSYN030 22255 00090 20303 331// 40706
0122999999999991994010100004+40900+144300FM-13+99993ETV V0203301N00931036001CN0200001N9+00001-00101100831ADDAG12000GF105991041081017501041051MD1210131+9999SA1+0429UA1M050209999UG1060252709REMSYN030 22254 00042 20504 327// 40605
0126999999999991994010100004+42500-126300FM-13+9999WRYD V0201701N01541002101CN0100001N9+01331+01101101301ADDAG12000GF108991081051002501999999MD1710301+9999SA1+1079UA1M030309999UG1050402309REMSYN034 22275 00107 20306 323// 40508 ICE
0122999999999991994010100004+42800-135300FM-13+9999KNIJ V0202101N00311004201CN0200001N9+01561+01101100181ADDAG12000GF105991051051004501071001MD1610201+9999SA1+1339UA1M030109999UG1040251809REMSYN030 22214 00133 20302 318// 40405
0122999999999991994010100004+43200+175300FM-13+99998KVT V0203101N00821220001CN0100001N9+01101+00381102251ADDAG12000GF104991041051008001999999MD1210111+9999SA1+0509UA1M050159999UG1060253209REMSYN030 22223 00050 20503 332// 40605
0126999999999991994010100004+43700+167200FM-13+9999ZCKU V0201901N01081000301CN0040001N9+00801+00401101551ADDAG12000GF108991081071000251999999MD1610501+9999SA1+0509UA1M060259999UG1050251909REMSYN034 22263 00050 20605 319// 40505 ICE
0122999999999991994010100004+43800-012800FM-13+9999PJOY V0202801N01031004201CN0200001N9+01201+00441102701ADDAG12000GF107991071071004501061999MD1010201+9999SA1+1319UA1M070309999UG1080503009REMSYN030 22254 00131 20706 330// 40810
0122999999999991994010100004+44800+148100FM-13+99993EEZ V0203101N01441012001CN0200001N9-00201-00201100131ADDAG12000GF107991071031012501031031MD1210231+9999SA1+0109UA1M060259999UG1050203109REMSYN030 22254 00010 20605 331// 40504
0122999999999991994010100004+46500-153200FM-13+99993EIQ V0202301N01541007501CN0100001N9+00901+00491097401ADDAG12000GF106991061051008001051999MD1410001+9999SA1+0909UA1M080409999UG1100452309REMSYN030 22223 00090 20808 323// 41009
0122999999999991994010100004+48300+154700FM-13+99999VOQ V0202001N009319999999N0200001N9-00551+99999098251ADDAG12000GF108991081999008001061051MD1310101+9999SA1+0309UA1M050109999UG1090151709REMSYN030 22254 00030 20502 317// 40903
0122999999999991994010100004+48600+154400FM-13+9999A8LL V0202401N01081007501CN0100001N9+00401-00101098651ADDAG12000GF107991071071008001081999MD1710031+9999SA1+0409UA1M040259999UG1070402409REMSYN030 22252 00040 20405 324// 40708
0122999999999991994010100004+53200-150400FM-13+9999ELJJ V0202301N01341001201CN0100001N9+00651+00551096491ADDAG12000GF108991081051001501001001MD1610081+9999SA1+0659UA1M040359999UG1060452309REMSYN030 22264 00065 20407 323// 40609
0122999999999991994010100004+54400-165900FM-13+9999ELJS V0200301N01491004201CN0100001N9+00401+99999098451ADDAG12000GF108991081071004501999999MD1310251+9999SA1+0409UA1M100409999UG1120500409REMSYN030 22264 00040 21008 304// 41210
0122999999999991994010100004+57700-017100FM-13+9999GCGJ V0202401N01231002101CN0200001N9+00581+00261099891ADDAG12000GF108991081071002501999999MD1210111+9999SA1+0849UA1M030209999UG1080602409REMSYN030 22263 00084 20304 324// 40812
0122999999999991994010100004+58700-003200FM-13+9999GZHD V0202401N00261220001CN0200001N9+00361+00211099971ADDAG12000GF101991011011004501001001MD1210131+9999SA1+0759UA1M020059999UG1050152909REMSYN030 22223 00075 20201 329// 40503
0126999999999991994010100004-02600-158600FM-13+9999OWUO V0200801N00771002101CN0200001N9+03101+02401100901ADDAG12000GF106991051041002501011051MD1710201+9999SA1+2769UA1M060159999UG1080150509REMSYN034 22214 00276 20603 305// 40803 ICE
0122999999999991994010100004-06200-169800FM-13+99993EJT V0200501N00821004201CN0200001N9+03401+02901100721ADDAG12000GF105991051041004501061031MD1610101+9999SA1+2559UA1M040159999UG1060150909REMSYN030 22254 00255 20403 309// 40603
0122999999999991994010100004-08000+124900FM-13+9999PGDZ V0202301N00311045001CN0200001N9+02701+02361100881ADDAG12000GF106991031021001501041011MD1210061+9999SA1+2689UA1M010059999UG1050103209REMSYN030 22224 00268 20101 332// 40502
0122999999999991994010100004-14700+120100FM-13+9999ZCAO V0202401N00931012001CN0200001N9+02841+02481100811ADDAG12000GF108991081081008001999999MD1410001+9999SA1+2979UA1M050209999UG1090202509REMSYN030 22214 00297 20504 325// 40904
0122999999999991994010100004-20100+157400FM-13+9999ELBX V0201501N00771007501CN0100001N9+02701+02401100601ADDAG12000GF107991061041008001041041MD1410001+9999SA1+2709UA1M050209999UG1090303509REMSYN030 22254 00270 20504 335// 40906
0122999999999991994010100004-20500+081400FM-13+9999PFES V0201101N01231220001CN0200001N9+02221+01941101811ADDAG12000GF101991011011004501001001MD1610041+9999SA1+2449UA1M050209999UG1080250909REMSYN030 22213 00244 20504 309// 40805
0122999999999991994010100004-24100-025700FM-13+99993EFY V0200401N00511220001CN0200001N9+02401+02001101821ADDAG11000GF101991011011004501001001MD1210111+9999SA1+2659UA1M030059999UG1050100609REMSYN030 22263 00265 20301 306// 40502
0122999999999991994010100004-26100+034400FM-13+999940VV V0202001N00821012001CN0200001N9+02531+02381101231ADDAG11000GF105991051081008001031041MD1810111+9999SA1+2589UA1M040109999UG1080202009REMSYN030 22254 00258 20402 320// 40804
0122999999999991994010100004-26700+106700FM-13+9999SHIP V0201401N01231006001CN0200001N9+02101+01941101481ADDAG11000GF107991071081002501081001MD1010051+9999SA1+2009UA1M060259999UG1060251409REMSYN030 22234 00200 20605 314// 40605
0122999999999991994010100004-30000+168000FM-13+9999PGEI V0202201N00211220001CN0200001N9+02341+01861101211ADDAG12000GF103991031021002501001001MD1810041+9999SA1+2259UA1M010059999UG1060202409REMSYN030 22274 00225 20101 324// 40604
0122999999999991994010100004-30500+030800FM-13+9999ZCLG V0200101N00771220001CN0200001N9+02401+02091101221ADDAG11000GF101991011011004501001001MD1810281+9999SA1+2559UA1M030109999UG1060150609REMSYN030 22253 00255 20302 306// 40603
0122999999999991994010100004-31100+014000FM-13+9999ULEL V0201701N015019999999N0200001N9+01911+99999999999ADDAG12000GF108991999999999999999999MD1210251+9999SA1+1909UA1M050209999UG1100151709REMSYN030 22231 00190 20504 31700 41003
0122999999999991994010100004-31800+113000FM-13+9999MSET V0201801N01181036001CN0200001N9+01901+01301101551ADDAG12000GF105991031051004501071001MD1110101+9999SA1+2039UA1M040209999UG1080251809REMSYN030 22233 00203 20404 318// 40805
0126999999999991994010100004-33100-127400FM-13+99993EHT V0203201N01081012001CN0040001N9+02301+01991101151ADDAG12000GF106991061061012501051999MD1410001+9999SA1+2259UA1M040109999UG1040103209REMSYN034 22264 00225 20402 332// 40402 ICE
0122999999999991994010100004-33600-021700FM-13+9999C6JQ V0202801N01031004201CN0100001N9+02001+01911101681ADDAG12000GF108991081061004501999999MD1310301+9999SA1+2009UA1M040259999UG1050302809REMSYN030 22223 00200 20405 328// 40506
0126999999999991994010100004-35300+164900FM-13+9999C6JZ V0202801N00511007501CN0200001N9+02201+01621101181ADDAG12000GF107991071051008001001001MD1410001+9999SA1+1899UA1M030059999UG1050152309REMSYN034 22234 00189 20301 323// 40503 ICE
0122999999999991994010100004-36400-045600FM-13+9999FZVN V0202801N00871220001CN0200001N9+01991+01701101651ADDAG12000GF103991999999999999999999MD1410001+9999SA1+2129UA1M020109999UG1070152709REMSYN030 22200 00212 20202 327// 40703
0122999999999991994010100004-54100+144600FM-13+9999FHZI V0201601N01541004201CN0040001N9+00201+99999099721ADDAG12000GF108991081051004501999999MD1210121+9999SA1+0339UA1M030159999UG1060301609REMSYN030 22243 00033 20303 316// 40606
0122999999999991994010100004-62500+142100FM-13+9999JBHT V0202701N00821007501CN0200001N9+00401+00121100301ADDAG12000GF105991051041008001001021MD1110071+9999SA1+0019UA1M040059999UG1050152709REMSYN030 22281 00001 20401 327// 40503
0123999999999991994010100004+18100+040000FM-13+9999MOLA V0201401N01181220001CN0200001N9+02651+02101101201ADDAG12000GF103991001001999999001081MD1710101+9999SA1+3009UA1M040209999REMSYN024 22233 00300 20404 300//EQDQ01+000982SCOLCB
0124999999999991994010100004-30800+015900FM-13+9999V7AG V0201701N00771220001CN0200001N9+01751+01581101671ADDAG12000GA1001+999999999GF100991001001999999001001MD1110021+9999UA1M020109999UG1080301909REMSYN024 22243 20202 319// 40806
0125999999999991994010100004+54700+016100FM-13+9999GJTC V0202301N008219999999N0200001N9+00611+00371099691ADDAG12001AY181061AY221061GF108991999999999999999999MD1410001+9999MW1621SA1+0539UG1020102309REMSYN024 22263 00053 323// 40202
0125999999999991994010100004-35100+022200FM-13+9999VJAV V0209991V00151220001CN0500001N9+02021+01691101141ADDAG11000AY101061AY201061GF101991011011008001001001MD1710071+9999MW1011SA1+1899UG1070202309REMSYN024 22264 00189 323// 40704
0126999999999991994010100004+03000-011800FM-13+9999MPNJ V0209991V00261006001CN0100001N9+02701+02481101271ADDAG12014AY191061AY221061GF108991061081000751011001MD1110101+9999MW1171SA1+2809UA1M020009999REMSYN024 22233 00280 20200 399//
0128999999999991994010100004+27600+129500FM-13+9999JQNV V0203601N00411220001CN0040001N9+01601+00991102151ADDAG12000GF103991999031008001999999MD1210201+9999SA1+2209UG1990252009REMSYN030 22253 00220 20/// 320// 40005EQDQ01+000052SCOTLC
0126999999999991994010100004-44900+093500FM-13+9999C6LY V0202701N01031001201CN0040001N9+00981+00981101211ADDAG12000AY151061AY221061GF108991081061001501999999MD1210081+9999MW1511SA1+0859UA1M070159999REMSYN024 22224 00085 20703 399//
0132999999999991994010100004+32900-136800FM-13+9999WSRL V0202301N01231006001CN0200001N9+01891+01601101601ADDAG12000GF108991081081001501999999MD1510001+9999SA1+1619UA1M030109999UG1080302509REMSYN040 22254 00161 20302 32500 40806 50000 ICE
0128999999999991994010100004+43700+147300FM-13+99993ESM V0202901N01801004201CN0200001N9+00001-00101100251ADDAG12000GF107991071051004501071021MD1210301+9999SA1+0209UA1M090309999UG1999992909UG2999990609REMSYN024 22254 00020 20906 32906
0128999999999991994010100004+51400-008000FM-13+9999EIQK V0202801N00931220001CN0200001N9+00701+00201101121ADDAG12000GF102991021001999999041001MD1210251+9999SA1+1019UA1M030109999UG1070252709REMSYN036 22200 00101 20302 32700 40705 50000
0130999999999991994010100004+08400+119900FM-13+9999KCDJ V0200401N00931220001CN0200001N9+02701+02301101021ADDAG11000AY121061AY211061GF104991031021004501071011MD1210181+9999MW1031UA1M020109999UG1030150409REMSYN024 22224 20202 304// 40303
0130999999999991994010100004+15300+129800FM-13+9999JFZI V0200701N00821002101CN0200001N9+02601+02321101401ADDAG12002AY181061AY211061GF107991061031002501031001MD1210151+9999MW1151UA1M040109999UG1080200609REMSYN024 22244 20402 306// 40804
0130999999999991994010100004+22000-164000FM-13+9999WUQL V0203401N00771036001CN0100001N9+02101+02001101601ADDAG12000AY101061AY231061GF108991041071001501021001MD1610251+9999MW1601UA1M040159999UG1060203009REMSYN024 22264 20403 330// 40604
0130999999999991994010100004+35900+152100FM-13+9999OWDX V0202501N01591007501CN0040001N9+01411+01201099321ADDAG12001AY161061AY221061GF108991081061008001999999MD1510081+9999MW1251UA1M040209999UG1080401809REMSYN024 22215 20404 318// 40808
0130999999999991994010100004+48000-128900FM-13+9999BKHJ V0202401N00871036001CN0040001N9+01751+01501099801ADDAG12000AY141061AY251061GF105991041021001501081021MD1210301+9999MW1011UA1M070109999UG1090151409REMSYN024 22224 20702 314// 40903
0130999999999991994010100004+61300+000700FM-13+9999ZHFD V0203201N00461220001CN0200001N9+00631+00421099761ADDAG11000AY111061AY211061GF102991021071008001001001MD1210081+9999MW1011UA1M030059999UG1060302709REMSYN024 22200 20301 327// 40606
0130999999999991994010100004-34300+172600FM-13+9999ZMIO V0203301N00671220001CN0200001N9+01841+01681101101ADDAG11000AY111061AY281061GF103991031051002501001001MD1210071+9999MW1031UA1M010059999UG1070052409REMSYN024 22223 20101 324// 40701
0130999999999991994010100004-37500+139700FM-13+9999VKAD V0202701N00261220001CN0200001N9+01651+00761101601ADDAG11000AY111061AY201061GF103991031001017501091001MD1410001+9999MW1021UA1M020059999UG1080152309REMSYN024 22273 20201 323// 40803
0130999999999991994010100004-40200+143300FM-13+9999VJIC V0202501N01801004201CN0200001N9+01401+00801101011ADDAG11000AY111061AY211061GF106991051031004501071999MD1210101+9999MW1031UA1M060259999UG1050103109REMSYN024 22212 20605 331// 40502
0133999999999991994010100004+45400+139800FM-13+9999USZQ V0201001N05202220001CN0200001N9+99999+99999101351ADDAG12000GF101991999081012501051091MD1410001+9999SA1+0109UA1M060159999REMSYN018 22212 00010 20603EQDQ01+005203WOSPD Q02+000032SCOTLC
0134999999999991994010100004+26700+133500FM-13+9999JFTY V0203601N01081007501CN0100001N9+01851+01701102001ADDAG12000GF105991051031008001001001MD1210291+9999SA1+2259UA1M040259999UG1999993209UG2090403509REMSYN030 22283 00225 20405 33235 50908
0134999999999991994010100004+27600+123300FM-13+9999C6JQ V0200101N00621007501CN0200001N9+01601+00881102581ADDAG11000GF106991051041008001061031MD1410001+9999SA1+1809UA1M100159999UG1100150209UG2999991109REMSYN030 22213 00180 21003 30211 41003
0136999999999991994010100004+04500-012900FM-13+99999KWA V0201101N00311220001CN0100001N9+02751+02311101101ADDAG11000AY121061AY211061GA1001+999999999GF100991001001999999001001MD1810101+9999MW1021SA1+3109UA1M010059999REMSYN018 22233 00310 20101
0136999999999991994010100004+09600-016500FM-13+9999FNXS V0200101N00211220001CN0040001N9+02831+02581101351ADDAG11000AY101061AY201061GA1001+999999999GF100991001001999999001001MD1210091+9999MW1021SA1+2789UA1M020109999REMSYN018 22273 00278 20202
0136999999999991994010100004+19900+135700FM-13+9999GWED V0203301N00821220001CN0500001N9+02551+02251101561ADDAG11000AY101061AY201061GF104991041021002501001091MD1210201+9999MW1021UA1M040159999UG1060209999REMSYN030 22234 00/// 20403 399// 40604
0136999999999991994010100004+23100-086300FM-13+9999WHTS V0200501N01131036001CN0200001N9+02391+02101101951ADDAG11000AY121061GF108991031041008001031091MD1110101+9999MW1031SA1+2789UA1M020209999UG1040250409REMSYN030 22284 00278 20204 304// 40405
0136999999999991994010100004+28600-064600FM-13+9999WMRU V0203501N00411220001CN0500001N9+02111+01701101451ADDAG11000AY111061GF104991031031008001081011MD1210101+9999MW1011SA1+2399UA1M020059999UG1120203609REMSYN030 22264 00239 20201 336// 41204
0140999999999991994010100004+38100-140700FM-13+99993EFY V0202301N01441001201CN0100001N9+01701+01401100451ADDAG11000AY121061GF108991081071001501999999MD1410001+9999MW1021SA1+1509UA1M060359999UG1080352309REMSYN034 22224 00150 20607 323// 40807 ICE
0136999999999991994010100004+38600-009700FM-13+9999PJGK V0203101N01801000601CN0200001N9+01521+01421103101ADDAG12000AY121061AY251061GF108991081071000751999999MD1210101+9999MW1501UA1M030109999UG1080303209REMSYN030 22272 00/// 20302 332// 40806
0136999999999991994010100004+55000+005800FM-13+9999SHIP V0202801N012019999999N0200001N9+00301+99999099661ADDAG12001AY161061AY221061GA1091+999999999GF109991091999999999999999MD1410001+9999MW1021SA1+0709UA1M050209999REMSYN018 22253 00070 20504
0136999999999991994010100004+55100-135400FM-13+9999NRUC V0201101N023119999999N0100001N9+00781+00701097941ADDAG12000AY121061GF108991081999008001021999MD1710511+9999MW1071SA1+0839UA1M040209999UG1050451209REMSYN030 22222 00083 20404 312// 40509
0136999999999991994010100004+73200+033100FM-13+9999LNXH V0200201N00981000601CN0010001N9-00261-00431099151ADDAG12000AY171061AY221061GA1091+999999999GF109991091999999999999999MD1710201+9999MW1711SA1+0339UA1M030159999REMSYN018 22253 00033 20303
0136999999999991994010100004-23400+152300FM-13+9999VJBF V0200901N00511220001CN0500001N9+02701+02411101031ADDAG11000AY111061AY211061GF102991021031004501001001MD1010021+9999MW1011UA1M010059999UG1040100609REMSYN030 22273 00/// 20101 30600 40402
0135999999999991994010100004-30200+031700FM-13+9999VSBZ V0200401N01181220001CN0200001N9+02401+02301101201ADDAG12000GF101991011011999999001001MD1410001+9999SA1+2449UA1M050209999UG1999991809REMSYN024 22253 00244 20504 318//EQDQ01+000992SCOLCB
0138999999999991994010100004+17400-071900FM-13+9999PJCH V0200901N01541220001CN0200001N9+02501+02071101781ADDAG12000GA1001+999999999GF100991001001999999001001MD1210061+9999SA1+2749UA1M070259999UG1060450909REMSYN030 22224 00274 20705 309// 40609
0138999999999991994010100004+20100+058500FM-13+9999NJMD V0200601N00211220001CN0100001N9+02281+01601101651ADDAG12000GA1001+999999999GF100991001001999999001001MD1710121+9999SA1+2619UA1M000009999UG1060051009REMSYN030 22200 00261 20000 310// 40601
0138999999999991994010100004+21100+113200FM-13+9999GRZE V0200401N01391002401CN0100001N9+01871+01481102071ADDAG12000GA1091+999999999GF109991091999999999999999MD1110111+9999SA1+1989UA1M050259999UG1050250309REMSYN030 22200 00198 20505 303// 40505
0139999999999991994010100004+21700-073100FM-13+9999LIZA V0200601N01131007501CN0200001N9+02481+99999102051ADDAG11000AY121061AY281061GF108991999051008001061999MD1210051+9999MW1151SA1+2619UA1M050059999REMSYN018 22223 00261 20501EQDQ01+000082SCOTLC
0139999999999991994010100004+34500+154900FM-13+99999VUM V0201801N02471002101CN0040001N9+01881+01651999999ADDAG12001AY161061AY221061GF108991081071002501001001MD1710121+9999MW1591SA1+1609UA1M111009999REMSYN018 22224 00160 21120EQDQ01+109681APOSLP
0139999999999991994010100004+36300-002800FM-13+99999KKY V0202901N009319999999N0100001N9+01681+01361102561ADDAG11000AY121061AY221061GF107991001001999999001081MD1710151+9999MW1051SA1+1569UA1M990209999REMSYN018 22213 00156 22904EQDQ01+000072SCOTLC
0139999999999991994010100004+38300+000000FM-13+9999C6KF V0202301N01441220001CN0200001N9+01741+01041102151ADDAG11000AY111061AY211061GF103991999061012501011041MD1710151+9999MW1011SA1+1529UA1M990109999REMSYN018 22254 00152 2//02EQDQ01+000052SCOTLC
0139999999999991994010100004+42200+139500FM-13+9999UFPL V0203001N01201000601CN0100001N9-00241+99999101461ADDAG12001AY171061AY271061GF108991999071000751021999MD1210101+9999MW1701SA1+1239UA1M040109999REMSYN018 22200 00123 20402EQDQ01+000082SCOTLC
0139999999999991994010100004+43400+004900FM-13+9999FNCI V0203401N001519999999N0100001N9+00991+00991101151ADDAG12001AY161061AY221061GF108991999999999999999999MD1610101+9999MW1021SA1+1249UA1M000009999REMSYN018 22200 00124 20000EQDQ01+000092SCOTLC
0139999999999991994010100004+44500-023500FM-13+9999PGWJ V0201901N017019999999N0100001N9+01491+01341101351ADDAG12001AY161061AY221061GF108991999999999999999999MD1610401+9999MW1211SA1+1569UA1M999999999REMSYN018 22214 00156 299//EQDQ01+000092SCOTLC
0139999999999991994010100004+48700-164500FM-13+9999EWAH V0200101N01501007501CN0100001N9+00601+99999096541ADDAG12000AY151061AY221061GF108991999051008001021999MD1110101+9999MW1201SA1+1609UA1M070309999REMSYN018 22221 00160 20706EQDQ01+000082SCOTLC
0138999999999991994010100004+12000+127200FM-13+9999EUAF V0200701N01001220001CN0500001N9+02841+99999999999ADDAG12000AY121061AY221061GF104991041091004501001001MD1210101+9999MW1251SA1+2909UA1M040109999UG1070259999REMSYN024 22273 00290 20402 40705
0141999999999991994010100004+07200+107300FM-13+9999NVBK V0200201N01081002101CN0100001N9+02391+02101101021ADDAG12000GF108991999071002501071999MD1710011+9999SA1+2509UA1M030159999UG1030203609REMSYN030 22253 00250 20303 336// 40304EQDQ01+000082SCOTLC
0141999999999991994010100004+14500+119400FM-13+9999WGLA V0200501N00721220001CN0200001N9+02671+02301101301ADDAG11000GF104991999061004501999999MD1210201+9999SA1+2789UA1M020059999UG1060153509REMSYN030 22284 00278 20201 335// 40603EQDQ01+000082SCOTLC
0141999999999991994010100004+28800+123400FM-13+9999ELIO V0203501N00571007501CN0100001N9+00111+99999102441ADDAG11000GF108991999051008001011999MD1410001+9999SA1+1609UA1M060159999UG1080300309REMSYN030 22254 00160 20603 303// 40806EQDQ01+000082SCOTLC
0141999999999991994010100004+30200+155000FM-13+9999ELKD V0201801N01541004201CN0040001N9+02001+01701100901ADDAG12000GF108991999061004501021999MD1710701+9999SA1+2309UA1M040609999UG1050701809REMSYN030 22263 00230 20412 318// 40514EQDQ01+000082SCOTLC
0141999999999991994010100004+34500-132200FM-13+9999ELKA V0202201N01081007501CN0100001N9+01801+01601101701ADDAG12000GF108991999051008001021071MD1410001+9999SA1+1509UA1M020159999UG1030202209REMSYN030 22233 00150 20203 322// 40304EQDQ01+000082SCOTLC
0141999999999991994010100004+37600-032200FM-13+9999C6KD V0202101N00411220001CN0200001N9+01751+01671102401ADDAG12000GF103991999051004501001001MD1410001+9999SA1+1509UA1M030109999UG1040153409REMSYN030 22214 00150 20302 334// 40403EQDQ01+000022SCOTLC
0141999999999991994010100004+38700+153000FM-13+9999ELJO V0203301N01951002101CN0040001N9+00901+00701999999ADDAG12000GF108991061071002501051999MD1210101+9999SA1+1229UA1M070409999UG1100501909REMSYN030 22224 00122 20708 319// 41010EQDQ01+109911APOSLP
0141999999999991994010100004+38700+153500FM-13+9999ELJO V0203301N01951002101CN0040001N9+00901+00701999999ADDAG12000GF108991061071002501051999MD1210101+9999SA1+1229UA1M070409999UG1100501909REMSYN030 22224 00122 20708 319// 41010EQDQ01+109911APOSLP
0141999999999991994010100004+39200+161200FM-13+9999JPGO V0201801N020619999999N0100001N9+01501+01161100701ADDAG12000GF108991999001022501051001MD1210051+9999SA1+1309UA1M050459999UG1120551909REMSYN030 22225 00130 20509 319// 41211EQDQ01+000042SCOTLC
0140999999999991994010100004+17800-103200FM-13+9999ELJS V0201901N00361220001CN0200001N9+02801+02401101351ADDAG12000GF104991031031004501001021MD1210051+9999SA1+3009UA1M030059999UG1080053109UG2080101309REMSYN036 22224 00300 20301 33113 40801 50802
0140999999999991994010100004+28500-078800FM-13+9999WZJE V0200701N00771220001CN0200001N9+02061+01601102481ADDAG12000GF104991031081008001041051MD1310041+9999SA1+2449UA1M040109999UG1060200509UG2080100909REMSYN036 22234 00244 20402 30509 40604 50802
0140999999999991994010100004+35200+148500FM-13+9999KHRF V0203101N01851006001CN0200001N9+01351+00901099901ADDAG12000GF107991061081002501071999MD1210201+9999SA1+1889UA1M060259999UG1100452109UG2080403609REMSYN036 22225 00188 20605 32136 41009 50808
0140999999999991994010100004+35200+148600FM-13+9999KHRF V0203101N01851006001CN0200001N9+01351+00901099901ADDAG12000GF107991061081002501071999MD1210201+9999SA1+1889UA1M060259999UG1100452109UG2080403609REMSYN036 22225 00188 20605 32136 41009 50808
0140999999999991994010100004+41900+146100FM-13+9999SHIP V0203601N01181000601CN0100001N9+00001-00301100651ADDAG12000GF107991071051000751071021MD1210101+9999SA1+0209UA1M040159999UG1060253609UG2040203409REMSYN036 22253 00020 20403 33634 40605 50404
0144999999999991994010100004+45100+175800FM-13+9999ZCKP V0203601N01031012001CN0200001N9+00301+99999101881ADDAG12000GF106991061011012501051011MD1410001+9999SA1+0309UA1M040159999UG1130253509UG2060152509REMSYN040 22223 00030 20403 33525 41305 50603 ICE
0142999999999991994010100004+51100-132600FM-13+9999KJDG V0202201N01181002101CN0200001N9+00831+00801098901ADDAG12000AY111061AY211061GF106991061041002501001001MW1071SA1+1009UA1M050559999UG1100701809UG2999991409REMSYN030 22233 00100 20511 31814 41014
0140999999999991994010100004-21100+153800FM-13+99999VAQ V0201201N01131220001CN0100001N9+02851+02461100761ADDAG11000GF104991041011008001999011MD1210201+9999SA1+2709UA1M020259999UG1060150109UG2040201209REMSYN036 22243 00270 20205 30112 40603 50404
0140999999999991994010100004-33200+170500FM-13+9999PGEJ V0202901N00411220001CN0200001N9+02141+01931101151ADDAG12000GF102991021021002501081001MD1710151+9999SA1+2209UA1M020109999UG1080152309UG2090103009REMSYN036 22234 00220 20202 32330 40803 50902
0144999999999991994010100004+00000+049000FM-13+9999ELDT V0200101N00511009001CN0200001N9+02641+02481101201ADDAG12000AY151061AY221061GF106991051081004501071001MD1610131+9999MW1031SA1+2769UA1M020059999UG1060150309REMSYN030 22253 00276 20201 303// 40603
0144999999999991994010100004+00700+079700FM-13+9999PGDL V0201501N00151220001CN0200001N9+02701+02311101001ADDAG12005AY181061AY201061GF102991021011004501061001MD1210101+9999MW1021SA1+2889UA1M010059999UG1060100209REMSYN030 22224 00288 20101 302// 40602
0144999999999991994010100004+04400+098900FM-13+9999GXUP V0209991V00261004201CN0100001N9+02481+02321101201ADDAG12005AY181061AY221061GF107991071071004501999999MD1310051+9999MW1251SA1+2789UA1M010059999UG1030100509REMSYN030 22235 00278 20101 305// 40302
0144999999999991994010100004+04800+106900FM-13+9999ELFV V0200201N01181002101CN0200001N9+02501+02201101001ADDAG11000AY121061AY221061GF107991071061002501041999MD1410001+9999MW1011SA1+2609UA1M080259999UG1070300309REMSYN030 22215 00260 20805 303// 40706
0144999999999991994010100004+04800+125100FM-13+9999VRUA V0203401N00511045001CN0200001N9+02801+02391101521ADDAG11000AY121061AY221061GF105991031011004501031091MD1510201+9999MW1021SA1+2909UA1M030059999UG1020052509REMSYN030 22213 00290 20301 325// 40201
0144999999999991994010100004+05000-158900FM-13+9999LAJH V0201401N00461220001CN0200001N9+02951+02451100951ADDAG11000AY101061AY201061GF102991011011008001001021MD1710141+9999MW1011SA1+2509UA1M020109999UG1040101509REMSYN030 22254 00250 20202 315// 40402
0144999999999991994010100004+05100+106600FM-13+9999D5AI V0200101N00771002101CN0200001N9+02401+02401101071ADDAG11000AY101061AY211061GF106991051051002501031011MD1810071+9999MW1031SA1+2809UA1M010009999UG1031000109REMSYN030 22254 00280 20100 301// 40320
0142999999999991994010100004+06500-014700FM-13+99999KLE V0200301N00261220001CN0200001N9+02801+02211101281ADDAG11000AY121061AY201061GA1001+999999999GF100991001001999999001001MD1110101+9999MW1051SA1+2809UA1M010059999REMSYN024 22273 00280 20101 39900
0144999999999991994010100004+07400-015000FM-13+9999VRUJ V0200801N00151105001CN0100001N9+02801+01981101281ADDAG11000AY111061AY211061GF106991001001999999001071MD1110061+9999MW1051SA1+2889UA1M010059999UG1080151609REMSYN030 22273 00288 20101 316// 40803
0144999999999991994010100004+09100+128800FM-13+9999VJDI V0200501N00821220001CN0200001N9+02801+02371101201ADDAG11000AY111061AY201061GF105991031021004501001011MD1310101+9999MW1021SA1+2849UA1M020059999UG1100100409REMSYN030 22243 00284 20201 304// 41002
0144999999999991994010100004+10600+102100FM-13+9999ELFM V0200401N00571045001CN0200001N9+02781+02301101261ADDAG11000AY121061AY211061GF105991041011008001041999MD1310031+9999MW1031SA1+2909UA1M020109999UG1020100509REMSYN030 22234 00290 20202 305// 40202
0144999999999991994010100004+11900+109800FM-13+9999HSJK V0200201N01391004201CN0100001N9+02401+02111101461ADDAG11000AY111061AY211061GF108991081041004501999999MD1110201+9999MW1031SA1+2609UA1M040209999UG1040200209REMSYN030 22212 00260 20404 302// 40404
0144999999999991994010100004+13700+112000FM-13+99999VDR V0200301N00931007501CN0200001N9+02481+02231101451ADDAG11000AY121061AY221061GF107991071021008001999999MD1210101+9999MW1031SA1+2509UA1M050209999UG1060250309REMSYN030 22243 00250 20504 303// 40605
0144999999999991994010100004+17000-127700FM-13+9999PJAG V0200501N01391001201CN0200001N9+02261+02031100951ADDAG12002AY161061AY251061GF108991081091001501999999MD1710451+9999MW1021SA1+2409UA1M030159999UG1060200609REMSYN030 22263 00240 20303 306// 40604
0144999999999991994010100004+17800-115500FM-13+9999DDOJ V0200901N00771105001CN0500001N9+02551+99999101301ADDAG11000AY121061AY221061GF106991021011008001021061MD1510051+9999MW1021SA1+2659UA1M060259999UG1040150309REMSYN030 22264 00265 20605 303// 40403
0144999999999991994010100004+18600-016600FM-13+9999SHIP V0200601N00501045001CN0100001N9+01501+99999109001ADDAG11000AY121061AY221061GF108991021041022501021999MD1610031+9999MW1061SA1+1809UA1M030109999UG1070100509REMSYN030 22200 00180 20302 30500 40702
0144999999999991994010100004+19500+122600FM-13+9999C6FA V0200501N01641001201CN0100001N9+02201+02101101801ADDAG12002AY161061AY221061GF108991081071001501999999MD1210151+9999MW1071SA1+2509UA1M080459999UG1100650609REMSYN030 22223 00250 20809 306// 41013
0144999999999991994010100004+19700-061400FM-13+9999C6KV V0200901N00671002101CN0100001N9+02561+02241102141ADDAG12002AY161061AY221061GF107991051051002501071001MD1210121+9999MW1151SA1+2659UA1M040109999UG1060201109REMSYN030 22254 00265 20402 311// 40604
0144999999999991994010100004+19900-024000FM-13+9999J8GK V0200701N00771007501CN0100001N9+02001+01491102051ADDAG11000AY121061AY221061GF107991051001008001021091MD1110041+9999MW1051SA1+2009UA1M020109999UG1010303009REMSYN030 22253 00200 20202 330// 40106
0144999999999991994010100004+24800-089300FM-13+9999ELLE V0200901N02201006001CN0200001N9+02141+01711102171ADDAG12000AY151061AY261061GF108991081081001501999999MD1610051+9999MW1501SA1+2269UA1M070159999UG1090200809REMSYN030 22233 00226 20703 308// 40904
0144999999999991994010100004+25200+159200FM-13+9999XYEJ V0201301N01291002101CN0200001N9+02401+01971101651ADDAG11000AY111061AY221061GF108991081051002501001001MD1510101+9999MW1061SA1+2459UA1M020209999UG1080401309REMSYN030 22274 00245 20204 313// 40808
0144999999999991994010100004+26100+131800FM-13+9999JKVH V0200101N00571004201CN0200001N9+01851+00991101951ADDAG11000AY111061AY211061GF105991051041004501001001MD1210221+9999MW1021SA1+2409UA1M030159999UG1060353309REMSYN030 22274 00240 20303 333// 40607
0148999999999991994010100004+26500-149500FM-13+9999KHRC V0202301N00771220001CN0200001N9+02331+01801101461ADDAG11000AY101061AY201061GF101991011011004501001001MD1710211+9999MW1021SA1+2009UA1M030109999UG1080253009REMSYN034 22214 00200 20302 330// 40805 ICE
0144999999999991994010100004+27000+154300FM-13+99993ERJ V0201701N01751000301CN0100001N9+02401+01901101241ADDAG11000AY121061AY221061GF107991071051000251031999MD1410001+9999MW1031SA1+2309UA1M070209999UG1090351509REMSYN030 22223 00230 20704 315// 40907
0144999999999991994010100004+30000-164900FM-13+9999GBPA V0203101N02061220001CN0200001N9+01671+00991101331ADDAG12001AY181061AY211061GF103991031081004501001001MD1710101+9999MW1011SA1+1949UA1M050359999UG1990509999REMSYN030 22223 00194 20507 399// 4//10
0144999999999991994010100004+31500-054900FM-13+9999D5DI V0202901N00821004201CN0100001N9+02121+01601102371ADDAG12000AY151061AY221061GF105991051021004501011011MD1210131+9999MW1201SA1+2159UA1M050209999UG1090403009REMSYN030 22263 00215 20504 330// 40908
0144999999999991994010100004+34400+150800FM-13+99998JPX V0203001N01851002101CN0040001N9+01451+01371099541ADDAG12001AY161061AY221061GF108991081071002501999999MD1310121+9999MW1621SA1+2109UA1M030309999UG1100552009REMSYN030 22224 00210 20306 320// 41011
0148999999999991994010100004+34500-177900FM-13+9999KIRF V0203201N01391002101CN0200001N9+01281+00901102181ADDAG11000AY121061AY221061GF106991061011002501001001MD1810121+9999MW1151SA1+1569UA1M050309999UG1100453209REMSYN034 22225 00156 20506 332// 41009 ICE
0144999999999991994010100004+35100-033300FM-13+9999C6IZ V0202501N00511007501CN0200001N9+01801+01741102701ADDAG11000AY111061AY211061GF105991051061008001001001MD1010071+9999MW1031SA1+1849UA1M020109999UG1070303409REMSYN030 22253 00184 20202 334// 40706
0144999999999991994010100004+35500+150400FM-13+9999JKPP V0203001N01951036001CN0040001N9+01251+01221099351ADDAG12000AY121061AY221061GF108991041061002501021999MD1410001+9999MW1601SA1+1709UA1M090409999UG1100401309REMSYN030 22224 00170 20908 313// 41008
0144999999999991994010100004+38000+161000FM-13+9999D9ZZ V0202001N02161036001CN0040001N9+01601+01601101501ADDAG11000AY121061AY221061GF106991031041017501091031MD1510101+9999MW1011SA1+1409UA1M050459999UG1060502009REMSYN030 22225 00140 20509 320// 40610
0144999999999991994010100004+38600-057500FM-13+9999SHIP V0202701N01701002101CN0200001N9+01151+00531102001ADDAG11000AY121061AY221061GF108991081051002501999999MD1210201+9999MW1021SA1+2029UA1M080359999UG1100502709REMSYN030 22253 00202 20807 327// 41010
0144999999999991994010100004+38800+154800FM-13+9999YJZH V0202101N01541012001CN0040001N9+01401+00601099001ADDAG11000AY121061AY211061GF108991081071012501999999MD1710601+9999MW1021SA1+1009UA1M040459999UG1070452109REMSYN030 22223 00100 20409 321// 40709
0144999999999991994010100004+39100+136800FM-13+99993ELW V0203301N018019999999N0002001N9+00201+00101102001ADDAG11000AY111061AY211061GF108991081999004501999999MD1410001+9999MW1031SA1+1009UA1M030209999UG1040203309REMSYN030 22213 00100 20304 333// 40404
0144999999999991994010100004+40500-134000FM-13+9999VRCV V0202201N00571007501CN0100001N9+01501+01231100001ADDAG12000AY121061AY221061GF108991081061008001999999MD1510001+9999MW1021SA1+1309UA1M010059999UG1080301909REMSYN030 22224 00130 20101 319// 40806
0144999999999991994010100004+42200+157500FM-13+99990UUU V0201801N01641002101CN0020001N9+01031+01001098951ADDAG12001AY161061AY221061GF108991081071002501999999MD1610101+9999MW1441SA1+0889UA1M050509999UG1050501709REMSYN030 22215 00088 20510 317// 40510
0144999999999991994010100004+42200-129500FM-13+9999KHRP V0202101N011319999999N0010001N9+01401+01301100671ADDAG12000AY151061AY221061GF108991081999001501999999MD1713001+9999MW1631SA1+1199UA1M060309999UG1080352309REMSYN030 22274 00119 20606 323// 40807
0144999999999991994010100004+43100+158100FM-13+9999LXNF V0201701N01701000301CN0040001N9+01011+00901098951ADDAG12000AY151061AY221061GF108991081061000251999999MD1710401+9999MW1591SA1+0779UA1M070309999UG1100352109REMSYN030 22213 00077 20706 321// 41007
0144999999999991994010100004+43700-020600FM-13+9999C6LP V0201901N00511001201CN0100001N9+99999+99999102151ADDAG12000AY151061AY221061GF108991081071001501999999MD1610021+9999MW1201SA1+1299UA1M030109999UG1120403009REMSYN030 22214 00129 20302 330// 41208
0148999999999991994010100004+44500-153600FM-13+9999WEZH V0202401N01951001201CN0100001N9+00781+00601097951ADDAG12001AY181061AY201061GF107991051051001501999011MD1410001+9999MW1251SA1+1009UA1M110509999UG1990652509REMSYN034 22225 00100 21110 325// 41513 ICE
0144999999999991994010100004+44800-127100FM-13+9999WMCK V0201901N013919999999N0020001N9+01111+01101100601ADDAG12000AY151061AY261061GF108991999999000751999999MD1710301+9999MW1631SA1+1179UA1M060209999UG1100252909REMSYN030 22283 00117 20604 329// 41005
0148999999999991994010100004+45300-128200FM-13+9999DHCW V0201801N01231001201CN0100001N9+01351+01221100371ADDAG12001AY161061AY221061GF108991081071001501001001MD1210081+9999MW1101SA1+1159UA1M040159999UG1090351809REMSYN034 22214 00115 20403 318// 40907 ICE
0144999999999991994010100004+45500+150800FM-13+9999WEZM V0203201N01641002101CN0100001N9+99999+99999099421ADDAG12000AY121061AY221061GF107991071011002501999999MD1310251+9999MW1701SA1+0119UA1M060309999UG1090503209REMSYN030 22254 00011 20606 332// 40910
0144999999999991994010100004+46400-007500FM-13+9999MMVU V0202701N020619999999N0200001N9+01001+00731102041ADDAG12001AY181061AY261061GF107991011999004501999999MD1310701+9999MW1031SA1+1109UA1M070359999UG1070303009REMSYN030 22253 00110 20707 330// 40706
0144999999999991994010100004+47900+158600FM-13+9999WGJF V0202701N00931000301CN0005001N9+00361+00101098981ADDAG12000AY141061AY221061GF108991081061000251999999MD1610121+9999MW1771SA1+0179UA1M060159999UG1080351909REMSYN030 22254 00017 20603 319// 40807
0144999999999991994010100004+48000+159100FM-13+99993EOF V0202701N00621001201CN0020001N9+00301+00001098981ADDAG12000AY151061AY241061GF108991081061001501999999MD1610071+9999MW1841SA1+0209UA1M060359999UG1070501409REMSYN030 22254 00020 20607 314// 40710
0144999999999991994010100004+48100-007100FM-13+9999C6KD V0202901N01341036001CN0200001N9+00931+00451101831ADDAG12001AY181061AY221061GF107991041041004501061999MD1310061+9999MW1801SA1+1149UA1M040209999UG1100402909REMSYN030 22214 00114 20404 329// 41008
0144999999999991994010100004+48700-129200FM-13+9999WAFA V0202601N01231220001CN0100001N9+01171+01101099781ADDAG12000AY121061AY211061GF103991031051001501081051MD1210351+9999MW1011SA1+1289UA1M020159999UG1050351809REMSYN030 22233 00128 20203 318// 40507
0144999999999991994010100004+49600-136600FM-13+9999SHIP V0202101N01591015001CN0200001N9+01201+00831098931ADDAG12000AY111061AY211061GF107991071081012501021011MD1610091+9999MW1071SA1+1009UA1M060309999UG1070402109REMSYN030 22275 00100 20606 321// 40708
0144999999999991994010100004+49900-021600FM-13+9999VRBA V0201301N02261001201CN0040001N9+00911+00851100181ADDAG12001AY161061AY221061GF108991081071001501001001MD1710901+9999MW1651SA1+1309UA1M040259999UG1120403209REMSYN030 22213 00130 20405 332// 41208
0144999999999991994010100004+51200-014600FM-13+9999SKUN V0202501N00671006001CN0200001N9+00621+00101101401ADDAG12001AY181061AY211061GF106991051081002501071061MD1210201+9999MW1251SA1+1009UA1M030159999UG1080603009REMSYN030 22263 00100 20303 330// 40812
0142999999999991994010100004+51300+159500FM-13+9999BKHA V0201101N01181004201CN0040001N9+00101-00101099001ADDAG12000AY101061AY221061GF108991081071004501999999MD1710501+9999MW1021UA1M070309999UG1070301109UG2999991209REMSYN024 22254 20706 31112 40706
0144999999999991994010100004+56500-007900FM-13+9999FHQI V0202701N009819999999N0200001N9+00851+00511100301ADDAG12001AY181061AY271061GF106991061999999999999999MD1210301+9999MW1021SA1+0929UA1M040059999UG1990152709REMSYN030 22251 00092 20401 327// 41503
0144999999999991994010100004+56500-039000FM-13+9999DEDI V0200701N019519999999N0040001N9+00151+00021097901ADDAG12000AY121061AY221061GF108991081999999999999999MD1711501+9999MW1861SA1+0429UA1M050159999UG1120702709REMSYN030 22254 00042 20503 327// 41214
0144999999999991994010100004+57500+000500FM-13+9999GRHJ V0203301N00261220001CN0200001N9+00541+00141100141ADDAG12000AY121061AY221061GF104991999999004501999999MD1210101+9999MW1021SA1+0769UA1M020059999UG1040109999REMSYN030 22200 00076 20201 399// 40402
0144999999999991994010100004-05100-092900FM-13+9999C6JY V0201801N00261220001CN0200001N9+02501+02201101171ADDAG11000AY101061AY201061GF104991021081008001081081MD1210101+9999MW1031SA1+2189UA1M010059999UG1020051809REMSYN030 22254 00218 20101 318// 40201
0144999999999991994010100004-05300-004900FM-13+99993ELF V0201601N00621012001CN0100001N9+01301+99999101301ADDAG11000AY121061AY221061GF106991061021012501061001MD1810351+9999MW1031SA1+2709UA1M030109999UG1030101509REMSYN030 22234 00270 20302 315// 40302
0144999999999991994010100004-06500+154400FM-13+9999JKRV V0203401N00871045001CN0200001N9+02981+02471100601ADDAG12005AY161061AY221061GF108991041031004501071999MD1010051+9999MW1201SA1+2909UA1M040159999UG1060303409REMSYN030 22274 00290 20403 334// 40606
0144999999999991994010100004-06900+077700FM-13+9999GYZU V0202101N00261004201CN0200001N9+02701+02501101151ADDAG12005AY161061AY211061GF106991061091004501999999MD1310031+9999MW1151SA1+2859UA1M030059999UG1070251509REMSYN030 22234 00285 20301 315// 40705
0144999999999991994010100004-11000+092200FM-13+9999VRMH V0201101N00871004201CN0200001N9+02631+02281101121ADDAG12003AY181061AY221061GF108991061031004501071999MD1610081+9999MW1151SA1+2309UA1M030159999UG1080201609REMSYN030 22263 00230 20303 316// 40804
0144999999999991994010100004-13800-139800FM-13+9999DQEB V0200801N00771220001CN0200001N9+02941+02261101231ADDAG11000AY101061AY201061GF102991021011004501001001MD1710151+9999MW1021SA1+2749UA1M990109999UG1990150909REMSYN030 22263 00274 2//02 309// 4//03
0144999999999991994010100004-15800+175600FM-13+9999ELHR V0209991C00001220001CN0100001N9+03021+02421101001ADDAG11000AY111061AY201061GF104991041011008001081011MD1110051+9999MW1021SA1+2889UA1M000009999UG1050101409REMSYN030 22233 00288 20000 314// 40502
0144999999999991994010100004-15900+119300FM-13+9999VNVZ V0202101N00461002101CN0100001N9+02901+02481100851ADDAG11000AY121061AY221061GF106991061061002501031999MD1210131+9999MW1011SA1+2999UA1M020159999UG1050252309REMSYN030 22253 00299 20203 323// 40505
