0010999999999991992010100004-24000-045700FM-13+9999KNFG V02099999999999999999N9999999N9+99999+99999999999ADDAG12000
0016999999999991992010100004+55700+004700FM-13+9999OU24 V0202301N012319999999N0040001N9+00971+99999102141ADDAG12000MW1101
0024999999999991992010100004+15600+041200FM-13+9999PIGM V0201501N004619999999N0200001N9+02511+02341101231ADDAG12000REMSYN00522234
0036999999999991992010100004+02100-038300FM-13+9999WXVH V0201101N006219999999N0100001N9+99999+99999999999ADDAG12000GF106991999999002501999999
0036999999999991992010100004+04400-174400FM-13+9999LAYU V0202501N00931220001CN0200001N9+00301+99999100521ADDAG12000GF102991999999999999999999
0036999999999991992010100004+24000-086900FM-13+9999DHOU V0200401N004619999999N0200001N9+02371+01901999999ADDAG12000GF108991999999004501999999
0036999999999991992010100004+31800+166000FM-13+9999DURM V0202701N005719999999N0100001N9+01801+99999101501ADDAG12000GF105991999999999999999999
0036999999999991992010100004+38600-073000FM-13+9999ZCAN V0200401N005119999999N0200001N9+00501+99999103501ADDAG12000GF108991999999999999999999
0036999999999991992010100004+41300-066100FM-13+9999YJWY V0200201N010319999999N0200001N9+00201+99999103601ADDAG12000GF106991999999999999999999
0036999999999991992010100004+48400-089200FM-13+9999CG29 V0201901N001019999999N0100001N9+99999+99999999999ADDAG12000GF108991999999999999999999
0036999999999991992010100004+99999-110500FM-13+9999WTEC V02099999999999999999N9999999N9+99999+99999999999ADDAG12000GF199999999999002501999999
0038999999999991992010100004+53900+008700FM-13+9999DBFM V0202201N006719999999N9999999N9+00341+00321999999ADDAG12000SA1+0419REMSYN01122200 00041
0050999999999991992010100004+08500+110300FM-13+99993EIS V0200401N01031006001CN0040001N9+02551+02341101301ADDAG12000GF107991051081002501011001MD1310151+9999
0050999999999991992010100004+45900-012200FM-13+9999UHMT V0201801N008019999999N0200001N9+01401+99999999999ADDAG12000GF106991999999008001999999MD1014031+9999
0050999999999991992010100004+46100-132600FM-13+9999DUMF V0202001N008719999999N0100001N9+01201+00801100901ADDAG12000GF107991999999012501999999MD1610051+9999
0052999999999991992010100004+55700+004300FM-13+9999XP42 V0202401N01541002401CN0040001N9+00701+99999102101ADDAG12000GA1091+999999999GF109991091999999999999999
0050999999999991992010100004+18400+118100FM-13+9999SHIP V0202301N00211045001CN0200001N9+02401+99999101811ADDAG12000GF107991011051008001011071REMSYN00522253
0052999999999991992010100004+22000+037600FM-13+9999DNGB V0203601N014419999999N0200001N9+02061+00961101611ADDAG12000MD1410001+9999SA1+2609REMSYN01122274 00260
0050999999999991992010100004+28300+033200FM-13+9999PGCQ V0203101N01131220001CN0200001N9+01461+99999102101ADDAG12000GF102991999999999999999999REMSYN00522273
0052999999999991992010100004+28600-065300FM-13+9999DGSC V0200401N006719999999N0200001N9+02101+01721102131ADDAG12000MD1210121+9999SA1+2169REMSYN01122263 00216
0050999999999991992010100004+31800-022300FM-13+9999PCZB V0200701N008219999999N0200001N9+01901+99999103251ADDAG12000GF107991999999999999999999REMSYN00522262
0050999999999991992010100004+33500-009300FM-13+9999PHJS V0200301N00671220001CN0200001N9+01671+99999102981ADDAG12000GF102991999999999999999999REMSYN00522214
0052999999999991992010100004+36700-024400FM-13+9999UYKL V0209991C000019999999N9999999N9+02141+99999103821ADDAG12000MD1410001+9999SA1+1459REMSYN01122253 00145
0050999999999991992010100004+38500-041200FM-13+9999PJKI V0201801N024219999999N0100001N9+01901+99999101901ADDAG12000GF107991999999999999999999REMSYN00522253
0052999999999991992010100004-04300+006200FM-13+9999DBBH V0202001N004619999999N0200001N9+02561+02061101341ADDAG12000MD1010011+9999SA1+2689REMSYN01122243 00268
0052999999999991992010100004-53700-065300FM-13+9999DBLK V0203201N010319999999N0100001N9+00711+00681101591ADDAG12000MD1510011+9999SA1+0829REMSYN01122272 00082
0057999999999991992010100004+58100+001400FM-13+9999MKFH V0202101N021619999999N0200001N9+00901+00821100881ADDAG12000MD1710601+9999UA1M070509999REMSYN01122200 20710
0058999999999991992010100004-07300-168500FM-13+9999C6HL V0202001N009319999999N0100001N9+03101+99999100401ADDAG12009AY161061AY221061GF107991999999999999999999MW1601
0066999999999991992010100004+72200+038100FM-13+9999EVCC V0201901N01501002401CN0100001N9-00911+99999098101ADDAG12000GA1091+999999999GF109991091999999999999999MD1710401+9999
0064999999999991992010100004+16800-080400FM-13+9999PEXV V0200701N00671220001CN0200001N9+02621+02181101221ADDAG12000GF101991999999999999999999MD1210111+9999REMSYN00522233
0064999999999991992010100004+20300-084200FM-13+9999ELIG V0200701N00311220001CN0200001N9+02451+01901101621ADDAG11000GF104991021041004501021001MD1710081+9999REMSYN00522255
0064999999999991992010100004+22500+037300FM-13+9999C6KM V0203001N00821220001CN0200001N9+01981+01071101691ADDAG12000GF102991021011008001001001MD1610111+9999REMSYN00522233
0064999999999991992010100004+32300-019800FM-13+9999D5LC V0200401N00821220001CN0200001N9+01701+01201103351ADDAG12000GF100991001001999999001001MD1210101+9999REMSYN00522253
0064999999999991992010100004+35600-010200FM-13+9999PHUG V0200501N00871220001CN0200001N9+01581+01301103501ADDAG12000GF104991999999999999999999MD1310201+9999REMSYN00522222
0064999999999991992010100004+40500-009800FM-13+9999PHUT V0200401N00461220001CN0200001N9+01331+00691103381ADDAG12000GF100991001001999999001001MD1710091+9999REMSYN00522242
0064999999999991992010100004+49100-010500FM-13+9999DGDC V0202401N00771220001CN0200001N9+01101+00551103481ADDAG12000GF102991021999999999999999MD1210051+9999REMSYN00522264
0064999999999991992010100004+57100+999999FM-13+9999OWFG V0202001N028319999999N0200001N9+00821+00501100961ADDAG12000GF108991081999999999999999MD1710481+9999REMSYN00522232
0072999999999991992010100004-74600+164100FM-13+9999NRUO V0202401N00461002101CN0040001N9+00081-00101099771ADDAG12000AY171061AY221061GF108991061061002501021999MD1310121+9999MW1711
0072999999999991992010100004+39600+167500FM-13+9999D7CX V0202701N028019999999N0100001N9+00891+99999999999ADDAG12000AY121061AY221061GF107991999999008001999999MW1011REMSYN00522213
0072999999999991992010100004+40500-023900FM-13+9999PFJH V0202101N00261220001CN0200001N9+01671+99999103641ADDAG11000AY111061AY211061GF104991999999999999999999MW1011REMSYN00522253
0078999999999991992010100004+00800+075300FM-13+9999LXCH V0200601N00261220001CN0200001N9+02651+02261101221ADDAG12000GF100991001001999999001001MD1210031+9999SA1+2839REMSYN01122224 00283
0078999999999991992010100004+01100-032400FM-13+9999VROJ V0201401N005119999999N0200001N9+02651+02461101301ADDAG12000GF107991071999008001999999MD1110201+9999SA1+2709REMSYN01122253 00270
0078999999999991992010100004+06000+086000FM-13+9999VSBZ V0200401N00311220001CN0200001N9+02681+02511101221ADDAG12000GF102991021011008001001001MD1510001+9999SA1+2409REMSYN01122223 00240
0078999999999991992010100004+12000-053500FM-13+9999DCRF V0200801N010319999999N0200001N9+02601+02321101501ADDAG12000GF107991051999004501999999MD1110051+9999SA1+2709REMSYN01122222 00270
0078999999999991992010100004+16800+055500FM-13+9999FNXS V0201001N00261220001CN0200001N9+02291+01441101521ADDAG12000GF101991011011008001001001MD1710101+9999SA1+2499REMSYN01122213 00249
0078999999999991992010100004+17000-020200FM-13+9999UJFO V0200301N01101220001CN0200001N9+02191+01721101791ADDAG12000GF102991001001999999001011MD1410001+9999SA1+2409REMSYN01122243 00240
0078999999999991992010100004+17400+056500FM-13+9999GCSW V0201201N00311220001CN0200001N9+02351+01811101471ADDAG12000GF102991021041012501001001MD1510071+9999SA1+2479REMSYN01122214 00247
0078999999999991992010100004+20400+061100FM-13+9999ZCAK V0200601N00261220001CN0200001N9+02301+02111101671ADDAG12000GF100991001001999999001001MD1510051+9999SA1+2589REMSYN01122213 00258
0078999999999991992010100004+20900+062300FM-13+9999ZELP V0200401N00511004201CN0200001N9+02341+01471101781ADDAG12000GF105991051041004501001001MD1410001+9999SA1+2159REMSYN01122274 00215
0078999999999991992010100004+27000+128400FM-13+9999VSBU V0201801N00821007501CN0200001N9+02101+01781101931ADDAG12000GF106991061021008001999999MD1410001+9999SA1+2429REMSYN01122283 00242
0078999999999991992010100004+32400-048500FM-13+9999PHQI V0203301N00411220001CN0200001N9+01831+01231102001ADDAG12000GF100991001001999999001001MD1210081+9999SA1+2169REMSYN01122213 00216
0078999999999991992010100004+35100-011600FM-13+9999DJJT V0200401N008719999999N0200001N9+01571+01571103201ADDAG12000GF106991051999999999999999MD1410001+9999SA1+1809REMSYN01122223 00180
0078999999999991992010100004+36000+015600FM-13+9999ELMH V0203001N00621220001CN0500001N9+01551+00821102851ADDAG12000GF101991999999999999999999MD1310081+9999SA1+1649REMSYN01122263 00164
0078999999999991992010100004+36000+015800FM-13+9999ZCAK V0203201N00821220001CN0200001N9+01391+00831102801ADDAG12000GF101991011011004501001001MD1410001+9999SA1+1609REMSYN01122233 00160
0078999999999991992010100004+37200+007000FM-13+9999PJKW V0200901N00461007501CN0200001N9+01061+00951103301ADDAG12000GF108991081011008001001001MD1210201+9999SA1+1549REMSYN01122223 00154
0078999999999991992010100004+39200-068800FM-13+9999VCRJ V0200501N00771012001CN0100001N9+99999+99999103351ADDAG12000GF106991061021012501001001MD1210351+9999SA1+1909REMSYN01122283 00190
0078999999999991992010100004+39600+004500FM-13+9999FZVN V0203401N00411220001CN0200001N9+01311+00681103501ADDAG12000GF101991999999999999999999MD1410001+9999SA1+1579REMSYN01122213 00157
0078999999999991992010100004+41300+005600FM-13+9999FNCI V0203001N00721220001CN0100001N9+01061+00611103201ADDAG12000GF102991999999999999999999MD1410001+9999SA1+1289REMSYN01122284 00128
0078999999999991992010100004+42100-010000FM-13+9999FNFD V0200201N00821220001CN0200001N9+01321+00771103301ADDAG12000GF100991001001999999001001MD1110011+9999SA1+1479REMSYN01122283 00147
0078999999999991992010100004+42200-025000FM-13+9999UNVF V0201401N004019999999N9999999N9+01501+99999103631ADDAG12000GF107991999999001501999999MD1710121+9999SA1+1509REMSYN01122254 00150
0078999999999991992010100004+46000-130000FM-13+9999BHFR V0202301N00411002101CN0100001N9+01701+01401101001ADDAG12000GF107991051051002501081021MD1210151+9999SA1+1409REMSYN01122223 00140
0078999999999991992010100004+50100-031800FM-13+9999FNEF V0202101N023119999999N0100001N9+01291+01151101001ADDAG11000GF108991081999999999999999MD1610201+9999SA1+1169REMSYN01122263 00116
0078999999999991992010100004+55900+179300FM-13+9999ELAC V0201001N011319999999N0010001N9+00151+00101096981ADDAG12000GF108991999999999999999999MD1210181+9999SA1+0409REMSYN01122263 00040
0078999999999991992010100004-00900+081500FM-13+9999VSBZ V0200201N00261045001CN0200001N9+02741+02301101221ADDAG12000GF106991021011008001071001MD1510001+9999SA1+2809REMSYN01122234 00280
0078999999999991992010100004-05600-028000FM-13+9999UMFW V0201301N00901220001CN0200001N9+99999+99999101431ADDAG12000GF102991021021008001001001MD1210201+9999SA1+2599REMSYN01122244 00259
0078999999999991992010100004-24600+010900FM-13+9999GBVM V0201601N00771220001CN0200001N9+01951+01611101681ADDAG12000GF103991031081008001001001MD1810021+9999SA1+1979REMSYN01122273 00197
0082999999999991992010100004+16600+109800FM-13+9999USJM V0209991C00001220001CN9999999N9+02501+99999101781ADDAG12000GF100991001001999999001001MD1210121+9999UG1999990309REMSYN01122263 30300
0080999999999991992010100004+37000-009200FM-13+9999Y5BC V0200401N001019999999N0200001N9+01401+00881103051ADDAG12000GA1091+999999999GF109991091999999999999999MD1710151+9999REMSYN00522244
0083999999999991992010100004+74700+047100FM-13+9999UZWI V0202201N00601004201CN0100001N9-00801+99999099591ADDAG12000GF108991081041004501999999MD1710301+9999UA1M030159999REMSYN01122200 20303
0085999999999991992010100004+49000+148900FM-13+9999EVRW V0203001N008019999999N0002001N9-00391+99999100891ADDAG12001AY101061AY201061GF108991999999008001999999MD1210031+9999EQDQ01+000802PRSWM1
0083999999999991992010100004+33700-121900FM-13+9999BPPS V0203301N01201090001CN0100001N9+00901+99999102821ADDAG12000GF106991041001999999011081SA1+1259UA1M990209999REMSYN01722273 00125 2//04
0083999999999991992010100004+47200-086300FM-13+9999WQZ9 V0201701N010819999999N0200001N9+00101+99999103151ADDAG12000GF108991999999999999999999SA1+0209UA1M020109999REMSYN017222// 0002/ 20202
0083999999999991992010100004+56100+163400FM-13+9999UQJJ V0203101N01101007501CN0200001N9-00361+99999099031ADDAG12000GF108991081051008001999999SA1+0209UA1M050209999REMSYN01722252 00020 20504
0084999999999991992010100004+04600-006100FM-13+9999FNXN V0202101N012019999999N0100001N9+02801+02251101201ADDAG12000GF107991061999999999999999MD1410001+9999SA1+2529REMSYN01722223 00252 2/0//
0082999999999991992010100004+28400-156700FM-13+9999ZCKP V0200701N00461002101CN0200001N9+02051+01401102371ADDAG12000GF107991051071002501071999MD1010201+9999SA1+2259REMSYN01522263 00225 ICE
0086999999999991992010100004+05700+082100FM-13+9999ATQQ V0200701N00931045001CN0100001N9+02701+02211101151ADDAG11000AY111061AY211061GF105991011011000251021001MD1510011+9999MW1031REMSYN00522223
0086999999999991992010100004-43500+155600FM-13+9999VNGG V0201201N00621002101CN0500001N9+01381+00951101911ADDAG12000AY151061AY221061GF108991081051002501999999MD1210051+9999MW1021REMSYN00522274
0089999999999991992010100004+42900+132700FM-13+9999EWWQ V0200301N00301220001CN0200001N9-00401+99999102331ADDAG12000GF101991011001999999021001MD1410001+9999UA1I002009999REMSYN01722200 10040 20301
0089999999999991992010100004-11300+154500FM-13+9999VJDI V0202401N00571002101CN0200001N9+02611+02301100951ADDAG12002GF108991071051002501011999MD1110051+9999UA1M050109999REMSYN01722283 20502 30000
0094999999999991992010100004+35800-030000FM-13+9999UUDJ V0201401N011019999999N0200001N9+01811+99999103911ADDAG12000GA1091+999999999GF109991091999999999999999MD1410001+9999SA1+1809REMSYN01122253 00180
0094999999999991992010100004+45200-030600FM-13+9999C6J8 V0201801N009319999999N0260001N9+01601+01461102931ADDAG12000GA1091+999999999GF109991091091004501999999MD1110051+9999SA1+1579REMSYN01122223 00157
0094999999999991992010100004+72500+038100FM-13+9999EVID V0203601N015019999999N9999999N9+00301+99999098601ADDAG11000GA1091+999999999GF109991091999999999999999MD1710501+9999SA1+0309REMSYN01122241 00030
0094999999999991992010100004-30700+031100FM-13+9999C6KC V0200301N007719999999N0200001N9+02441+02231999999ADDAG12000GA1091+999999999GF109991091999999999999999MD1810011+9999SA1+2209REMSYN01122253 00220
0097999999999991992010100004+16800+040800FM-13+9999SHIP V0203401N00501220001CN0200001N9+02701+99999101001ADDAG11000GF103991999011999999001001MD1410001+9999SA1+2809REMSYN01122234 00280EQDQ01+000022SCOTLC
0096999999999991992010100004+61100+119600FM-13+9999USJM V0209991C00001220001CN0200001N9+02501+99999100171ADDAG12000GF100991001001999999001001MD1210621+9999SA1+2709UG1999990309REMSYN01722263 00270 30300
0097999999999991992010100004+00700+066800FM-13+9999GYSE V0209991V00311220001CN0200001N9+02681+02331101111ADDAG12000GF100991001001999999001001MD1410001+9999SA1+2819UA1M010059999REMSYN01722234 00281 20101
0097999999999991992010100004+04800+103900FM-13+9999UIGW V0200501N00801007501CN0200001N9+02601+99999101331ADDAG12000GF105991051021008001061001MD1310101+9999SA1+3009UA1M050159999REMSYN01722233 00300 20503
0097999999999991992010100004+06400+077400FM-13+9999PFRU V0201401N00461220001CN0200001N9+02641+02121101041ADDAG12000GF102991011021004501041001MD1510001+9999SA1+2809UA1M020059999REMSYN01722263 00280 20201
0097999999999991992010100004+07100+077400FM-13+9999UIJP V0201901N00301220001CN0200001N9+02701+99999101291ADDAG12000GF101991011011008001001001MD1710051+9999SA1+2309UA1M010059999REMSYN01722263 00230 20101
0097999999999991992010100004+11400-060200FM-13+9999GWAP V0200901N01031220001CN0200001N9+02661+02401101281ADDAG12000GF104991999999999999999999MD1310031+9999SA1+2609UA1M030159999REMSYN01722223 00260 20303
0097999999999991992010100004+12400+045200FM-13+9999GYSA V0200801N00461220001CN0200001N9+02461+02061101361ADDAG12000GF103991031011004501001001MD1610111+9999SA1+2589UA1M020059999REMSYN01722264 00258 20201
0097999999999991992010100004+16000-081000FM-13+9999PFEW V0200701N00671220001CN0200001N9+02621+02211101301ADDAG12000GF103991999999008001999999MD1210111+9999SA1+2659UA1M040159999REMSYN01722273 00265 20403
0097999999999991992010100004+22900+122300FM-13+9999UERT V0203101N00301220001CN0200001N9+02121+99999101831ADDAG12000GF103991999999012501999999MD1410001+9999SA1+2619UA1M990059999REMSYN01722243 00261 2//01
0097999999999991992010100004+25800-080500FM-13+9999GHWQ V0200401N001019999999N0200001N9+02161+01841101901ADDAG12000GF108991999999999999999999MD1310051+9999SA1+2539UA1M000009999REMSYN01722254 00253 20000
0097999999999991992010100004+27200+179500FM-13+9999UIFB V0201401N00601220001CN0200001N9+02201+99999101751ADDAG12000GF104991021071004501011001MD1410001+9999SA1+2209UA1M990059999REMSYN01722223 00220 2//01
0097999999999991992010100004+27200-016700FM-13+9999VSBS V0200401N00771220001CN0200001N9+01851+01221102841ADDAG12000GF102991021999999999999999MD1810011+9999SA1+1909UA1M030109999REMSYN01722253 00190 20302
0099999999999991992010100004+27500+034100FM-13+9999SHIP V0202901N01031220001CN0100001N9+01701+01291101841ADDAG12000GF102991999999999999999999SA1+2019REMSYN01122234 00201EQDQ01+000087APCTENQ02+009197APC3  
0097999999999991992010100004+37900-162400FM-13+9999JKOW V0202401N01291006001CN0040001N9+01451+01371101301ADDAG12000GF108991081081002501999999MD1410001+9999SA1+1309UA1M050209999REMSYN01722224 00130 20504
0097999999999991992010100004+38000-010300FM-13+9999C6JO V0200501N00931220001CN0200001N9+01421+01001103371ADDAG12000GF100991001001999999001001MD1410001+9999SA1+1529UA1M020159999REMSYN01722273 00152 20203
0097999999999991992010100004+38700-009700FM-13+9999GZOE V0200101N00721220001CN0200001N9+01361+00971103321ADDAG12000GF100991001001999999001001MD1410001+9999SA1+1559UA1M030159999REMSYN01722283 00155 20303
0097999999999991992010100004+39200-011700FM-13+9999MMVU V0200201N005719999999N0200001N9+01491+00571103441ADDAG12000GF108991999999008001999999MD1410001+9999SA1+1529UA1M040109999REMSYN01722284 00152 20402
0097999999999991992010100004+42800+132700FM-13+9999ULPH V0209991C00001220001CN0200001N9-00201+99999102241ADDAG12000GF100991001001999999001001MD1410001+9999SA1+0509UA1M000009999REMSYN01722200 00050 20000
0097999999999991992010100004+45400+145400FM-13+9999EWDR V0203201N01001220001CN0200001N9-00241+99999101471ADDAG11000GF104991041021004501001001MD1410001+9999SA1+0309UA1M040109999REMSYN01722272 00030 20402
0097999999999991992010100004+45500+145400FM-13+9999EWDR V0203201N01001220001CN0200001N9-00241+99999101471ADDAG12000GF104991041021004501001001MD1410001+9999SA1+0309UA1M040109999REMSYN01722272 00030 20402
0097999999999991992010100004+46900+146600FM-13+9999EUDS V0203501N01001012001CN0200001N9-00401+99999101491ADDAG12000GF108991081081008001999999MD1410001+9999SA1+2009UA1M050209999REMSYN01722212 00200 20504
0097999999999991992010100004+48500+103900FM-13+9999UIGW V0200501N00801007501CN0200001N9+02601+99999101331ADDAG12000GF105991051021008001061001MD1310101+9999SA1+3009UA1M050159999REMSYN01722233 00300 20503
0097999999999991992010100004+50600+156200FM-13+9999EWRK V0203301N01801001201CN0100001N9+00151+99999099291ADDAG12000GF108991081071001501999999MD1210401+9999SA1+0159UA1M060209999REMSYN01722200 00015 20604
0097999999999991992010100004+50700+000900FM-13+9999FNGH V0202301N01031220001CN0200001N9+00871+00631103301ADDAG12000GF103991031041002501001001MD1210051+9999SA1+0999UA1M030059999REMSYN01722253 00099 20301
0097999999999991992010100004+50800+157300FM-13+9999UJTT V0203301N01301220001CN0200001N9+00101+99999099141ADDAG12000GF103991031041008001001001MD1210511+9999SA1+0409UA1M060159999REMSYN01722253 00040 20603
0097999999999991992010100004+54300+161100FM-13+9999UNWB V0203301N00501030001CN0200001N9-00201+99999098981ADDAG12000GF106991031081012501031001MD1210101+9999SA1+0209UA1M030109999REMSYN01722221 00020 20302
0097999999999991992010100004+54300+161700FM-13+9999SHIP V0203301N005019999999N9999999N9-00201+99999999999ADDAG12000GF106991031081999999031001MD1210101+9999SA1+0209UA1M030109999REMSYN01722221 00020 20302
0097999999999991992010100004+54800+162800FM-13+9999UJK  V0203001N00701220001CN0200001N9-00141+99999099041ADDAG12000GF103991031021008001001001MD1210101+9999SA1+0149UA1M040159999REMSYN01722200 00014 20403
0097999999999991992010100004+55200+154000FM-13+9999ESKL V0203501N002019999999N0200001N9+00621+99999099391ADDAG12000GF107991999999012501999999MD1410001+9999SA1+0109UA1M999999999REMSYN01722200 00010 299//
0097999999999991992010100004+56000+162000FM-13+9999UFJH V0200201N00601007501CN0200001N9-00501+99999099901ADDAG12000GF108991081051008001999999MD1410001+9999SA1+0189UA1M030109999REMSYN01722200 00018 20302
0097999999999991992010100004+65400+145400FM-13+9999EWDR V0203201N01001220001CN0200001N9-00241+99999101471ADDAG12000GF104991041021004501001001MD1410001+9999SA1+0309UA1M040109999REMSYN01722272 00030 20402
0097999999999991992010100004-00800+060800FM-13+9999PGDT V0203601N00511220001CN0200001N9+02681+02311101101ADDAG12000GF102991021011004501001001MD1610081+9999SA1+2709UA1M030109999REMSYN01722253 00270 20302
0097999999999991992010100004-04100-006500FM-13+9999FNIH V0201501N00821004201CN0200001N9+02451+02061101471ADDAG11000GF108991081051004501999999MD1110061+9999SA1+2509UA1M040209999REMSYN01722273 00250 20404
0097999999999991992010100004-07000+008200FM-13+9999PFZQ V0201801N003119999999N0200001N9+02501+01951101251ADDAG12000GF108991999999008001999999MD1710071+9999SA1+2509UA1M020059999REMSYN01722283 00250 20201
0097999999999991992010100004-07600-080700FM-13+9999VROR V0201501N00461220001CN0200001N9+02371+02151101111ADDAG12000GF103991021021008001999999MD1610101+9999SA1+2329UA1M020109999REMSYN01722234 00232 20202
0097999999999991992010100004-10600+071300FM-13+9999PGDL V0203201N00311220001CN0200001N9+02661+02371100981ADDAG12000GF102991021031002501001001MD1310031+9999SA1+2899UA1M010059999REMSYN01722254 00289 20101
0097999999999991992010100004-11900-007500FM-13+9999PDHZ V0201401N007719999999N0200001N9+02201+01811101581ADDAG12000GF107991999999999999999999MD1110061+9999SA1+2359UA1M040159999REMSYN01722233 00235 20403
0097999999999991992010100004-13900+120500FM-13+9999ZCAO V0202601N00821220001CN0200001N9+02801+02381101041ADDAG12000GF103991031011008001001001MD1310101+9999SA1+2969UA1M040209999REMSYN01722214 00296 20404
0097999999999991992010100004-19300+011600FM-13+9999UHZK V0201601N00501012001CN0100001N9+01951+99999101031ADDAG12000GF108991081011012501001001MD1410001+9999SA1+1809UA1M020109999REMSYN01722241 00180 20202
0097999999999991992010100004-38300+138800FM-13+9999S6EP V0201901N01801220001CN0100001N9+01501+01131101581ADDAG12000GF102991021011002501061001MD1110291+9999SA1+1609UA1M030159999REMSYN01722274 00160 20303
0097999999999991992010100004-52100-062900FM-13+9999UIMH V0202801N00401220001CN0200001N9+01001+99999102141ADDAG12000GF102991011999022501031011MD1210141+9999SA1+0909UA1M020059999REMSYN01722283 00090 20201
0097999999999991992010100004-56600-067700FM-13+9999EWAE V0209991C00001220001CN0200001N9+00111+99999101261ADDAG12000GF100991001001999999001001MD1210011+9999SA1+0709UA1M020059999REMSYN01722263 00070 20201
0100999999999991992010100004+00900-043900FM-13+9999SHIP V0201201N00671220001CN0750001N9+02601+02301101301ADDAG11000AY101061AY201061GF102991021011008001001001MD1210051+9999MW1021SA1+2709REMSYN01122274 00270
0100999999999991992010100004+04300-028900FM-13+9999PCVX V0201101N003619999999N0200001N9+02521+02471101311ADDAG12006AY121061AY281061GF107991999999999999999999MD1110051+9999MW1611SA1+2759REMSYN01122213 00275
0100999999999991992010100004+16700-060100FM-13+9999YJWM V0200701N00981220001CN0100001N9+02501+02301101701ADDAG12000AY111061AY211061GF103991021011004501999999MD1110101+9999MW1021SA1+2709REMSYN01122273 00270
0100999999999991992010100004+26800+124400FM-13+9999ELJE V0209999999999012001CN0100001N9+01751+01431102201ADDAG12000AY111061AY251061GF107991071071012501091081MD1110131+9999MW1501SA1+1659REMSYN01122233 00165
0100999999999991992010100004+37400+017000FM-13+9999LXVB V0200401N022619999999N0200001N9+01171+00541102661ADDAG12000AY111061AY211061GF106991999999999999999999MD1010201+9999MW1031SA1+1639REMSYN01122274 00163
0100999999999991992010100004+40500-023600FM-13+9999FNPH V0202001N006219999999N0200001N9+01601+01301103401ADDAG11000AY111061AY211061GF108991999999999999999999MD1710151+9999MW1021SA1+1649REMSYN01122254 00164
0100999999999991992010100004+42200-027900FM-13+9999VRIW V0201801N006219999999N0200001N9+01651+01501103311ADDAG11000AY111061AY211061GF105991031011008001999999MD1010031+9999MW1031SA1+1689REMSYN01122223 00168
0100999999999991992010100004+43300-039500FM-13+9999ZCKE V0202601N015419999999N0100001N9+01701+01701101511ADDAG12004AY161061AY221061GF108991081999004501999999MD1710301+9999MW1631SA1+2209REMSYN01122264 00220
0100999999999991992010100004+47600-041000FM-13+9999VRSI V0202201N011819999999N0100001N9+01411+01301100581ADDAG12002AY161061AY221061GF108991081999999999999999MD1710271+9999MW1621SA1+1509REMSYN01122263 00150
0100999999999991992010100004+54400+011100FM-13+9999DBAI V0202301N009319999999N0100001N9+00421+00241102681ADDAG12000AY121061AY221061GF108991081999999999999999MD1710341+9999MW1001SA1+0439REMSYN01122200 00043
0100999999999991992010100004+55700+015600FM-13+9999DDUU V0202401N015419999999N0200001N9+00351+00041102491ADDAG12000AY121061AY221061GF108991999999999999999999MD1710531+9999MW1021SA1+0389REMSYN01122213 00038
0100999999999991992010100004+72500+037800FM-13+9999UZTB V0201201N022019999999N9999999N9+99999+99999098531ADDAG11000AY111061AY211061GF108991999999999999999999MD1610501+9999MW1001SA1+0009REMSYN01122200 00000
0100999999999991992010100004-02900+086500FM-13+9999ZCKQ V0202901N00461000601CN0040001N9+02451+02301101291ADDAG12003AY151061AY221061GF108991061031000751071001MD1410001+9999MW1581SA1+2809REMSYN01122273 00280
0100999999999991992010100004-04200+147000FM-13+9999CHIE V0203001N01341004201CN0200001N9+02851+02521100941ADDAG12007AY181061AY221061GF108991081051004501999999MD1010031+9999MW1201SA1+2899REMSYN01122263 00289
0100999999999991992010100004-24000+161900FM-13+9999FNOM V0202901N00211220001CN0200001N9+02801+02251100901ADDAG12000AY101061AY201061GF104991041011008001031041MD1210101+9999MW1031SA1+2809REMSYN01122264 00280
0100999999999991992010100004+23600-016600FM-13+9999EVBY V0200501N004019999999N0200001N9+02231+99999102141ADDAG12000GA1091+999999999GF109991091999999999999999MD1710041+9999SA1+1959REMSYN01722252 00195 399//
0102999999999991992010100004+32400+029400FM-13+9999SHIP V0203301N01541220001CN0100001N9+01351+00201101381ADDAG11000GF103991999051004501001001MD1710051+9999UA1M090359999REMSYN01122274 20907EQDQ01+000022SCOTLC
0101999999999991992010100004+05700+078000FM-13+9999PGFE V0201101N00261220001CN0200001N9+02661+02201101181ADDAG12000GF101991011011008001001001MD1510021+9999SA1+2909UA1M010059999REMSYN02122214 00290 20101 ICE
0103999999999991992010100004+09200+101400FM-13+9999PLAT V0201001N01081105001CN0200001N9+02821+99999999999ADDAG12001AY121061AY221061GF108991021011004501001061MW1151UA1I040159999REMSYN02322200 10403 333   9/34/
0103999999999991992010100004+09300+066500FM-13+9999DZBV V0203401N00511012001CN0500001N9+02651+02081101101ADDAG12000GF107991071061012501021001MD1010001+9999SA1+2909UA1M040059999REMSYN02322264 00290 20401 30000
0103999999999991992010100004+19200-105100FM-13+9999ELMH V0203201N00671045001CN0200001N9+02741+02271101011ADDAG12000GF107991071001999999071021MD1810201+9999SA1+2769UA1M030109999REMSYN02322234 00276 20302 30000
0103999999999991992010100004+36600-002300FM-13+9999GDLS V0200301N00771220001CN0200001N9+01251+00741103281ADDAG12000GF101991011011004501001001MD1410001+9999SA1+1569UA1M010059999REMSYN02322222 00156 20101 399//
0101999999999991992010100004+43800-064500FM-13+9999DLEZ V0203301N01801220001CN0200001N9+00051-00301102881ADDAG12000GF100991001001999999001001MD1410001+9999SA1+0529UA1M020109999REMSYN02122253 00052 20202 ICE
0103999999999991992010100004-16600+096600FM-13+9999VNAE V0201101N00411220001CN0200001N9+02161+02031101491ADDAG12000GF103991011021004501091031MD1310011+9999SA1+2449UA1M020109999REMSYN02322273 00244 20202 399//
0107999999999991992010100004+18700-075500FM-13+9999Y5EH V0209991V00201220001CN0200001N9+02651+02161101251ADDAG12000GF102991021999999999999999MD1210051+9999UA1M990059999UG1990101209REMSYN02322263 2//01 312// 4//02
0107999999999991992010100004+19800-065400FM-13+9999PJKH V0200801N00621220001CN0100001N9+02571+02251101801ADDAG12000GF104991031031004501021001MD1110151+9999UA1M020059999UG1050159999REMSYN02322214 20201 399// 40503
0105999999999991992010100004+31000+133100FM-13+99999VYT V0200801N00361001201CN0100001N9+01401+01311102201ADDAG12000AY151061AY221061GF108991999071001501021999MD1310201+9999MW1511REMSYN00522215EQDQ01+000082SCOTLC
0107999999999991992010100004+39900-165500FM-13+99999VNW V0202701N01231002101CN0100001N9+01201+01101101101ADDAG11000GF108991081051002501999999MD1410001+9999UA1M060159999UG1060252309REMSYN02322225 20603 323// 40605
0105999999999991992010100004+42300-087000FM-13+9999WA46 V0201401N008219999999N0100001N9+00001+99999103191ADDAG11000AY121061AY221061GF107991999999999999999999MW1021SA1+0109UA1M010059999REMSYN017222// 0001/ 20101
0105999999999991992010100004+45700-085100FM-13+9999WRB4 V0201001N002119999999N0200001N9-00401+99999999999ADDAG11000AY121061AY221061GF106991999999999999999999MW1031SA1+0009UA1M990059999REMSYN017222// 0000/ 2//01
0107999999999991992010100004-34500+025600FM-13+9999C6KQ V0200701N00261012001CN0200001N9+02401+02201102021ADDAG12000GF108991081061012501999999MD1710101+9999UA1M010059999UG1100352309REMSYN02322264 20101 323// 41007
0107999999999991992010100004-38100+137100FM-13+9999PCPY V0201801N00461220001CN0200001N9+01851+01201101681ADDAG12000GF103991021021004501001011MD1110231+9999UA1M040109999UG1080151009REMSYN02322263 20402 310// 40803
0107999999999991992010100004-23100+152700FM-13+9999A8JW V0202701N00461007501CN0200001N9+02801+02361999999ADDAG12000GF106991051031008001031001SA1+2809UA1M010059999UG1040103009REMSYN02922273 00280 20101 330// 40402
0109999999999991992010100004-30800+010800FM-13+99993EGP V0201501N00931004201CN0200001N9+01801+01061102341ADDAG12000GF105991051011004501001001MD1410001+9999SA1+2109UA1M999999999REMSYN01122233 00210SYN012RJCT41  1822
0107999999999991992010100004-37800+136900FM-13+99999KIL V0201301N00511220001CN0200001N9+01501+99999101721ADDAG12000GF104991031031004501021999SA1+1609UA1M060109999UG1080151309REMSYN02922223 00160 20602 313// 40803
0111999999999991992010100004+18200-083300FM-13+9999DLDV V0200701N006719999999N0200001N9+02571+02041101401ADDAG11000AY111061AY211061MD1210021+9999MW1021SA1+2689UA1M040159999UG1999990909REMSYN02322233 00268 20403 309//
0113999999999991992010100004+15400+109900FM-13+9999ERET V0200101N00801045001CN0200001N9+02371+02131101681ADDAA106000091AG14000GF107991031021008001071001MD1310091+9999SA1+2469UG1070200109REMSYN02322213 00246 30100 40704
0109999999999991992010100004+28000-123200FM-13+9999DGZV V0201501N013919999999N0100001N9+01611+01401101331ADDAG12000AY121061AY221061GF108991071999002501999999MD1710201+9999MW1151UA1M040159999REMSYN01522254 20403 ICE
0113999999999991992010100004-66800+045700FM-13+9999URWW V0202201N00201220001CN0200001N9-00161-00651099431ADDAG12000GF100991001001999999001001MD1210261+9999SA1-0169WD199999062220719990209REMSYN02322241 01016 ICE   67995
0113999999999991992010100004-71000-017300FM-13+9999ZDLG V0201701N00411220001CN0200001N9-00221-00581099351ADDAG12000GF102991021051002501001001MD1410001+9999SA1-0139WD199075992220619990039REMSYN02322281 01013 ICE   46695
0113999999999991992010100004+00600-025000FM-13+9999UITO V0201401N009019999999N0200001N9+02821+99999101091ADDAG12000GA1091+999999999GF109991091999999999999999MD1210021+9999SA1+2809UA1M030059999REMSYN01722243 00280 20301
0113999999999991992010100004+01100-024200FM-13+9999UFXV V0201801N006019999999N0200001N9+02001+99999101681ADDAG12000GA1091+999999999GF109991091999999999999999MD1210051+9999SA1+2609UA1M030059999REMSYN01722242 00260 20301
0115999999999991992010100004+26000+133300FM-13+9999ELJO V0201501N00511007501CN0040001N9+01801+01601102201ADDAG12000GF106991061051008001041041MD1410001+9999SA1+2009UA1M030209999UG1999991409REMSYN02322233 00200 20304 314//
0113999999999991992010100004+43900-028700FM-13+9999UHCK V0201701N009019999999N0200001N9+01501+99999102961ADDAG12000GA1091+999999999GF109991091999999999999999MD1710101+9999SA1+0609UA1M040159999REMSYN01722223 00060 20403
0113999999999991992010100004+44000+148000FM-13+9999SHIP V0203001N012919999999N0040001N9-00351-00351101671ADDAG12000GF107991071999004501999999MD1111001+9999UA1M050109999UG1070159999REMSYN02922254 0/010 20502 31/// 40703
0115999999999991992010100004+54200+155800FM-13+9999UDOT V0200201N00301220001CN0200001N9-00841+99999096691ADDAG12000GF100991001001999999001001MD1210161+9999SA1+0489UA1M020059999UG1999993109REMSYN02322200 00048 20201 33100
0113999999999991992010100004+71000+038000FM-13+9999EUZW V0202001N01701002401CN0100001N9-00231+99999098281ADDAG12000GA1091+999999999GF109991091999999999999999MD1710421+9999SA1+0309UA1M080309999REMSYN01722241 00030 20806
0113999999999991992010100004+71100+023400FM-13+9999UKDC V0202101N012019999999N0200001N9+00601+99999097741ADDAG12000GA1091+999999999GF109991091999999999999999MD1710391+9999SA1+0509UA1M040109999REMSYN01722253 00050 20402
0113999999999991992010100004+72000+026900FM-13+9999UJLN V0202701N006019999999N0200001N9-00301+99999098201ADDAG12000GA1091+999999999GF109991091999004501999999MD1710501+9999SA1+0409UA1M040159999REMSYN01722261 00040 20403
0113999999999991992010100004+72000+027000FM-13+9999UJJS V0202301N008019999999N0200001N9+00201+99999097641ADDAG12000GA1091+999999999GF109991091999999999999999MD1710411+9999SA1+0419UA1M040159999REMSYN01722221 00041 20403
0113999999999991992010100004-17000+039800FM-13+9999USRS V0209991C000019999999N0200001N9+02851+99999101101ADDAG12000GA1091+999999999GF109991091999999999999999MD1710271+9999SA1+2909UA1M000009999REMSYN01722253 00290 20000
0115999999999991992010100004-39200+036600FM-13+9999GQHC V0200501N00821004201CN0100001N9+01971+01801101901ADDAG12000GF108991081051004501999999MD1110041+9999SA1+2239UA1M020159999UG1999992209REMSYN02322224 00223 20203 322//
0116999999999991992010100004+60300-032300FM-13+9999OXYL V0202501N02261002401CN0100001N9-00141-00401098621ADDAG12002AY181061AY281061GA1091+999999999GF109991091999999999999999MD1310101+9999MW1841SA1+0589REMSYN01122262 00058
0116999999999991992010100004+67700+011000FM-13+9999USRV V0202201N01001001201CN0020001N9+00301+99999099501ADDAG11000AY121061AY221061GA1091+999999999GF109991091999999999999999MD1410001+9999MW1021SA1+0609REMSYN01122213 00060
0116999999999991992010100004+35700+124900FM-13+9999UTEA V0201101N006019999999N0200001N9+00701+99999102401ADDAG12000GF107991999001017501011999MD1410001+9999SA1+1009UA1M030059999REMSYN01722243 00100 20301EQDQ01+000082SCOTLC
0116999999999991992010100004+40400+135100FM-13+9999UJGN V0203201N00701220001CN0200001N9+00341+99999102291ADDAG12000GF103991001001999999001021MD1310041+9999SA1+0269UA1M030059999REMSYN01722233 00026 20301EQDQ01+000922SCOLCB
0116999999999991992010100004+44000-145900FM-13+9999UZET V0203201N00701002101CN0100001N9-00141+99999101571ADDAG12001GF108991999071002501021001MD1210201+9999SA1+0409UA1M040109999REMSYN01722200 00040 20402EQDQ01+000082SCOTLC
0116999999999991992010100004+57500+124900FM-13+9999UTEA V0201101N006019999999N0200001N9+00701+99999102401ADDAG12000GF107991999011017501999999MD1410001+9999SA1+1009UA1M030059999REMSYN01722243 00100 20301EQDQ01+000002SCOTLC
0119999999999991992010100004+01600+147500FM-13+9999VRSB V0203501N00361045001CN0200001N9+02891+02401101031ADDAG12005AY181061AY221061GF107991011021004501071081MD1110101+9999MW1021SA1+2909UA1M010109999REMSYN01722235 00290 20102
0119999999999991992010100004+05400-001900FM-13+9999DCEH V0209991V00261220001CN0200001N9+02721+02461101201ADDAG11000AY101061AY201061GF100991001001999999001001MD1410001+9999MW1021SA1+2759UA1M010009999REMSYN01722223 00275 20100
0119999999999991992010100004+05900+084000FM-13+9999UTOK V0200601N00701220001CN0200001N9+02751+99999101311ADDAG11000AY101061AY201061GF103991031011008001001001MD1110091+9999MW1021SA1+2739UA1M990109999REMSYN01722263 00273 2//02
0119999999999991992010100004+18200+040000FM-13+9999GTON V0203401N00871002101CN0200001N9+02561+02221101371ADDAG11001AY111061AY211061GF108991081071002501999999MD1710131+9999MW1151SA1+2509UA1M040159999REMSYN01722235 00250 20403
0119999999999991992010100004+35900+021500FM-13+9999FNQB V0203501N01341220001CN0200001N9+01201+00001102161ADDAG11000AY111061AY211061GF104991031091002501999999MD1610041+9999MW1131SA1+1759UA1M990309999REMSYN01722233 00175 2//06
0119999999999991992010100004+37200-009200FM-13+9999VSBT V0200201N00621220001CN0200001N9+01401+00891103141ADDAG11000AY101061AY201061GF100991001001999999001001MD1810011+9999MW1021SA1+1589UA1M020159999REMSYN01722273 00158 20203
0119999999999991992010100004+37300+157800FM-13+9999ELKK V0203001N02061012001CN0100001N9+01001+00601101401ADDAG12001AY181061AY221061GF106991061091012501001001MD1410001+9999MW1151SA1+1809UA1M050509999REMSYN01722223 00180 20510
0119999999999991992010100004+38500-030600FM-13+9999UBCB V0201701N00801220001CN0200001N9+01801+99999103511ADDAG12000AY151061AY221061GF104991999999999999999999MD1410001+9999MW1101SA1+1309UA1M080209999REMSYN01722263 00130 20804
0119999999999991992010100004+41100-021600FM-13+9999FNPH V0202001N007019999999N0200001N9+01531+01471103701ADDAG11000AY111061AY211061GF108991081999004501999999MD1410001+9999MW1021SA1+1559UA1M030109999REMSYN01722254 00155 20302
0119999999999991992010100004+44900+145700FM-13+9999ULZH V0202901N01401007501CN0100001N9-00601+99999101841ADDAG12001AY171061AY271061GF108991071051008001021999MD1410001+9999MW1021SA1+0209UA1M060209999REMSYN01722272 00020 20604
0119999999999991992010100004+49700-005100FM-13+9999S6HG V0202201N00261007501CN0200001N9+01201+00921103351ADDAG11000AY121061AY221061GF108991081071008001999999MD1410001+9999MW1021SA1+1309UA1M030159999REMSYN01722223 00130 20303
0119999999999991992010100004+52900-167000FM-13+9999ZHFN V0202601N01541007501CN0200001N9+00471+00401097551ADDAG12001AY181061AY221061GF106991051051008001061001MD1210121+9999MW1031SA1+0469UA1M040309999REMSYN01722213 00046 20406
0119999999999991992010100004+59700-022300FM-13+9999OZJP V0202501N02061004201CN0100001N9+00301-00401099001ADDAG12001AY181061AY221061GF108991081071004501999999MD1110081+9999MW1881SA1+0959UA1M080609999REMSYN01722261 00095 20812
0121999999999991992010100004+69400+034300FM-13+9999UBAW V0202001N018019999999N0200001N9+00101+99999999999ADDAG12001AY171061AY211061GF105991999999000751999999MW1021SA1+0109REMSYN01122200 00010EQDQ01+000062APCTENQ02+000002APC3  
0119999999999991992010100004-14200+042500FM-13+9999ZDAQ V0202701N00311220001CN0200001N9+02671+02321101061ADDAG11001AY101061AY201061GF100991001001999999001001MD1710081+9999MW1131SA1+2759UA1M020059999REMSYN01722253 00275 20201
0119999999999991992010100004-33700+037600FM-13+9999UIEL V0200701N00901220001CN0200001N9+01911+99999101951ADDAG12000AY101061AY201061GF101991011011008001001001MD1410001+9999MW1011SA1+2309UA1M990159999REMSYN01722263 00230 2//03
0119999999999991992010100004-36500+174400FM-13+9999FNRW V0203001N00311036001CN0200001N9+02031+01631101001ADDAG11000AY101061AY211061GF106991031031004501061031MD1410001+9999MW1011SA1+1949UA1M040109999REMSYN01722283 00194 20402
0119999999999991992010100004-43800-177300FM-13+9999EKWG V0201601N01201002101CN0020001N9+01501+99999100011ADDAG12001AY151061AY221061GF108991081061002501999999MD1410001+9999MW1531SA1+1349UA1M060159999REMSYN01722281 00134 20603
0121999999999991992010100004+06100+079300FM-13+9999GOYF V0201101N00461220001CN0200001N9+02641+02231101251ADDAG12000GF102991021021004501001001MD1510041+9999SA1+2729UA1M020109999UG1080151809REMSYN02922265 00272 20202 318// 40803
0121999999999991992010100004+06500+076900FM-13+9999GQUY V0200901N00261220001CN0200001N9+02601+02231101231ADDAG12000GF101991011011004501001001MD1510001+9999SA1+3009UA1M010059999UG1050100409REMSYN02922265 00300 20101 304// 40502
0121999999999991992010100004+06700-131700FM-13+9999KGTE V0201301N00411002101CN0200001N9+03001+02701100651ADDAG12000GF107991051091002501081999MD1710151+9999SA1+2809UA1M030009999UG1070200509REMSYN02922223 00280 20300 305// 40704
0121999999999991992010100004+07400+146600FM-13+99993EBE V0200301N00821220001CN0100001N9+02801+02531100931ADDAG12000GF104991031021017501031031MD1110181+9999SA1+2809UA1M040059999UG1030059999REMSYN02922233 00280 20401 345// 40301
0121999999999991992010100004+08500+109100FM-13+9999VRSC V0200301N00931220001CN0200001N9+02601+02401101301ADDAG12005GF102991021011002501001011MD1210101+9999SA1+2809UA1M030159999UG1050250309REMSYN02922214 00280 20303 303// 40505
0121999999999991992010100004+10400+146000FM-13+99997JVR V0200401N01031220001CN0200001N9+02751+02451101191ADDAG12000GF103991031021002501031011MD1610131+9999SA1+2609UA1M040159999UG1070200409REMSYN02922233 00260 20403 304// 40704
0121999999999991992010100004+11400-043500FM-13+9999ZDBR V0200901N006219999999N0200001N9+02601+02571101531ADDAG12000GF105991031011008001999999MD1110131+9999SA1+2559UA1M040109999UG1050150909REMSYN02922234 00255 20402 309// 40503
0121999999999991992010100004+13800+114300FM-13+9999VSBU V0200601N00671007501CN0200001N9+02661+02281101571ADDAG12000GF107991071051008001001001MD1210141+9999SA1+2709UA1M030159999UG1060200309REMSYN02922214 00270 20303 303// 40604
0121999999999991992010100004+14700+119100FM-13+99999MUG V0201201N00361220001CN0200001N9+02701+02101101541ADDAG12000GF102991021011004501001001MD1410001+9999SA1+2709UA1M020059999UG1030101209REMSYN02922243 00270 20201 312// 40302
0121999999999991992010100004+15200+119300FM-13+99999MTS V0200701N00461220001CN0200001N9+02701+01961101761ADDAG12000GF102991021011004501031091MD1210101+9999SA1+2809UA1M030059999UG1050101009REMSYN02922284 00280 20301 310// 40502
0121999999999991992010100004+15400+041500FM-13+9999KLPN V0201501N00411220001CN0200001N9+02551+02201101301ADDAG12000GF100991001001999999001001MD1710031+9999SA1+2619UA1M030109999UG1080051409REMSYN02922274 00261 20302 314// 40801
0121999999999991992010100004+15600+129100FM-13+9999WDZB V0200601N01031220001CN0200001N9+02601+02201101711ADDAG12000GF102991021081004501999999MD1210251+9999SA1+2569UA1M050109999UG1070200609REMSYN02922284 00256 20502 306// 40704
0121999999999991992010100004+18100+124500FM-13+9999XVSB V0200901N00461220001CN0200001N9+02471+02011101911ADDAG12000GF101991011011004501999999MD1210181+9999SA1+2539UA1M030059999UG1050150609REMSYN02922282 00253 20301 306// 40503
0121999999999991992010100004+18800+129900FM-13+9999JFHA V0200601N00511220001CN0200001N9+02501+02001101921ADDAG12000GF103991031031004501091001MD1210221+9999SA1+2709UA1M030209999UG1060300609REMSYN02922283 00270 20304 306// 40606
0121999999999991992010100004+19500+120300FM-13+9999VPJM V0201201N01341220001CN0200001N9+02441+02171101781ADDAG12000GF101991011011008001001001MD1310151+9999SA1+2459UA1M050209999UG1070300809REMSYN02922213 00245 20504 308// 40706
0121999999999991992010100004+20700-143600FM-13+9999X    V0200301N01441004201CN0100001N9+02401+01551101541ADDAG12000GF105991051021004501001001MD1610111+9999SA1+2409UA1M040159999UG1080353409REMSYN02922264 00240 20403 334// 40807
0121999999999991992010100004+21500-070000FM-13+9999ELNC V0201001N00931220001CN0200001N9+02601+02301101701ADDAG12000GF100991001001999999001001MD1210101+9999SA1+2479UA1M030109999UG1040050409REMSYN02922234 00247 20302 304// 40401
0121999999999991992010100004+22300+130200FM-13+9999JQCU V0200701N00261220001CN0200001N9+02351+01831102051ADDAG12000GF102991021011004501001001MD1210151+9999SA1+2509UA1M040109999UG1050150609REMSYN02922213 00250 20402 306// 40503
0121999999999991992010100004+22400-152400FM-13+9999WHTU V0200701N01031036001CN0200001N9+02171+01701101831ADDAG12000GF106991021021004501041001MD1710071+9999SA1+2449UA1M040259999UG1080500309REMSYN02922263 00244 20405 303// 40810
0121999999999991992010100004+23300+137900FM-13+9999JLNO V0200701N00771220001CN0200001N9+02051+01581102261ADDAG12000GF102991021011004501041001MD1210101+9999SA1+2509UA1M020109999UG1070150709REMSYN02922233 00250 20202 307// 40703
0121999999999991992010100004+23300-048700FM-13+9999FZOP V0200201N00511220001CN0200001N9+02171+01471102011ADDAG12000GF103991999999999999999999MD1210061+9999SA1+2419UA1M010059999UG1060150409REMSYN02922212 00241 20101 30400 40603
0121999999999991992010100004+25800-114000FM-13+9999KIGR V0200501N00511220001CN0200001N9+01831+01701101651ADDAG12000GF101991001001999999001041MD1610181+9999SA1+1899UA1M020059999UG1050102909REMSYN02922233 00189 20201 329// 40502
0121999999999991992010100004+25900-016600FM-13+9999GXIC V0200601N00821220001CN0200001N9+01831+00951102721ADDAG12000GF101991011011004501001001MD1810031+9999SA1+2129UA1M010159999UG1040150809REMSYN02922244 00212 20103 308// 40403
0121999999999991992010100004+26800+152500FM-13+9999WLDK V0203501N01031007501CN0200001N9+01831+01301101141ADDAG12000GF105991051041008001999999MD1210251+9999SA1+2229UA1M040059999UG1100303309REMSYN02922224 00222 20401 333// 41006
0121999999999991992010100004+27300-115200FM-13+9999PGDJ V0200401N00101220001CN0500001N9+01961+01241101681ADDAG12000GF100991001001999999001001MD1410001+9999SA1+1909UA1M000009999UG1090303009REMSYN02922273 00190 20000 330// 40906
0121999999999991992010100004+27700+145800FM-13+9999JRKN V0203001N00311220001CN0200001N9+02001+01611102431ADDAG12000GF104991031021004501061001MD1210251+9999SA1+2409UA1M030059999UG1080253509REMSYN02922282 00240 20301 335// 40805
0121999999999991992010100004+28000-092700FM-13+9999WLDU V0203601N00821007501CN0200001N9+01611+01101102001ADDAG12000GF108991051071008001071021MD1310161+9999SA1+2069UA1M030109999UG1030103609REMSYN02922273 00206 20302 336// 40302
0121999999999991992010100004+28100-126000FM-13+9999VRIO V0201701N00771002101CN0040001N9+01801+01631100801ADDAG12012GF108991081091002501999999MD1810601+9999SA1+2009UA1M050209999UG1050201709REMSYN02922253 00200 20504 317// 40504
0121999999999991992010100004+28800+146700FM-13+9999PGHC V0202901N00261220001CN0200001N9+01801+00921102091ADDAG12000GF103991031021008001001001MD1010211+9999SA1+2159UA1M010059999UG1070253009REMSYN02922263 00215 20101 330// 40705
0121999999999991992010100004+29700-117500FM-13+9999GCCC V0203201N00261220001CN0200001N9+01681+01581101811ADDAG12000GF104991021011004501001041MD1610051+9999SA1+1679UA1M010059999UG1080253009REMSYN02922233 00167 20101 330// 40805
0121999999999991992010100004+30900+146900FM-13+9999UNVS V0200501N00501007501CN0200001N9+01701+99999102261ADDAG11000GF107991061091008001021001MD1210011+9999SA1+2109UA1M040209999UG1060403309REMSYN02922273 00210 20404 33300 40608
0121999999999991992010100004+31300+168700FM-13+9999JCEJ V0203301N01181036001CN0200001N9+01851+01201101591ADDAG12000GF105991041011002501041001MD1710071+9999SA1+2109UA1M060259999UG1100403109REMSYN02922224 00210 20605 331// 41008
0121999999999991992010100004+31400+153000FM-13+9999JEKN V0202801N00511220001CN0100001N9+01401+00851101281ADDAG12000GF104991041031002501001001MD1210161+9999SA1+2109UA1M020059999UG1100503209REMSYN02922263 00210 20201 332// 41010
0121999999999991992010100004+31500-118600FM-13+9999PGFO V0209991C00001220001CN0200001N9+01521+00931101891ADDAG12000GF104991021041002501001061MD1010051+9999SA1+1669UA1M000009999UG1100203109REMSYN02922274 00166 20000 331// 41004
0121999999999991992010100004+31500-118700FM-13+9999WEZP V0200801N00261036001CN0200001N9+01391+00901102001ADDAG12000GF106991041051008001011011MD1810101+9999SA1+1449UA1M010009999UG1100152909REMSYN02922273 00144 20100 329// 41003
0121999999999991992010100004+32100-151600FM-13+9999JQVV V0203401N01031004201CN0100001N9+01401+00851102051ADDAG12000GF106991051031004501031001MD1410001+9999SA1+2109UA1M040109999UG1090353409REMSYN02922263 00210 20402 334// 40907
0121999999999991992010100004+32800-155600FM-13+9999KACK V0202401N01081004201CN0200001N9+01781+01501102201ADDAG12000GF107991071051004501999999MD1710301+9999SA1+1789UA1M060309999UG1140403209REMSYN02922284 00178 20606 332// 41408
0121999999999991992010100004+33000+150000FM-13+99993EXH V0203601N00821012001CN0100001N9+01001+99999103101ADDAG12000GF106991051031012501091091MD1410001+9999SA1+1709UA1M060309999UG1100403609REMSYN02922224 00170 20606 336// 41008
0121999999999991992010100004+34200-072100FM-13+9999WZJE V0200101N015419999999N0100001N9+01501+01001102701ADDAG12000GF107991999999008001999999MD1210201+9999SA1+2119UA1M030159999UG1060300109REMSYN02922273 00211 20303 301// 40606
0121999999999991992010100004+34900+145900FM-13+9999JIAI V0200501N00511009001CN0040001N9+01051+00871102101ADDAG12000GF108991081081004501999999MD1210051+9999SA1+1909UA1M030059999UG1080203309REMSYN02922263 00190 20301 333// 40804
0121999999999991992010100004+34900+147800FM-13+9999ELKF V0203401N00821004201CN0100001N9+01101+00501101831ADDAG12000GF106991051021004501061061MD1210181+9999SA1+2009UA1M080259999UG1990503409REMSYN02922263 00200 20805 334// 41810
0121999999999991992010100004+36100+142000FM-13+9999YJZH V0203401N00411012001CN0040001N9+01101+00601102001ADDAG12000GF106991061081008001061999MD1410001+9999SA1+0009UA1M040109999UG1100150609REMSYN02922213 00000 20402 306// 41003
0121999999999991992010100004+36100+158400FM-13+99998JNP V0202801N01641002101CN0200001N9+01251+00781101151ADDAG12000GF106991051011002501081001MD1410001+9999SA1+1809UA1M040159999UG1090403109REMSYN02922224 00180 20403 331// 40908
0121999999999991992010100004+36200+149500FM-13+9999C6CE V0203001N01031220001CN0200001N9+01401+01201102001ADDAG11000GF104991041041004501061001MD1710051+9999SA1+1209UA1M030309999UG1040353009REMSYN02922223 00120 20306 330// 40407
0121999999999991992010100004+36400+166500FM-13+99998LXB V0202701N01441002101CN0200001N9+01151+00561101251ADDAG12000GF106991061051002501071999MD1210051+9999SA1+1609UA1M090259999UG1100352809REMSYN02922224 00160 20905 328// 41007
0121999999999991992010100004+36900+174300FM-13+9999KRJF V0202801N01391220001CN0200001N9+01331+00901101101ADDAG12000GF104991041021004501001001MD1010051+9999SA1+1679UA1M050209999UG1100452709REMSYN02922225 00167 20504 327// 41009
0121999999999991992010100004+38000+154900FM-13+9999WFLG V0203101N01541007501CN0200001N9+00721-00301101701ADDAG12000GF107991071021008001999999MD1210201+9999SA1+1179UA1M050259999UG1120503309REMSYN02922224 00117 20505 33300 41210
0121999999999991992010100004+38000-018700FM-13+9999VRKA V0200301N00461002101CN0200001N9+01461+01261103701ADDAG11000GF107991071031002501041001MD1410001+9999SA1+1509UA1M020109999UG1060200309REMSYN02922264 00150 20202 303// 40604
0121999999999991992010100004+39700+149600FM-13+9999ELFK V0203201N010319999999N0100001N9+00401+00201102001ADDAG12000GF106991031041017501999999MD1210101+9999SA1+1309UA1M050259999UG1040203209REMSYN02922224 00130 20505 332// 40404
0121999999999991992010100004+39900-071100FM-13+9999KFDV V0200401N00931220001CN0200001N9+00561+00301103651ADDAG12000GF102991021001999999041001MD1210251+9999SA1+1109UA1M030159999UG1050250309REMSYN02922264 00110 20303 303// 40505
0121999999999991992010100004+40500+156800FM-13+99998JGU V0203001N01491220001CN0200001N9+00301-00211101051ADDAG12000GF104991041021004501001001MD1210151+9999SA1+1209UA1M050359999UG1120603209REMSYN02922224 00120 20507 332// 41212
0121999999999991992010100004+43800-016400FM-13+9999KMJN V0209991V00101220001CN0200001N9+01401+01201103601ADDAG12000GF100991001001999999001001MD1210101+9999SA1+1459UA1M080109999UG1080102709REMSYN02922254 00145 20802 327// 40802
0121999999999991992010100004+44000-009000FM-13+9999GHZW V0200101N00361004201CN0200001N9+01281+00561103681ADDAG12000GF108991081051004501999999MD1310151+9999SA1+1409UA1M030059999UG1070103409REMSYN02922214 00140 20301 334// 40702
0121999999999991992010100004+45100-021000FM-13+9999C6DN V0202401N00151004201CN0200001N9+01281+00781103851ADDAG12000GF105991051051004501001001MD1410001+9999SA1+1379UA1M000009999UG1100252809REMSYN02922253 00137 20000 32899 41005
0121999999999991992010100004+45500-015500FM-13+9999C6CS V0209999999999004201CN0200001N9+01301+01201103401ADDAG12000GF108991081021004501999999MD1410001+9999SA1+1439UA1M000009999UG1070202709REMSYN02922253 00143 20000 327// 40704
0121999999999991992010100004+47500-162400FM-13+9999WEZM V0202601N01541220001CN0200001N9+00671+00201099241ADDAG12000GF104991021011002501071001MD1210101+9999SA1+0509UA1M090459999UG1080602509REMSYN02922224 00050 20909 325// 40812
0121999999999991992010100004+49300+173000FM-13+9999DZDA V0202601N01851002101CN0040001N9+00101-00301098351ADDAG11000GF107991071071002501091999MD1410001+9999SA1+0609UA1M100509999UG1100502609REMSYN02922213 00060 21010 326// 41010
0121999999999991992010100004+49800+145900FM-13+9999UHRS V0202901N00901007501CN0200001N9-00651+99999101101ADDAG12000GF105991051021008001001001MD1810151+9999SA1+0489UA1M040109999UG1080250209REMSYN02922283 00048 20402 30200 40805
0121999999999991992010100004+52300+160400FM-13+99997LHH V0203401N01181002101CN0100001N9+00001-00261098531ADDAG12000GF108991081051002501999999MD1210181+9999SA1+0009UA1M050159999UG1080350309REMSYN02922254 00000 20503 303// 40807
0121999999999991992010100004+54100-178900FM-13+9999DZRG V0202301N00931012001CN0100001N9+00301+00101096901ADDAG12000GF105991051041012501041081MD1110201+9999SA1+0409UA1M040109999UG1060152309REMSYN02922264 00040 20402 323// 40603
0121999999999991992010100004-01900-008200FM-13+9999VRMG V0201701N00771220001CN0200001N9+02481+02181101361ADDAG12000GF104991021999008001999999MD1110051+9999SA1+2519UA1M030209999UG1060101609REMSYN02922273 00251 20304 316// 40602
0121999999999991992010100004-05900-031700FM-13+9999C6IZ V0201301N00721220001CN0200001N9+02621+02261101321ADDAG11000GF103991021081008001071999MD1310101+9999SA1+2659UA1M020159999UG1080151209REMSYN02922253 00265 20203 312// 40803
0121999999999991992010100004-10300+117700FM-13+9999ELJF V0200401N00931220001CN0200001N9+02601+02181101321ADDAG12000GF103991031021002501031001MD1310101+9999SA1+2619UA1M040159999UG1080250409REMSYN02922283 00261 20403 304// 40805
0121999999999991992010100004-17700-170500FM-13+9999GTHZ V0201201N00461004201CN0200001N9+03001+02651100691ADDAG12000GF105991051041004501999999MD1610101+9999SA1+2759UA1M020059999UG1040201609REMSYN02922264 00275 20201 316// 40404
0121999999999991992010100004-21300+161200FM-13+9999FNZE V0200701N00261220001CN0200001N9+02761+02411101061ADDAG12000GF101991011011012501999999MD1410001+9999SA1+2719UA1M000009999UG1070051109REMSYN02922273 00271 20000 311// 40701
0121999999999991992010100004-23900+028800FM-13+9999ZDAQ V0202401N00261007501CN0200001N9+02381+99999101741ADDAG11000GF108991081011008001001001MD1810301+9999SA1+2509UA1M040159999UG1050501009REMSYN02922253 00250 20403 310// 40510
0121999999999991992010100004-28700+016200FM-13+9999ZTBI V0201401N00621220001CN0200001N9+01801+01461101841ADDAG11000GF100991001001999999001001MD1410001+9999SA1+1609UA1M000009999UG1100201809REMSYN02922200 00160 20000 318// 41004
0121999999999991992010100004-31900+000100FM-13+9999ZFFW V0202201N03651220001CN0200001N9+01921+01361102291ADDAG12000GF102991021011008001001001MD1710101+9999SA1+1959UA1M020109999UG1080302209REMSYN02922264 00195 20202 322// 40806
0121999999999991992010100004-35100+116200FM-13+9999GYZU V0201901N00771036001CN0200001N9+01711+01081101481ADDAG12000GF108991041081004501071081MD1210151+9999SA1+1909UA1M020109999UG1090302409REMSYN02922263 00190 20202 324// 40906
0121999999999991992010100004-38400+131300FM-13+9999VSBU V0200501N00621220001CN0200001N9+01581+01161101681ADDAG12000GF102991011001999999051081MD1110201+9999SA1+1699UA1M020109999UG1060300909REMSYN02922223 00169 20202 309// 40606
0121999999999991992010100004-49700-146400FM-13+9999GXEW V0203101N01031004201CN0200001N9+01221+00771101301ADDAG12000GF108991081051004501001001MD1810031+9999SA1+1249UA1M020109999UG1110502309REMSYN02922224 00124 20202 323// 41110
0121999999999991992010100004-52900+143900FM-13+9999SHIP V0203401N00621002101CN0200001N9+00801+00701101951ADDAG12000GF108991081051002501999999MD1110111+9999SA1+0549UA1M010059999UG1110202809REMSYN02922283 00054 20101 328// 41104
0121999999999991992010100004-65600+108500FM-13+9999DPIB V0201001N01031002101CN0020001N9+00091-00021098741ADDAG12001AY171061AY221061GF107991071071002501999999MD1210121+9999MW1221WD199095992220829999999REMSYN01722200 ICE   58/95
0124999999999991992010100004+53000+002100FM-13+9999GVXE V0202101N010319999999N0100001N9+00671+00441103031ADDAG12000AY121061AY221061GF108991999999999999999999MD1810141+9999MW1021SA1+0729UG1050202109REMSYN02322200 00072 321// 40504
0124999999999991992010100004-11000-175500FM-13+9999DNKL V0200901N00511045001CN0200001N9+02751+02341100601ADDAG12004AY181061AY221061GF105991031041017501091081MD1710051+9999MW1251SA1+2869UG1990100709REMSYN02322214 00286 307// 4//02
0125999999999991992010100004-15900-036100FM-13+9999GXEV V0200701N00671220001CN0200001N9+02691+02391101651ADDAG12003AY181061AY221061GF102991021011004501001001MD1210081+9999MW1021SA1+2739UA1M040209999REMSYN02322214 00273 20404 399//
0124999999999991992010100004-06200+109300FM-13+9999YEDI V0209999999999007501CN0100001N9+02701+99999101601ADDAG11000AY101061AY231061GF108991999021008001021011MW1001SA1+3009UA1M030059999REMSYN01722233 00300 20301EQDQ01+000082SCOTLC
0125999999999991992010100004+15900+138600FM-13+9999KRJG V0200501N01131220001CN0200001N9+02671+02301101781ADDAG12000GF102991021021002501001001MD1210181+9999SA1+2709UA1M030159999UG1080200309REMSYN03322265 00270 20303 303// 40804 ICE
0127999999999991992010100004-02100+105100FM-13+9999YEDJ V0203001N00261105001CN0100001N9+02501+02401101251ADDAG11000GF105991011051022501081061MD1110051+9999SA1+3109UA1M030059999UG1030053109REMSYN03522282 00310 20301 331// 40301 50000
0125999999999991992010100004-07300-029500FM-13+9999J8WJ V0201201N00411220001CN0040001N9+02601+02151101501ADDAG12000GF104991031011002501031081MD1610151+9999UA1M030159999UG1050251009UG2999991609REMSYN02922273 00/// 20303 31016 40505
0129999999999991992010100004+30700-137100FM-13+9999KCKB V0203501N01441007501CN0200001N9+01721+01001101321ADDAG11000AY121061AY221061GF106991061041008001041001MD1410001+9999MW1021UA1M040209999UG1110303309REMSYN02322253 20404 333// 41106
0129999999999991992010100004+33100+033000FM-13+9999SHIP V0202601N01851002101CN0040001N9+01251+00601101201ADDAG12003AY161061AY221061GF108991081071002501999999MD1410001+9999MW1611UA1M070159999UG1100302809REMSYN02322233 20703 328// 41006
0129999999999991992010100004+36500-158800FM-13+9999BKHF V0202401N01291004201CN0040001N9+01601+01301101801ADDAG11000AY121061AY221061GF108991081061004501999999MD1410001+9999MW1021UA1M060209999UG1050252809REMSYN02322214 20604 328// 40505
0129999999999991992010100004+42200-172800FM-13+9999KGJX V0201901N01031004201CN0200001N9+01221+00701100321ADDAG11000AY111061AY221061GF106991061011004501001001MD1710101+9999MW1021UA1M030109999UG1100352909REMSYN02322224 20302 329// 41007
0129999999999991992010100004+48000-133800FM-13+9999JPHS V0201801N00981004201CN0020001N9+00901+00491100551ADDAG12000AY121061AY221061GF108991999041004501011011MW1031SA1+1119UG1140451709REMSYN02322223 00111 317// 41409EQDQ01+000082SCOTLC
0129999999999991992010100004+48700+160100FM-13+9999GKJJ V0202601N00621220001CN0200001N9+00301-00501098931ADDAG11000AY101061AY211061GF103991031041008001071081MD1310711+9999MW1021UA1M060359999UG1070452709REMSYN02322252 20607 327// 40709
0129999999999991992010100004-25300+112900FM-13+9999VNWK V0202001N00671004201CN0200001N9+02101+01511101341ADDAG12000AY121061AY221061GF108991081021004501001001MD1110201+9999MW1021UA1M030059999UG1100102009REMSYN02322283 20301 320// 41002
0129999999999991992010100004-41300+174500FM-13+9999ZMBS V0201801N02061004201CN0200001N9+01301+99999100801ADDAG12000AY121061AY221061GF108991081061004501999999MD1210301+9999MW1021UA1M010109999UG1050201809REMSYN02322234 20102 318// 40504
0129999999999991992010100004+56200-140200FM-13+9999KSFK V0201501N02061002101CN0100001N9+00561+00301098401ADDAG12002AY151061AY251061GF108991081071002501999999MW1811SA1+0679UA1M040159999UG1080401409REMSYN02922233 00067 20403 314// 40808
0131999999999991992010100004+29200-165400FM-13+9999WHRN V0201901N00771004201CN0200001N9+02061+01401102201ADDAG12000GF107991071061004501999999MD1710221+9999MW1021SA1+2179UA1M020109999UG1100253509REMSYN03322265 00217 20202 335// 41005 ICE
0132999999999991992010100004+14000-018000FM-13+9999UDOB V0200201N009019999999N0200001N9+02451+99999101341ADDAG12000GA1091+999999999GF109991091999999999999999MD1210121+9999SA1+2749UA1M990109999REMSYN01722283 00274 2//02EQDQ01+000992SCOLCB
0134999999999991992010100004+25600-079900FM-13+9999WWDY V0201401N00411220001CN0200001N9+02161+01401101871ADDAG12000GF103991999001008001011001MD1510021+9999SA1+2889UA1M010109999UG1020109999REMSYN02322253 00288 20102 40202EQDQ01+000022SCOTLC
0133999999999991992010100004+37000-150700FM-13+9999SHIP V0202501N00931004201CN0040001N9+01501+01301101901ADDAG12000GF107991071051004501031051MD1410001+9999SA1+1609UA1M040109999UG1040102509UG2999992509REMSYN02922223 00160 20402 32525 40402
0133999999999991992010100004+40300-125600FM-13+9999SHIP V0209999999999220001CN0500001N9+01451+01101102001ADDAG12000GF100991001001999999001001MD1410001+9999SA1+1309UA1M050109999UG1100253009UG2999992009REMSYN02922274 00130 20502 33020 41005
0132999999999991992010100004+52600+160900FM-13+9999PGEC V0203601N01231004201CN0200001N9+00101-00301098711ADDAG12000GF108991081051004501999999MD1110311+9999SA1+0209UA1M060259999UG1130400309REMSYN04022253 00020 20605 303// 41308 ICE   BBXX
0133999999999991992010100004+12200-161200FM-13+9999DPUP V0200701N01541045001CN0200001N9+02621+02001101201ADDAG12000AY121061AY221061GF106991031081008001071001MD1810201+9999MW1011UA1M060209999UG1080350509REMSYN02722242 20604 305// 40807 ICE
0135999999999991992010100004+34200-060000FM-13+9999WHTW V0202901N01031004201CN0200001N9+02001+00151101651ADDAG11000AY121061GF106991061051004501999999MD1210201+9999MW1021SA1+1899UA1M050159999UG1090403109REMSYN02922264 00189 20503 331// 40908
0137999999999991992010100004+41600+172700FM-13+9999ELMR V0202801N00871012001CN0100001N9+00801+00401100321ADDAG11000AY141061AY291061GF105991051011012501041999MD1210051+9999MW1001SA1+1109UA1M030209999UG1999992909REMSYN02322223 00110 20304 329//
0135999999999991992010100004+65700+009000FM-13+9999UFYN V0202201N01701002401CN0100001N9+00681+99999098581ADDAG12001AY161061AY221061GA1091+999999999GF109991091999999999999999MD1710261+9999MW1601SA1+0409UA1M070309999REMSYN01722282 00040 20706
0135999999999991992010100004+69900+017200FM-13+9999URTY V0202101N02001001201CN0020001N9+00951+99999098021ADDAG12000AY151061AY221061GA1091+999999999GF109991091999999999999999MD1710801+9999MW1601SA1+0809UA1M100409999REMSYN01722213 00080 21008
0135999999999991992010100004+70200+033500FM-13+9999UYSC V0202401N01101002401CN0100001N9+00301+99999098671ADDAG12001AY171061AY271061GA1091+999999999GF109991091999999999999999MD1710481+9999MW1021SA1+0429UA1M040159999REMSYN01722281 00042 20403
0135999999999991992010100004+72300+026500FM-13+9999UZGC V0202701N01001002401CN0100001N9+00401+99999098541ADDAG12000AY121061AY261061GA1091+999999999GF109991091999999999999999MD1410001+9999MW1601SA1+0109UA1M070159999REMSYN01722251 00010 20703
0135999999999991992010100004-24500+107200FM-13+9999VMGW V0201701N00411002101CN0200001N9+02081+01671101671ADDAG12000AY121061GF107991071021002501999999MD1410001+9999MW1011SA1+2089UA1M040059999UG1070101609REMSYN02922271 00208 20401 316// 40702
0135999999999991992010100004-46100+165600FM-13+9999ZMUR V0201501N01541220001CN0200001N9+01151+00711101261ADDAG12000AY111061AY201061GF103991021011004501071001MD1210081+9999MW1021UA1M050309999UG1070401609REMSYN02922232 00/// 20506 316// 40708
0139999999999991992010100004+13300-095500FM-13+9999NLWA V0200601N00311220001CN0200001N9+02561+02301100981ADDAG12000GF100991001001999999001001MD1210071+9999SA1+2679UA1M020059999UG1040153509UG2020100209REMSYN03522275 00267 20201 33502 40403 50202
0139999999999991992010100004+43600-134500FM-13+9999ELCN V0202001N01131007501CN0200001N9+01301+00901100951ADDAG12000GF106991061041008001051041MD1510051+9999SA1+1309UA1M050259999UG1060302009UG2050252009REMSYN03522252 00130 20505 32020 40606 50505
0139999999999991992010100004+54400-168000FM-13+9999JKLS V0202101N01081004201CN0200001N9+00451+00231097151ADDAG12000GF107991061041004501041999MD1210041+9999SA1+0409UA1M040159999UG1070200609UG2060152109REMSYN03522265 0004/ 20403 30621 40704 50603
0137999999999991992010100004+74500+019000FM-13+9999EWVT V0201201N01001002401CN0100001N9-00201+99999098921ADDAG12000GA1091+999999999GF109991091999999999999999MD1210301+9999SA1+0119UA1M050209999UG1060251709REMSYN02922281 00011 20504 31700 40605
0139999999999991992010100004-43900+166700FM-13+9999GBBM V0201801N01031220001CN0100001N9+01701+01201100721ADDAG12000GF104991041011012501011011MD1310201+9999SA1+1509UA1M050209999UG1060251909UG2040152009REMSYN03522233 00150 20504 31920 40605 50403
0138999999999991992010100004+05700+096400FM-13+9999VRRT V0209991V00151002101CN0200001N9+02421+02331101141ADDAG12007AY161061AY251061GF108991999021002501071999MD1510101+9999MW1531SA1+2909UA1M120059999REMSYN01722224 00290 21201EQDQ01+000082SCOTLC
0138999999999991992010100004+28700+133200FM-13+9999VNVS V0201701N00931004201CN0200001N9+01751+01111102241ADDAG12000AY151061AY221061GF108991999071004501021001MD1410001+9999MW1501SA1+2249UA1M020059999REMSYN01722254 00224 20201EQDQ01+000082SCOTLC
0138999999999991992010100004+44100+145900FM-13+9999UZET V0203201N00701002101CN0100001N9-00141+99999101571ADDAG12001AY171061AY221061GF108991999071002501021001MD1210201+9999MW1701SA1+0409UA1M040109999REMSYN01722200 00040 20402EQDQ01+000082SCOTLC
0140999999999991992010100004+25000+166000FM-13+99993EOD V0200301N01231004201CN0040001N9+02201+01981101701ADDAG12000GF108991999071004501001001MD1310031+9999SA1+2209UA1M100409999UG1120503209REMSYN02922224 00220 21008 332// 41210EQDQ01+000072SCOTLC
0140999999999991992010100004+35200+146000FM-13+9999SHIP V0203301N00821007501CN0100001N9+01101+00261102151ADDAG12000GF108991999011008001021001MD1010051+9999SA1+2169UA1M050759999UG1080250109REMSYN02922214 00216 20515 301// 40805EQDQ01+000082SCOTLC
0140999999999991992010100004+49000-016500FM-13+9999MMKJ V0202201N01031220001CN0100001N9+01201+01011103201ADDAG11000GF103991999021004501001001MD1810201+9999SA1+1109UA1M020109999UG1030152209REMSYN02922264 00110 20202 322// 40303EQDQ01+000022SCOTLC
0143999999999991992010100004+39800+168600FM-13+99993EQS V0202901N01751000601CN0010001N9+00601+00401100201ADDAG12000GA1091+999999999GF109991091071004501021999MD1410001+9999SA1+1309UA1M030659999UG1999992809UG2999992909REMSYN02322223 00130 20313 32829
0144999999999991992010100004+36500-062000FM-13+9999C6KP V0200101N012919999999N0100001N9+01401+00941102131ADDAG12001AY121061AY221061GF107991999071004501999999MD1110381+9999MW1621SA1+1639UA1M040209999REMSYN02322213 00163 20404 399//EQDQ01+000082SCOTLC
0142999999999991992010100004+65800+001700FM-13+9999LDWR V0202301N01441002101CN0100001N9+00391+00021097851ADDAG12001AY181061AY221061GF108991081091002501999999MD1810411+9999MW1871OA159902781SA1+0779UA1I110459999REMSYN02922200 00077 11109 555   0/454
0142999999999991992010100004-29300+167000FM-13+9999PGDZ V0209991C00001220001CN0500001N9+02401+01641100991ADDAG12000GF103991021011002501999031SA1+2329UA1M000009999UG1050101809REMSYN02922234 00232 20000 318// 40502EQDQ01+000082APCTENQ02+000002APC3  
0143999999999991992010100004+05100+107000FM-13+9999WGMJ V0200201N00671220001CN0200001N9+02501+02401101551ADDAG12015AY191061AY291061GF103991031031002501011091MD1210351+9999MW1011SA1+2709UA1M040159999UG1100250209REMSYN02922254 00270 20403 302// 41005
0143999999999991992010100004+05600+148000FM-13+9999VJDK V0200301N01701220001CN0200001N9+02901+02481101011ADDAG12000AY101061AY201061GF103991031011008001001001MD1810051+9999MW1021SA1+2819UA1M050109999UG1080150109REMSYN02922273 00281 20502 301// 40803
0143999999999991992010100004+07700-079800FM-13+9999GBRP V0203501N00461220001CN0200001N9+02741+02301100941ADDAG11000AY101061AY201061GF102991021001008001041001MD1410001+9999MW1031SA1+2579UA1M010059999UG1030103509REMSYN02922244 00257 20101 335// 40302
0143999999999991992010100004+09400-083500FM-13+9999CLFR V0203501N01001220001CN0200001N9+02691+02201101091ADDAG11000AY101061AY201061GF104991041011008001011001MD1510031+9999MW1031SA1+2899UA1M020059999UG1020103209REMSYN02922273 00289 20201 332// 40202
0143999999999991992010100004+09600+137800FM-13+9999VJDP V0201401N00931045001CN0200001N9+02801+02361101371ADDAG11000AY121061AY221061GF105991031091004501071001MD1110151+9999MW1011SA1+2709UA1M030109999UG1100250209REMSYN02922283 00270 20302 302// 41005
0143999999999991992010100004+11300-082500FM-13+9999C6YE V0200501N00931007501CN0100001N9+02681+02381101171ADDAG12002AY181061AY221061GF107991071041008001999999MD1310031+9999MW1021SA1+2709UA1M040109999UG1090200509REMSYN02922284 00270 20402 305// 40904
0143999999999991992010100004+12500-113100FM-13+9999GDXP V0200701N00511220001CN0200001N9+02651+02391100831ADDAG12003AY181061AY211061GF104991031031004501071999MD1610171+9999MW1151SA1+2749UA1M030059999UG1990209999REMSYN02922264 00274 20301 399// 4//04
0143999999999991992010100004+16400+110600FM-13+99993EHO V0200301N01081002101CN0200001N9+02501+02361101781ADDAG12000AY121061AY221061GF108991081091002501999999MD1310011+9999MW1021SA1+2359UA1M030159999UG1030150309REMSYN02922283 00235 20303 303// 40303
0143999999999991992010100004+22300-094300FM-13+9999DILS V0201001N01341004201CN0100001N9+02301+02091101381ADDAG12002AY181061AY221061GF108991081041004501001001MD1410001+9999MW1021SA1+2399UA1M040209999UG1050251009REMSYN02922223 00239 20404 310// 40505
0143999999999991992010100004+23300-072700FM-13+9999GYYP V0201101N00511036001CN0200001N9+02451+02201101721ADDAG12003AY161061AY211061GF106991041021004501041021MD1410001+9999MW1801SA1+2709UA1M020109999UG1070200909REMSYN02922274 00270 20202 309// 40704
0143999999999991992010100004+23800+118500FM-13+9999GOYG V0200501N01081002101CN0040001N9+01581+01511101921ADDAG12002AY121061AY221061GF108991081071002501999999MD1310151+9999MW1611SA1+1609UA1M040209999UG1050150609REMSYN02922215 00160 20404 306// 40503
0143999999999991992010100004+25200-086000FM-13+9999BKFS V0200701N01131000601CN0100001N9+02101+02001102101ADDAG11000AY121061AY221061GF108991081051000751001001MD1410001+9999MW1021SA1+2009UA1M030159999UG1070102809REMSYN02922263 00200 20303 328// 40702
0143999999999991992010100004+25900-178600FM-13+9999SHIP V0209999999999220001CN0200001N9+02351+01901101831ADDAG11000AY121061AY221061GF103991031041012501999999MD1610151+9999MW1021SA1+2459UA1M050159999UG1090301109REMSYN02922264 00245 20503 311// 40906
0143999999999991992010100004+26500-076600FM-13+9999SHIP V0200901N01081036001CN0100001N9+02251+01961101851ADDAG11000AY111061AY201061GF106991041031008001071051MD1110051+9999MW1031SA1+2559UA1M020109999UG1050200809REMSYN02922234 00255 20202 308// 40504
0143999999999991992010100004+27500-126000FM-13+99993EBB V0201501N01131001201CN0005001N9+01801+01651999999ADDAG12004AY121061AY261061GF108991071071001501021999MD1410001+9999MW1641SA1+1909UA1M050459999UG1060601609REMSYN02922223 00190 20509 316// 40612
0143999999999991992010100004+29500+124800FM-13+9999ZDBE V0203501N01131007501CN0100001N9+01451+00701102301ADDAG11000AY121061AY221061GF108991081071008001001001MD1110101+9999MW1021SA1+1859UA1M040109999UG1050153309REMSYN02922213 00185 20402 333// 40503
0143999999999991992010100004+30200-027200FM-13+9999NNXX V0201101N01541220001CN0100001N9+01801+01561102831ADDAG12000AY101061AY201061GF101991011011012501999999MD1410001+9999MW1021SA1+2009UA1M020059999UG1050251209REMSYN02922222 00200 20201 312// 40505
0143999999999991992010100004+30600+134200FM-13+9999JADC V0201801N008219999999N0040001N9+01651+01051102251ADDAG12001AY121061AY261061GF108991999999999999999999MD1710051+9999MW1211SA1+2309UA1M030059999UG1060101909REMSYN02922243 00230 20301 319// 40602
0143999999999991992010100004+31700+178000FM-13+9999ELJQ V0202801N00721001201CN0040001N9+01801+01651101331ADDAG12002AY151061AY221061GF108991081071001501999999MD1410001+9999MW1611SA1+1909UA1M040159999UG1090452809REMSYN02922263 00190 20403 328// 40909
0143999999999991992010100004+32000+179500FM-13+9999D5HD V0202501N00361002101CN0040001N9+01761+01661101341ADDAG12000AY151061AY221061GF108991081061002501001001MD1410001+9999MW1501SA1+1729UA1M020059999UG1070202409REMSYN02922263 00172 20201 324// 40704
0143999999999991992010100004+32600+143300FM-13+9999JMLP V0202901N00621220001CN0200001N9+01601+00891102151ADDAG12000AY101061AY201061GF102991021999012501021999MD1410001+9999MW1021SA1+1909UA1M020059999UG1100202909REMSYN02922224 00190 20201 329// 41004
0143999999999991992010100004+32900-072000FM-13+9999C6JY V0200501N01541004201CN0100001N9+01621+01101102461ADDAG12002AY181061AY221061GF108991081071004501999999MD1210181+9999MW1151SA1+2049UA1M040309999UG1060500309REMSYN02922213 00204 20406 303// 40610
0143999999999991992010100004+34300-012900FM-13+9999Y5LG V0200301N00931220001CN0200001N9+01611+01001103201ADDAG11000AY111061AY211061GF103991031021004501999999MD1210101+9999MW1021SA1+1909UA1M060209999UG1120153609REMSYN02922283 00190 20604 336// 41203
0143999999999991992010100004+34800-043600FM-13+9999C6ID V0200901N00821220001CN0200001N9+01951+01611101691ADDAG11000AY101061AY211061GF102991021011004501001001MD1310121+9999MW1011SA1+1979UA1M020109999UG1050200909REMSYN02922214 00197 20202 309// 40504
0143999999999991992010100004+35500-013000FM-13+9999VSBZ V0200301N00821001201CN0200001N9+01651+00621103281ADDAG12002AY181061AY211061GF106991061031001501061001MD1110151+9999MW1801SA1+1759UA1M040159999UG1060200109REMSYN02922213 00175 20403 301// 40604
0143999999999991992010100004+36500-141300FM-13+9999KHRC V0203601N00771220001CN0200001N9+01891+01101101611ADDAG11000AY101061AY201061GF103991031021002501071071MD1710021+9999MW1021SA1+2009UA1M040109999UG1080253209REMSYN02922254 00200 20402 332// 40805
0143999999999991992010100004+36500-148000FM-13+9999WGJF V0202901N01131002101CN0200001N9+01751+01301101801ADDAG12000AY121061AY221061GF108991081041002501999999MD1410001+9999MW1601SA1+1509UA1M070259999UG1090403309REMSYN02922264 00150 20705 333// 40908
0143999999999991992010100004+37900+151400FM-13+99993ELW V0203101N01591004201CN0040001N9+00601+00401101801ADDAG12001AY171061AY221061GF108991081041004501999999MD1710101+9999MW1031SA1+1909UA1M040209999UG1060253109REMSYN02922223 00190 20404 331// 40605
0143999999999991992010100004+38900-178300FM-13+9999DLBD V0201901N012319999999N0040001N9+01301+01271100471ADDAG12002AY121061AY211061GF108991999999000751999999MD1710261+9999MW1811SA1+1239UA1M050209999UG1140352609REMSYN02922263 00123 20504 32699 41407
0143999999999991992010100004+40500-161300FM-13+9999DNHM V0202801N01081001201CN0020001N9+01271+01061101011ADDAG12002AY161061AY221061GF108991081061001501999999MD1710081+9999MW1611SA1+1109UA1M040159999UG1090252609REMSYN02922223 00110 20403 326// 40905
0143999999999991992010100004+44000+145800FM-13+9999ULQX V0209999999999007501CN0200001N9-00101+99999101891ADDAG12001AY171061AY221061GF107991071011008001001001MD1210081+9999MW1021SA1+0609UA1M990009999UG1090100509REMSYN02922200 00060 2//00 30500 40902
0143999999999991992010100004+45800+150700FM-13+9999ELJL V0203101N01441004201CN0040001N9-00401-00721999999ADDAG12001AY171061AY221061GF107991061071004501021051MD1210451+9999MW1711SA1+0109UA1M050209999UG1080453109REMSYN02922254 00010 20504 331// 40809
0145999999999991992010100004+45900+177500FM-13+9999KGJF V0202701N01391000301CN0005001N9+00221+00201099381ADDAG12002AY171061AY221061GA1091+999999999GF109991091999999999999999MD1010001+9999MW1861UA1M040159999UG1110452409REMSYN02322214 20403 324// 41109
0143999999999991992010100004+46600+159300FM-13+9999A8LL V0200501N013419999999N0002001N9-00101-00301099101ADDAG12000AY121061AY251061GF108991999999000751999999MD1310101+9999MW1261SA1+0709UA1M990259999UG1990202809REMSYN02922223 00070 21505 32800 41504
0143999999999991992010100004+48400+154500FM-13+9999SHIP V0203101N01491007501CN0040001N9+00201+00201099901ADDAG11000AY121061AY221061GF108991081061008001999999MD1210401+9999MW1031SA1+0409UA1M100609999UG1120703109REMSYN02922253 00040 21012 331// 41214
0143999999999991992010100004+51200-029500FM-13+9999SKUN V0201901N00671001201CN0040001N9+00851+00801101301ADDAG12000AY151061AY251061GF108991081071001501999999MD1610051+9999MW1511SA1+1129UA1M030159999UG1110452209REMSYN02922224 00112 20303 322// 41109
0143999999999991992010100004+51600+163100FM-13+99993EAP V0200801N01341012001CN0020001N9+00101+00101098101ADDAG12001AY161061AY281061GF108991061071012501081091MD1210501+9999MW1851SA1+1009UA1M090359999UG1130753409REMSYN02922262 00100 20907 334// 41315
0143999999999991992010100004+51600-156000FM-13+99998JGM V0202601N02311001201CN0020001N9+00501+00201097411ADDAG12001AY161061AY221061GF108991081071001501999999MD1210111+9999MW1601SA1+0509UA1M080409999UG1100502609REMSYN02922224 00050 20808 326// 41010
0143999999999991992010100004+53500-169900FM-13+9999JFLL V0202401N00621004201CN0200001N9+00451+00451097201ADDAG11000AY101061AY201061GF105991051041004501999999MD1210101+9999MW1021SA1+0409UA1M020109999UG1020202209REMSYN02922223 00040 20202 322// 40204
0143999999999991992010100004+54300-164800FM-13+9999D9SY V0202001N00821000601CN0100001N9+00501+00301097801ADDAG12000AY151061AY221061GF107991061071000751041051MD1410001+9999MW1021SA1+0209UA1M050109999UG1080151009REMSYN02922265 00020 20502 310// 40803
0143999999999991992010100004+57500+000500FM-13+9999GRHJ V0202201N023119999999N0200001N9+00841+00841100161ADDAG12000AY121061AY221061GF108991999999999999999999MD1710451+9999MW1021SA1+0889UA1M050259999UG1080352209REMSYN02922200 00088 20505 322// 40807
0143999999999991992010100004+57500+002000FM-13+9999GOMV V0202101N025719999999N0200001N9+00801+00451101051ADDAG12000AY151061AY211061GF108991081999999999999999MD1710401+9999MW1021SA1+0879UA1M060409999UG1060452009REMSYN02922241 00087 20608 32000 40609
0143999999999991992010100004-03400+153000FM-13+9999VRRY V0202401N01181004201CN0100001N9+02621+02371100961ADDAG12001AY121061AY221061GF108991061071004501021001MD1110151+9999MW1501SA1+2809UA1M020209999UG1060203109REMSYN02922284 00280 20204 331// 40604
0143999999999991992010100004-11900+125000FM-13+9999VJJJ V0202701N00671012001CN0500001N9+02951+02701101081ADDAG12000AY121061AY221061GF107991061021012501001081MD1210201+9999MW1001SA1+3009UA1M050109999UG1120052709REMSYN02922200 00300 20502 327// 41201
0143999999999991992010100004-15700-106800FM-13+9999LAKW V0200701N00511220001CN0200001N9+02451+01971101221ADDAG11000AY101061AY201061GF103991031021004501001001MD1610111+9999MW1011SA1+2489UA1M060109999UG1120200909REMSYN02922214 00248 20602 309// 41204
0143999999999991992010100004-27000-175300FM-13+9999FNIK V0200101N01291220001CN0100001N9+02601+02471101171ADDAG11000AY101061AY201061GF104991041031004501091001MD1010061+9999MW1021SA1+2419UA1M070159999UG1080200509REMSYN02922223 00241 20703 305// 40804
0143999999999991992010100004-31500+039400FM-13+9999ZBWE V0200601N00671220001CN0200001N9+02201+01881102001ADDAG11001AY111061AY211061GF103991021021008001061001MD1710041+9999MW1151SA1+2239UA1M020159999UG1040159999REMSYN02922263 00223 20203 399// 40403
0143999999999991992010100004+15900+143500FM-13+9999HPAN V0200501N01391009001CN0200001N9+02701+99999101551ADDAG12000GF107991071081004501031001MD1310051+9999SA1+0289UA1M040209999UG1070350209UG2050250909REMSYN03922223 00028 20404 30209 40707 50505 ICE
0148999999999991992010100004-35400+156400FM-13+9999ZMRX V0200701N004119999999N0200001N9+02001+01091101291ADDAG12000AY121061AY221061GF107991999001017501091081MD1410001+9999MW1021UA1M020059999UG1050201609REMSYN02322273 20201 316// 40504EQDQ01+000002SCOTLC
0147999999999991992010100004+17300+153100FM-13+9999YDLR V0200201N01031045001CN0200001N9+02651+02301101241ADDAG12000AY121061AY221061GF106991041021004501031001MD1610021+9999MW1021SA1+2709UA1M080209999UG1090250309REMSYN03322213 00270 20804 303// 40905 ICE
0147999999999991992010100004+37600-069900FM-13+9999KRPB V0200601N01031004201CN0200001N9+01111+00801103201ADDAG12000AY121061AY221061GF108991081061004501001001MD1210101+9999MW1021SA1+1819UA1M040209999UG1050250609REMSYN03322224 00181 20404 306// 40505 ICE
0149999999999991992010100004+44400-127400FM-13+9999GWFQ V0201801N01641002101CN0040001N9+01271+01101101471ADDAG12000AY151061AY221061GF108991081061002501999999MD1110081+9999MW1521SA1+1179UA1M040309999UG1999991509UG2999991809REMSYN02322232 00117 20406 31518
0147999999999991992010100004+44600-164000FM-13+9999WPGK V0202701N02061220001CN0200001N9+01001+00801100101ADDAG11000AY111061AY221061GF104991041061004501001001MD1410001+9999MW1021SA1+0949UA1M990209999UG1080252809REMSYN03322225 00094 21504 328// 40805 ICE
0147999999999991992010100004+53700-158100FM-13+9999WRYD V0203001N01701002101CN0100001N9+00251+00101096701ADDAG12003AY161061AY251061GF108991081061002501999999MD1210741+9999MW1811SA1+0419UA1M040259999UG1100602409REMSYN03322265 00041 20405 324// 41012 ICE
0147999999999991992010100004-13500+152400FM-13+9999VKAA V0202201N00671004201CN0500001N9+02901+02391100841ADDAG12001AY111061AY211061GF106991051021004501081011MD1410001+9999MW1251UA1M020109999UG1060201509UG2050202609REMSYN02922244 20202 31526 40604 50504
0147999999999991992010100004-18200-083500FM-13+9999WTES V0201401N00771220001CN0100001N9+02011+01901101321ADDAG11000AY101061AY201061GF101991011011004501011999MD1310011+9999MW1021SA1+2139UA1M010059999UG1040051409REMSYN03322233 00213 20101 314// 40401 ICE
0147999999999991992010100004-19600-116500FM-13+9999VMES V0202301N01131220001CN0200001N9+02651+02131100941ADDAG12000AY101061AY201061GF100991001001999999001001MD1310151+9999MW1021UA1M030109999UG1100152509UG2060302309REMSYN029222// 20302 32523 41003 50606
0147999999999991992010100004-39600+154500FM-13+9999DZMA V0200901N00771004201CN0200001N9+01701+01491101411ADDAG12001AY121061AY281061GF107991071051004501999999MD1210101+9999MW1161UA1M030109999UG1060151309UG2020109999REMSYN02922224 20302 31399 40603 50202
0148999999999991992010100004+22700+117600FM-13+9999UNXG V0200301N00901002101CN0020001N9+01751+99999101791ADDAG12000AY101061AY221061GF108991999051002501031999MD1410001+9999SA1+1909UA1M020059999REMSYN01722253 00190 20201EQDQ01+000082SCOTLCQ02+000222PRSWM1
0151999999999991992010100004+07400+170600FM-13+9999WTW9 V0200401N00771007501CN0100001N9+99999+99999100701ADDAG12002AY101061AY231061GF107991071011008001051999MD1410001+9999MW1161UA1M070159999UG1070250609UG2090150909REMSYN03322272 20703 30609 40705 50903 ICE
0153999999999991992010100004-36100+150300FM-13+9999VJBF V0200501N00931002101CN0200001N9+02051+01891100671ADDAG12003AY161061AY221061GF108991081051002501999999MD1410001+9999MW1211UA1M040159999UG1040200609UG2060200909REMSYN03522283 00/// 20403 30609 40404 50604
0155999999999991992010100004+50700+169900FM-13+99993EAG V0202401N02311000151CN0001001N9+00101+99999097401ADDAG12002GA1091+999999999GF109991091999999999999999MD1410001+9999SA1+0509UA1M120709999UG1140602409UG2120502309REMSYN03522251 00050 21214 32423 41412 51210
0156999999999991992010100004+30200-017200FM-13+9999LALZ V0200901N00771220001CN0200001N9+01781+01361103131ADDAG11000AY111061AY211061GF102991999081004501001001MD1410001+9999MW1011SA1+1949UA1M020159999UG1999990909REMSYN02322253 00194 20203 309/4EQDQ01+000012SCOTLC
0154999999999991992010100004+33600-146600FM-13+9999KNLO V0203101N01391002101CN0200001N9+01891+01601101761ADDAG11000AY121061GF108991999061002501071999MD1610201+9999MW1021SA1+1569UA1M020259999UG1070353209REMSYN02922215 00156 20205 332// 40707EQDQ01+000082SCOTLC
0155999999999991992010100004+29700+148300FM-13+9999A8YI V0202901N00931220001CN0200001N9+01301+01201102401ADDAG11000AY101061AY211061GF102991021999012501999999MD1410001+9999MW1071SA1+1909UA1M030159999UG1030153209UG2999993209REMSYN02922263 00190 20303 33232 40303
0155999999999991992010100004+44700-155500FM-13+99993EKL V0202501N00821036001CN0040001N9+01001+00801099501ADDAG11000AY111061AY211061GF106991041051017501081081MD1110101+9999MW1021SA1+1009UA1M080209999UG1060152509UG2999992309REMSYN02922223 00100 20804 32523 40603
0158999999999991992010100004+44500+148300FM-13+9999WEZD V0202901N00871004201CN0200001N9+00391-00501101321ADDAG12000AY121061AY271061GF107991071071004501999999MD1210321+9999MW1221SA1+0339UA1M050159999UG1090302909WA1104019REMSYN03522254 00033 20503 329// 40906 61041
0161999999999991992010100004+04900-148500FM-13+9999DJJH V0201201N00771220001CN0200001N9+02901+02251100611ADDAG11000AY111061AY211061GF104991041041008001999999MD1710211+9999MW1021SA1+2909UA1M030109999UG1080300509UG2050201109REMSYN03522224 00290 20302 30511 40806 50504
0161999999999991992010100004+34500-126100FM-13+9999DUFC V0202301N00671220001CN0040001N9+01551+01201101401ADDAG11000AY121061AY201061GF104991031031017501051081MD1610101+9999MW1011SA1+1509UA1M040159999UG1090300709UG2060200709REMSYN03522263 00150 20403 30707 40906 50604
0161999999999991992010100004+35500-129400FM-13+9999WLVD V0200901N014419999999N0100001N9+01671+01201100701ADDAG12001AY121061AY261061GF108991081001004501091001MD1210051+9999MW1801SA1+1619UA1M050159999UG1050202709UG2050100909REMSYN03522215 00161 20503 32709 40504 50502
0161999999999991992010100004+40600-128700FM-13+9999C6JF V0201301N01541004201CN0040001N9+01401+01021101781ADDAG12000AY121061AY221061GF107991071061004501091081MD1210201+9999MW1051SA1+1509UA1M100359999UG1100351309UG2080201809REMSYN03522284 00150 21007 31318 41007 50804
0159999999999991992010100004+42200+155100FM-13+9999D8ON V0203001N01291000601CN0010001N9+00301+00001101201ADDAG12000AY121061AY271061GA1091+999999999GF109991091999000251999999MD1210101+9999MW1231SA1+0709UA1M040309999UG1070603009REMSYN02922224 00070 20406 330// 40712
0161999999999991992010100004+44200+175800FM-13+9999KGJD V0202801N01751004201CN0200001N9+00511+00101099571ADDAG12001AY111061AY281061GF106991051091004501041041MD1110081+9999MW1741SA1+0509UA1M040159999UG1070452609UG2080302909REMSYN03522254 00050 20403 32629 40709 50806
0161999999999991992010100004+47300+153200FM-13+9999D9MG V0203301N01801004201CN0040001N9+00201-00101100601ADDAG12001AY171061AY271061GF107991061041004501021031MD1210301+9999MW1001SA1+0209UA1M991509999UG1050803109UG2060853209REMSYN03522253 00020 22030 33132 40516 50617
0159999999999991992010100004+47500+154500FM-13+9999UIWE V0203101N02101001201CN0020001N9-00101+99999100231ADDAG12002AY171061AY221061GA1091+999999999GF109991091999999999999999MD1510061+9999MW1721SA1+0009UA1M080359999UG1100603109REMSYN02922281 00000 20807 33100 41012
0159999999999991992010100004+48400+154800FM-13+99993ECM V0203201N01801002401CN0040001N9-00301-01101100101ADDAG12001AY171061AY271061GA1091+999999999GF109991091999999999999999MD1110501+9999MW1401SA1+0409UA1M080109999UG1101503209REMSYN02922253 00040 20802 332// 41030
0159999999999991992010100004+49000+164700FM-13+9999UVGN V0202601N01801000601CN0010001N9-00101+99999097951ADDAG12000AY121061AY271061GA1091+999999999GF109991091999999999999999MD1110101+9999MW1221SA1+0309UA1M080309999UG1990652709REMSYN02922252 00030 20806 32700 41713
0161999999999991992010100004+51400-144100FM-13+9999WUBV V0201401N01231004201CN0200001N9+00941+00501098481ADDAG11000AY121061AY261061GF107991061031004501041081MD1710471+9999MW1141SA1+0619UA1M050209999UG1080302509UG2050202709REMSYN03522274 00061 20504 32527 40806 50504
0159999999999991992010100004+52000+159400FM-13+9999H8QE V0203501N00571000601CN0010001N9+99999+99999098851ADDAG12002AY171061AY241061GA1091+999999999GF109991091999999999999999MD1110201+9999MW1681SA1+0209UA1M060259999UG1040200309REMSYN02922263 00020 20605 303// 40404
0161999999999991992010100004+61600+001300FM-13+9999GCDF V0201801N02571004201CN0200001N9+00751+00531099161ADDAG12002AY161061AY221061GF108991081071004501999999MD1710721+9999MW1611SA1+0869UA1M090459999UG1080351809UG2100452309REMSYN03522200 00086 20909 31823 40807 51009
0161999999999991992010100004-22600+176300FM-13+99993DRV V0200501N00571220001CN0200001N9+02651+02251100701ADDAG11000AY101061AY201061GF103991031011002501001021MD1310241+9999MW1011SA1+2909UA1M030109999UG1060200509UG2040151009REMSYN03522242 00290 20302 30510 40604 50403
0161999999999991992010100004-32100+167200FM-13+9999VREJ V0202101N00461036001CN0200001N9+01971+01031101031ADDAG12000AY111061AY211061GF106991021021004501071001MD1110051+9999MW1031SA1+2199UA1M040159999UG1090252109UG2060152509REMSYN03522273 00219 20403 32125 40905 50603
0159999999999991992010100004-57000+151300FM-13+9999WLBV V0203101N00771015001CN0200001N9+01391+00601101471ADDAG11000AY121061AY221061GA1091+999999999GF109991081051017501999999MD1710201+9999MW1031SA1+0669UA1M020109999UG1110302609REMSYN02922234 00066 20202 326// 41106
0159999999999991992010100004-60800+142300FM-13+9999FHZI V0203201N01081000301CN0005001N9+00421+00421100331ADDAG12000AY141061AY241061GA1091+999999999GF109991091999999999999999MD1710151+9999MW1431SA1+0309UA1M020109999UG1070203309REMSYN02922243 00030 20202 33300 40704
0162999999999991992010100004+22300+118900FM-13+9999ELAX V0200401N00511007501CN0100001N9+02251+02031102151ADDAG12000AY121061AY221061GF108991999061008001021001MD1510051+9999MW1101SA1+2409UA1M040209999UG1040300409REMSYN02922253 00240 20404 304// 40406EQDQ01+000082SCOTLC
0162999999999991992010100004+23300+122300FM-13+9999UJFV V0200301N00601002101CN0040001N9+02231+99999102031ADDAG12004AY161061AY261061GF108991999071002501021999MD1410001+9999MW1611SA1+2409UA1M030059999UG1050151209REMSYN02922253 00240 20301 31200 40503EQDQ01+000082SCOTLC
0162999999999991992010100004+26300+122300FM-13+9999UTRR V0200301N00901007501CN0100001N9+01701+99999102071ADDAG12002AY161061AY221061GF108991999051008001021001MD1410001+9999MW1021SA1+2109UA1M040109999UG1080250409REMSYN02922213 00210 20402 30400 40805EQDQ01+000082SCOTLC
0162999999999991992010100004+31400+175100FM-13+99993EAD V0202701N00571004201CN0100001N9+01901+01701101371ADDAG12000AY151061AY211061GF108991999031004501061999MD1310021+9999MW1501SA1+1809UA1M030109999UG1080402809REMSYN02922264 00180 20302 328// 40808EQDQ01+000082SCOTLC
0162999999999991992010100004+33100+134700FM-13+9999ELKM V0203301N00411002101CN0200001N9+01101+01101102251ADDAG12000AY111061AY211061GF108991999051002501021999MD1210101+9999MW1021SA1+1149UA1M020109999UG1010053209REMSYN02922223 00114 20202 332// 40101EQDQ01+000082SCOTLC
0162999999999991992010100004+39500-165600FM-13+99993EIQ V0202701N00821007501CN0040001N9+01251+01221101151ADDAG12000AY151061AY251061GF108991999071008001021999MD1710051+9999MW1511SA1+0959UA1M020209999UG1040202309REMSYN02922223 00095 20204 323// 40404EQDQ01+000082SCOTLC
0162999999999991992010100004+42300+163800FM-13+99997KFY V0203001N013419999999N0100001N9+00151+00031100101ADDAG12002AY171061AY221061GF107991999031022501001001MD1410001+9999MW1721SA1+0759UA1M060309999UG1090403009REMSYN02922224 00075 20606 330// 40908EQDQ01+000082SCOTLC
0162999999999991992010100004-01600+083800FM-13+9999OELT V0203401N00621002101CN0200001N9+02751+02401101281ADDAG12001AY151061AY201061GF108991999071002501071061MD1110101+9999MW1021SA1+2809UA1M030059999UG1050153409REMSYN02922213 00280 20301 334// 40503EQDQ01+000082SCOTLC
0162999999999991992010100004-36300+999999FM-13+99993EHF V0203301N00771220001CN0200001N9+02051+01601100241ADDAG12000AY111061AY201061GF102991999001004501021091MD1710051+9999MW1011SA1+1809UA1M040259999UG1090400109REMSYN02922263 00180 20405 301// 40908EQDQ01+000002SCOTLC
0164999999999991992010100004-11400-099300FM-13+9999DGNZ V0200901N00771220001CN0500001N9+02341+01731101121ADDAG11000AY101061AY201061GF100991001001999999001001MW1001SA1+2359UA1M040059999UG1060101009REMSYN02922214 00235 20401 310// 40602EQDQ01+000072APCTENQ02+000002APC3  
0170999999999991992010100004-38600+147500FM-13+9999DIIU V0200501N00671001201CN0100001N9+01901+99999100721ADDAG12002AY181061AY221061GF107991061061001501999999MA1999999101681MD1510021+9999MW1031SA1+1799UA1M030109999UG1080250909UG2999990509REMSYN02922264 00179 20302 30905 40805
0171999999999991992010100004+57300-022500FM-13+9999GACA V0202501N02061005401CN0100001N9+00461-00051100261ADDAG12001AY181061AY211061GA1061+005409089GF106991061021004501999999MD1110431+9999MW1251SA1+0879UA1M120609999UG1990852609REMSYN04122200 00087 21212 326// 41517 333   86818
0174999999999991992010100004+41600-148800FM-13+9999DUNP V0202701N01441004201CN0200001N9+01201+01201999999ADDAG12002AY161061AY261061GF108991999061004501011011MD1610561+9999MW1621SA1+0849UA1M990909999UG1990902709UG2999992809REMSYN02922252 00084 22218 32728 42218EQDQ01+000082SCOTLC
0174999999999991992010100004+50600+156100FM-13+9999ULOJ V0203201N02401004201CN0040001N9-00101+99999099601ADDAG11000AY121061AY221061GF108991999071004501011011MD1210301+9999MW1031SA1+0209UA1M040209999UG1080203209UG2999991109REMSYN02922200 00020 20404 33211 40804EQDQ01+000082SCOTLC
0180999999999991992010100004+21500+144600FM-13+9999JFYU V0200401N01441220001CN0100001N9+02401+01641101901ADDAG12000AY111061AY211061GF103991999011004501001001MD1210151+9999MW1021SA1+2709UA1M040159999UG1080309999UG2060200309REMSYN03522284 00270 20403 30003 40806 50604EQDQ01+000022SCOTLC
0195999999999991992010100004-63500+046000FM-13+9999UPUI V0201501N006019999999N0200001N9-00051-00391099261ADDAG12000GF105991999999999999999999SA1-0139UA1M020059999UG1080153309UG2070100209WD199015992120500000089REMSYN04722200 01013 20201 33302 40803 50702 ICE   25292EQDQ01+000022APCTENQ02+000002APC3  
0217999999999991992010100004-05100+119400FM-13+9999SHIP V0202701N00151030001CN0100001N9+02681+02321101201ADDAA106000091AG15002AY121061AY221061GA1021+005409089GA2031+030009039GF107991031081004501071011KA1999N+02541MD1999999+0021MW1151SA1+3069UA1M000009999REMSYN059222// 00306 20000 333   20254 56000 58002 79999 82818 83360
0010999999999991992010101004-16000+145800FM-13+9999AGRF V02099999999999999999N9999999N9+99999+99999999999ADDAG12999
0010999999999991992010101004-18300+147400FM-13+9999MYRF V0202901N004119999999N9999999N9+03001+99999101001ADDAG12999
0010999999999991992010101004-18800+147700FM-13+9999DVRF V0203501N003619999999N9999999N9+02961+99999101801ADDAG12999
0010999999999991992010101004-19200+146900FM-13+9999CLBY V0200101N001019999999N9999999N9+02821+99999999999ADDAG12999
0010999999999991992010101004-19300+147400FM-13+9999CBGR V0203501N005719999999N9999999N9+03071+99999100801ADDAG12999
0010999999999991992010101004-19800+149300FM-13+9999HRRF V0203201N002119999999N9999999N9+02831+99999100501ADDAG12999
0048999999999991992010101004-38600+148300FM-13+9999SHIP V0203301N001519999999N9999999N9+02051+01601100521ADDAG12999UG1080251009REMSYN01722200 310// 40805
0052999999999991992010101004+53500+010000FM-13+9999DBBC V0202401N005119999999N9999999N9+00351+00141102991ADDAG12999MD1710191+9999SA1+0449REMSYN01122200 00044
0085999999999991992010101004+54600+011000FM-13+9999DBFZ V02099999999999999999N0040001N9+00401+00331102731ADDAG12999MA1999999102511MD1710201+9999SA1+0519REMSYN029222// 00051 333   911// 912//
0094999999999991992010101004+40300+141100FM-13+9999UNHE V0202801N013019999999N0200001N9+00651+99999102591ADDAG12999GA1091+999999999GF109991091999999999999999MD1110051+9999SA1+0119REMSYN01122213 00011
0094999999999991992010101004+40300+142100FM-13+9999UNHE V0202801N013019999999N0200001N9+00651+99999102591ADDAG12999GA1091+999999999GF109991091999999999999999MD1110051+9999SA1+0119REMSYN01122213 00011
0097999999999991992010101004+59600+170700FM-13+9999UTTM V0200201N01401220001CN0200001N9-00801+99999098991ADDAG12999GF104991041011004501001001MD1210121+9999SA1+0109UA1M070209999REMSYN01722222 00010 20704
0118999999999991992010101004+06200+095300FM-13+9999SHIP V0200401N005019999999N0200001N9+02601+99999101611ADDAG12999GA1091+999999999GF109991091999999999999999MD1310201+9999SA1+2809UG1050100409REMSYN02322222 00280 30400 40502
0121999999999991992010101004+35300+011700FM-13+9999TSLH V0203501N00821220001CN0200001N9+01551+00821103101ADDAG11001AY101999AY201999GF104991021041012501041001MW1001SA1+1509REMSYN01122284 00150EQDQ01+000062APCTENQ02+000002APC3  
0119999999999991992010101004+65900+001700FM-13+9999LDWR V0202201N01231002101CN0100001N9+00461-00071097531ADDAG12999AY181999AY221999GF108991081091002501999999MD1810611+9999MW1271SA1+0779UA1I110509999REMSYN01722200 00077 11110
0126999999999991992010101004+67700+041300FM-13+9999URWL V0203401N001019999999N0200001N9+00321+99999101051ADDAG11999AY101999AY201999MD1710301+9999MW1021SA1-0259UA1M060209999WA1900009REMSYN04122282 01025 20604 30000 40000 50000 60000
0129999999999991992010101004-25800+112400FM-13+9999VNXC V0201801N00621012001CN0200001N9+02061+01591101401ADDAG11999AY121999AY221999GF108991081051012501001001MD1110201+9999MW1021UA1M020059999UG1050151909REMSYN02322273 20201 31900 40503
0137999999999991992010101004+19600-073700FM-13+9999NRUN V0209999999999220001CN0100001N9+02961+02701101601ADDAG11999AY101999AY201999GF102991021999002501041999MD1410001+9999MW1021SA1+3019UA1M990009999REMSYN03522271 00301 2//00 300// 4//00 50000
0140999999999991992010101004+37900+141500FM-13+9999UNXE V0202201N008019999999N0200001N9+01311+99999102571ADDAG12999GF106991041041999999041021MD1410001+9999SA1+1809UA1M040109999UG1060102309REMSYN02922213 00180 20402 32300 40602EQDQ01+000992SCOLCB
0140999999999991992010101004+55800+148500FM-13+9999DULV V0200701N01901012001CN0260001N9+00401+00201096651ADDAG12999GF108991999051012501021999MD1610301+9999SA1+0709UA1M060159999UG1070100709REMSYN02922263 00070 20603 307// 40702EQDQ01+000082SCOTLC
0149999999999991992010101004+57300-022600FM-13+999999999V0202701N02061005401CN0100001N9+00441-00071100371ADDAG12999GA1071+005409089GF107991071021004501999999MD1210281+9999SA1+0929UA1M120609999UG1990852609REMSYN04122261 00092 21212 326// 41517 333   87818
0038999999999991992010101454+34683+029900FM-18+9999DRIB V02099999999999999999N9999999N9+01131+99999101131ADDAG10999SA1+1609REMSYN011333   12505
0049999999999991992010101454+35983+028583FM-18+9999DRIB V02099999999999999999N9999999N9+00831+99999101401ADDAA115152091AG10999SA1+1449REMSYN011333   61529
0052999999999991992010102004+53500+010000FM-13+9999DBBC V0202501N006219999999N9999999N9+00351+00151102971ADDAG12999MD1710161+9999SA1+0439REMSYN01122200 00043
0085999999999991992010102004+54700+011100FM-13+9999DBFZ V02099999999999999999N0040001N9+00421+00421102651ADDAG12999MA1999999102431MD1710171+9999SA1+0499REMSYN029222// 00049 333   911// 912//
0119999999999991992010102004+65900+008800FM-13+9999LDWR V0202101N01031004201CN0100001N9+00451-00081097221ADDAG12999AY121999AY221999GF108991081091004501999999MD1810821+9999MW1151SA1+0779UA1I120459999REMSYN01722200 00077 11209
0121999999999991992010102004+44200-008300FM-13+9999FNFD V0200701N00771007501CN0500001N9+01151+00551103411ADDAG12999GF107991071051008001999999MD1110031+9999SA1+1389UA1M020109999UG1120252809REMSYN02922213 00138 20202 328// 41205
0143999999999991992010102004-39600+173400FM-13+9999VJBE V0201301N02261220001CN0200001N9+01551+01281100591ADDAG11999AY101999AY211999GF102991021071004501021999MD1210181+9999MW1011SA1+1709UA1M020209999UG1050451309REMSYN02922200 00170 20204 31300 40509
0171999999999991992010102004+57300-022600FM-13+9999GACA V0202501N02161005401CN0040001N9+00491-00341100391ADDAG12051AY181999AY221999GA1071+005409089GF107991071021004501999999MD1210211+9999MW1251SA1+0919UA1M140709999UG1990852609REMSYN04122261 00091 21414 326// 41517 333   87818
0052999999999991992010103004+53500+010000FM-13+9999DBBC V0202401N006219999999N9999999N9+00371+00191102951ADDAG12000MD1710081+9999SA1+0439REMSYN01122200 00043
0052999999999991992010103004+53900+008700FM-13+9999DBFP V0202501N007219999999N9999999N9+00381+00361102791ADDAG12000MD1710131+9999SA1+0409REMSYN01122200 00040
0052999999999991992010103004-04800+006400FM-13+9999DBBH V0202001N005119999999N0200001N9+02531+02061101151ADDAG12000MD1710191+9999SA1+2579REMSYN01122243 00257
0064999999999991992010103004+55900+168400FM-13+9999DUPV V0202101N003119999999N0005001N9+00001+00001098001ADDAG12000GF108991999999999999999999MD1110301+9999REMSYN00522263
0072999999999991992010103004+38100+011500FM-13+9999TSLH V0200401N00931036001CN0200001N9+01451+01021103101ADDAG12000AY101031AY201031GF108991021041012501041031MD1410001+9999MW1021
